{
	"contracts/C1.sol": {
		"ArticleRegistry": {
			"abi": [
				{
					"anonymous": false,
					"inputs": [
						{
							"indexed": true,
							"internalType": "uint256",
							"name": "articleId",
							"type": "uint256"
						},
						{
							"indexed": false,
							"internalType": "address",
							"name": "author",
							"type": "address"
						}
					],
					"name": "ArticleDeleted",
					"type": "event"
				},
				{
					"anonymous": false,
					"inputs": [
						{
							"indexed": true,
							"internalType": "uint256",
							"name": "articleId",
							"type": "uint256"
						},
						{
							"indexed": false,
							"internalType": "address",
							"name": "author",
							"type": "address"
						}
					],
					"name": "ArticlePosted",
					"type": "event"
				},
				{
					"anonymous": false,
					"inputs": [
						{
							"indexed": true,
							"internalType": "uint256",
							"name": "articleId",
							"type": "uint256"
						},
						{
							"indexed": false,
							"internalType": "address",
							"name": "author",
							"type": "address"
						}
					],
					"name": "ArticleUpdated",
					"type": "event"
				},
				{
					"inputs": [
						{
							"internalType": "uint256",
							"name": "",
							"type": "uint256"
						}
					],
					"name": "articleToAuthor",
					"outputs": [
						{
							"internalType": "address",
							"name": "",
							"type": "address"
						}
					],
					"stateMutability": "view",
					"type": "function"
				},
				{
					"inputs": [
						{
							"internalType": "uint256",
							"name": "",
							"type": "uint256"
						}
					],
					"name": "articles",
					"outputs": [
						{
							"internalType": "string",
							"name": "title",
							"type": "string"
						},
						{
							"internalType": "string",
							"name": "content",
							"type": "string"
						},
						{
							"internalType": "uint256",
							"name": "timestamp",
							"type": "uint256"
						},
						{
							"internalType": "address",
							"name": "author",
							"type": "address"
						}
					],
					"stateMutability": "view",
					"type": "function"
				},
				{
					"inputs": [
						{
							"internalType": "uint256",
							"name": "articleId",
							"type": "uint256"
						}
					],
					"name": "deleteArticle",
					"outputs": [],
					"stateMutability": "nonpayable",
					"type": "function"
				},
				{
					"inputs": [
						{
							"internalType": "uint256",
							"name": "articleId",
							"type": "uint256"
						}
					],
					"name": "getArticle",
					"outputs": [
						{
							"internalType": "string",
							"name": "",
							"type": "string"
						},
						{
							"internalType": "string",
							"name": "",
							"type": "string"
						},
						{
							"internalType": "uint256",
							"name": "",
							"type": "uint256"
						},
						{
							"internalType": "address",
							"name": "",
							"type": "address"
						}
					],
					"stateMutability": "view",
					"type": "function"
				},
				{
					"inputs": [],
					"name": "getArticleCount",
					"outputs": [
						{
							"internalType": "uint256",
							"name": "",
							"type": "uint256"
						}
					],
					"stateMutability": "view",
					"type": "function"
				},
				{
					"inputs": [
						{
							"internalType": "string",
							"name": "_title",
							"type": "string"
						},
						{
							"internalType": "string",
							"name": "_content",
							"type": "string"
						}
					],
					"name": "postArticle",
					"outputs": [],
					"stateMutability": "nonpayable",
					"type": "function"
				},
				{
					"inputs": [
						{
							"internalType": "uint256",
							"name": "articleId",
							"type": "uint256"
						},
						{
							"internalType": "string",
							"name": "_content",
							"type": "string"
						}
					],
					"name": "updateArticle",
					"outputs": [],
					"stateMutability": "nonpayable",
					"type": "function"
				}
			],
			"devdoc": {
				"custom:dev-run-script": "contracts/C1.sol",
				"details": "ContractDescription",
				"kind": "dev",
				"methods": {},
				"title": "ContractName",
				"version": 1
			},
			"evm": {
				"assembly": "    /* \"contracts/C1.sol\":177:2504  contract ArticleRegistry {... */\n  mstore(0x40, 0x80)\n  callvalue\n  dup1\n  iszero\n  tag_1\n  jumpi\n  0x00\n  dup1\n  revert\ntag_1:\n  pop\n  dataSize(sub_0)\n  dup1\n  dataOffset(sub_0)\n  0x00\n  codecopy\n  0x00\n  return\nstop\n\nsub_0: assembly {\n        /* \"contracts/C1.sol\":177:2504  contract ArticleRegistry {... */\n      mstore(0x40, 0x80)\n      callvalue\n      dup1\n      iszero\n      tag_1\n      jumpi\n      0x00\n      dup1\n      revert\n    tag_1:\n      pop\n      jumpi(tag_2, lt(calldatasize, 0x04))\n      shr(0xe0, calldataload(0x00))\n      dup1\n      0x8120abed\n      gt\n      tag_10\n      jumpi\n      dup1\n      0x8120abed\n      eq\n      tag_6\n      jumpi\n      dup1\n      0xbd85d867\n      eq\n      tag_7\n      jumpi\n      dup1\n      0xe899d5ff\n      eq\n      tag_8\n      jumpi\n      dup1\n      0xedcfafe6\n      eq\n      tag_9\n      jumpi\n      jump(tag_2)\n    tag_10:\n      dup1\n      0x2d7e176a\n      eq\n      tag_3\n      jumpi\n      dup1\n      0x3dd80c33\n      eq\n      tag_4\n      jumpi\n      dup1\n      0x498de8b3\n      eq\n      tag_5\n      jumpi\n    tag_2:\n      0x00\n      dup1\n      revert\n        /* \"contracts/C1.sol\":645:1298  function postArticle(string memory _title, string memory _content) public {... */\n    tag_3:\n      tag_11\n      0x04\n      dup1\n      calldatasize\n      sub\n      dup2\n      add\n      swap1\n      tag_12\n      swap2\n      swap1\n      tag_13\n      jump\t// in\n    tag_12:\n      tag_14\n      jump\t// in\n    tag_11:\n      stop\n        /* \"contracts/C1.sol\":375:425  mapping(uint256 => address) public articleToAuthor */\n    tag_4:\n      tag_15\n      0x04\n      dup1\n      calldatasize\n      sub\n      dup2\n      add\n      swap1\n      tag_16\n      swap2\n      swap1\n      tag_17\n      jump\t// in\n    tag_16:\n      tag_18\n      jump\t// in\n    tag_15:\n      mload(0x40)\n      tag_19\n      swap2\n      swap1\n      tag_20\n      jump\t// in\n    tag_19:\n      mload(0x40)\n      dup1\n      swap2\n      sub\n      swap1\n      return\n        /* \"contracts/C1.sol\":1704:2058  function deleteArticle(uint256 articleId) public {... */\n    tag_5:\n      tag_21\n      0x04\n      dup1\n      calldatasize\n      sub\n      dup2\n      add\n      swap1\n      tag_22\n      swap2\n      swap1\n      tag_17\n      jump\t// in\n    tag_22:\n      tag_23\n      jump\t// in\n    tag_21:\n      stop\n        /* \"contracts/C1.sol\":1306:1696  function updateArticle(uint256 articleId, string memory _content) public {... */\n    tag_6:\n      tag_24\n      0x04\n      dup1\n      calldatasize\n      sub\n      dup2\n      add\n      swap1\n      tag_25\n      swap2\n      swap1\n      tag_26\n      jump\t// in\n    tag_25:\n      tag_27\n      jump\t// in\n    tag_24:\n      stop\n        /* \"contracts/C1.sol\":2066:2395  function getArticle(uint256 articleId) public view returns (string memory, string memory, uint256, address) {... */\n    tag_7:\n      tag_28\n      0x04\n      dup1\n      calldatasize\n      sub\n      dup2\n      add\n      swap1\n      tag_29\n      swap2\n      swap1\n      tag_17\n      jump\t// in\n    tag_29:\n      tag_30\n      jump\t// in\n    tag_28:\n      mload(0x40)\n      tag_31\n      swap5\n      swap4\n      swap3\n      swap2\n      swap1\n      tag_32\n      jump\t// in\n    tag_31:\n      mload(0x40)\n      dup1\n      swap2\n      sub\n      swap1\n      return\n        /* \"contracts/C1.sol\":2403:2501  function getArticleCount() public view returns (uint256) {... */\n    tag_8:\n      tag_33\n      tag_34\n      jump\t// in\n    tag_33:\n      mload(0x40)\n      tag_35\n      swap2\n      swap1\n      tag_36\n      jump\t// in\n    tag_35:\n      mload(0x40)\n      dup1\n      swap2\n      sub\n      swap1\n      return\n        /* \"contracts/C1.sol\":341:366  Article[] public articles */\n    tag_9:\n      tag_37\n      0x04\n      dup1\n      calldatasize\n      sub\n      dup2\n      add\n      swap1\n      tag_38\n      swap2\n      swap1\n      tag_17\n      jump\t// in\n    tag_38:\n      tag_39\n      jump\t// in\n    tag_37:\n      mload(0x40)\n      tag_40\n      swap5\n      swap4\n      swap3\n      swap2\n      swap1\n      tag_32\n      jump\t// in\n    tag_40:\n      mload(0x40)\n      dup1\n      swap2\n      sub\n      swap1\n      return\n        /* \"contracts/C1.sol\":645:1298  function postArticle(string memory _title, string memory _content) public {... */\n    tag_14:\n        /* \"contracts/C1.sol\":761:762  0 */\n      0x00\n        /* \"contracts/C1.sol\":744:750  _title */\n      dup3\n        /* \"contracts/C1.sol\":738:758  bytes(_title).length */\n      mload\n        /* \"contracts/C1.sol\":738:762  bytes(_title).length > 0 */\n      gt\n        /* \"contracts/C1.sol\":730:788  require(bytes(_title).length > 0, \"Title cannot be empty\") */\n      tag_42\n      jumpi\n      mload(0x40)\n      0x08c379a000000000000000000000000000000000000000000000000000000000\n      dup2\n      mstore\n      0x04\n      add\n      tag_43\n      swap1\n      tag_44\n      jump\t// in\n    tag_43:\n      mload(0x40)\n      dup1\n      swap2\n      sub\n      swap1\n      revert\n    tag_42:\n        /* \"contracts/C1.sol\":832:833  0 */\n      0x00\n        /* \"contracts/C1.sol\":813:821  _content */\n      dup2\n        /* \"contracts/C1.sol\":807:829  bytes(_content).length */\n      mload\n        /* \"contracts/C1.sol\":807:833  bytes(_content).length > 0 */\n      gt\n        /* \"contracts/C1.sol\":799:861  require(bytes(_content).length > 0, \"Content cannot be empty\") */\n      tag_45\n      jumpi\n      mload(0x40)\n      0x08c379a000000000000000000000000000000000000000000000000000000000\n      dup2\n      mstore\n      0x04\n      add\n      tag_46\n      swap1\n      tag_47\n      jump\t// in\n    tag_46:\n      mload(0x40)\n      dup1\n      swap2\n      sub\n      swap1\n      revert\n    tag_45:\n        /* \"contracts/C1.sol\":874:891  uint256 timestamp */\n      0x00\n        /* \"contracts/C1.sol\":894:909  block.timestamp */\n      timestamp\n        /* \"contracts/C1.sol\":874:909  uint256 timestamp = block.timestamp */\n      swap1\n      pop\n        /* \"contracts/C1.sol\":947:961  address author */\n      0x00\n        /* \"contracts/C1.sol\":964:974  msg.sender */\n      caller\n        /* \"contracts/C1.sol\":947:974  address author = msg.sender */\n      swap1\n      pop\n        /* \"contracts/C1.sol\":987:1004  uint256 articleId */\n      0x00\n        /* \"contracts/C1.sol\":1007:1015  articles */\n      dup1\n        /* \"contracts/C1.sol\":1007:1022  articles.length */\n      dup1\n      sload\n      swap1\n      pop\n        /* \"contracts/C1.sol\":987:1022  uint256 articleId = articles.length */\n      swap1\n      pop\n        /* \"contracts/C1.sol\":1033:1041  articles */\n      0x00\n        /* \"contracts/C1.sol\":1047:1191  Article({... */\n      mload(0x40)\n      dup1\n      0x80\n      add\n      0x40\n      mstore\n      dup1\n        /* \"contracts/C1.sol\":1077:1083  _title */\n      dup8\n        /* \"contracts/C1.sol\":1047:1191  Article({... */\n      dup2\n      mstore\n      0x20\n      add\n        /* \"contracts/C1.sol\":1107:1115  _content */\n      dup7\n        /* \"contracts/C1.sol\":1047:1191  Article({... */\n      dup2\n      mstore\n      0x20\n      add\n        /* \"contracts/C1.sol\":1141:1150  timestamp */\n      dup6\n        /* \"contracts/C1.sol\":1047:1191  Article({... */\n      dup2\n      mstore\n      0x20\n      add\n        /* \"contracts/C1.sol\":1173:1179  author */\n      dup5\n        /* \"contracts/C1.sol\":1047:1191  Article({... */\n      0xffffffffffffffffffffffffffffffffffffffff\n      and\n      dup2\n      mstore\n      pop\n        /* \"contracts/C1.sol\":1033:1192  articles.push(Article({... */\n      swap1\n      dup1\n      0x01\n      dup2\n      sload\n      add\n      dup1\n      dup3\n      sstore\n      dup1\n      swap2\n      pop\n      pop\n      0x01\n      swap1\n      sub\n      swap1\n      0x00\n      mstore\n      keccak256(0x00, 0x20)\n      swap1\n      0x04\n      mul\n      add\n      0x00\n      swap1\n      swap2\n      swap1\n      swap2\n      swap1\n      swap2\n      pop\n      0x00\n      dup3\n      add\n      mload\n      dup2\n      0x00\n      add\n      swap1\n      dup2\n      tag_49\n      swap2\n      swap1\n      tag_50\n      jump\t// in\n    tag_49:\n      pop\n      0x20\n      dup3\n      add\n      mload\n      dup2\n      0x01\n      add\n      swap1\n      dup2\n      tag_51\n      swap2\n      swap1\n      tag_50\n      jump\t// in\n    tag_51:\n      pop\n      0x40\n      dup3\n      add\n      mload\n      dup2\n      0x02\n      add\n      sstore\n      0x60\n      dup3\n      add\n      mload\n      dup2\n      0x03\n      add\n      exp(0x0100, 0x00)\n      dup2\n      sload\n      dup2\n      0xffffffffffffffffffffffffffffffffffffffff\n      mul\n      not\n      and\n      swap1\n      dup4\n      0xffffffffffffffffffffffffffffffffffffffff\n      and\n      mul\n      or\n      swap1\n      sstore\n      pop\n      pop\n      pop\n        /* \"contracts/C1.sol\":1234:1240  author */\n      dup2\n        /* \"contracts/C1.sol\":1205:1220  articleToAuthor */\n      0x01\n        /* \"contracts/C1.sol\":1205:1231  articleToAuthor[articleId] */\n      0x00\n        /* \"contracts/C1.sol\":1221:1230  articleId */\n      dup4\n        /* \"contracts/C1.sol\":1205:1231  articleToAuthor[articleId] */\n      dup2\n      mstore\n      0x20\n      add\n      swap1\n      dup2\n      mstore\n      0x20\n      add\n      0x00\n      keccak256\n      0x00\n        /* \"contracts/C1.sol\":1205:1240  articleToAuthor[articleId] = author */\n      0x0100\n      exp\n      dup2\n      sload\n      dup2\n      0xffffffffffffffffffffffffffffffffffffffff\n      mul\n      not\n      and\n      swap1\n      dup4\n      0xffffffffffffffffffffffffffffffffffffffff\n      and\n      mul\n      or\n      swap1\n      sstore\n      pop\n        /* \"contracts/C1.sol\":1272:1281  articleId */\n      dup1\n        /* \"contracts/C1.sol\":1258:1290  ArticlePosted(articleId, author) */\n      0x0d067132b5b7b86fabe7a6d7293411e7a1495db0cc1a3c051c7001f09b6b3629\n        /* \"contracts/C1.sol\":1283:1289  author */\n      dup4\n        /* \"contracts/C1.sol\":1258:1290  ArticlePosted(articleId, author) */\n      mload(0x40)\n      tag_52\n      swap2\n      swap1\n      tag_20\n      jump\t// in\n    tag_52:\n      mload(0x40)\n      dup1\n      swap2\n      sub\n      swap1\n      log2\n        /* \"contracts/C1.sol\":719:1298  {... */\n      pop\n      pop\n      pop\n        /* \"contracts/C1.sol\":645:1298  function postArticle(string memory _title, string memory _content) public {... */\n      pop\n      pop\n      jump\t// out\n        /* \"contracts/C1.sol\":375:425  mapping(uint256 => address) public articleToAuthor */\n    tag_18:\n      mstore(0x20, 0x01)\n      dup1\n      0x00\n      mstore\n      keccak256(0x00, 0x40)\n      0x00\n      swap2\n      pop\n      sload\n      swap1\n      0x0100\n      exp\n      swap1\n      div\n      0xffffffffffffffffffffffffffffffffffffffff\n      and\n      dup2\n      jump\t// out\n        /* \"contracts/C1.sol\":1704:2058  function deleteArticle(uint256 articleId) public {... */\n    tag_23:\n        /* \"contracts/C1.sol\":1784:1792  articles */\n      0x00\n        /* \"contracts/C1.sol\":1784:1799  articles.length */\n      dup1\n      sload\n      swap1\n      pop\n        /* \"contracts/C1.sol\":1772:1781  articleId */\n      dup2\n        /* \"contracts/C1.sol\":1772:1799  articleId < articles.length */\n      lt\n        /* \"contracts/C1.sol\":1764:1826  require(articleId < articles.length, \"Article does not exist\") */\n      tag_54\n      jumpi\n      mload(0x40)\n      0x08c379a000000000000000000000000000000000000000000000000000000000\n      dup2\n      mstore\n      0x04\n      add\n      tag_55\n      swap1\n      tag_56\n      jump\t// in\n    tag_55:\n      mload(0x40)\n      dup1\n      swap2\n      sub\n      swap1\n      revert\n    tag_54:\n        /* \"contracts/C1.sol\":1837:1851  address author */\n      0x00\n        /* \"contracts/C1.sol\":1854:1869  articleToAuthor */\n      0x01\n        /* \"contracts/C1.sol\":1854:1880  articleToAuthor[articleId] */\n      0x00\n        /* \"contracts/C1.sol\":1870:1879  articleId */\n      dup4\n        /* \"contracts/C1.sol\":1854:1880  articleToAuthor[articleId] */\n      dup2\n      mstore\n      0x20\n      add\n      swap1\n      dup2\n      mstore\n      0x20\n      add\n      0x00\n      keccak256\n      0x00\n      swap1\n      sload\n      swap1\n      0x0100\n      exp\n      swap1\n      div\n      0xffffffffffffffffffffffffffffffffffffffff\n      and\n        /* \"contracts/C1.sol\":1837:1880  address author = articleToAuthor[articleId] */\n      swap1\n      pop\n        /* \"contracts/C1.sol\":1913:1919  author */\n      dup1\n        /* \"contracts/C1.sol\":1899:1919  msg.sender == author */\n      0xffffffffffffffffffffffffffffffffffffffff\n      and\n        /* \"contracts/C1.sol\":1899:1909  msg.sender */\n      caller\n        /* \"contracts/C1.sol\":1899:1919  msg.sender == author */\n      0xffffffffffffffffffffffffffffffffffffffff\n      and\n      eq\n        /* \"contracts/C1.sol\":1891:1962  require(msg.sender == author, \"Only the author can delete the article\") */\n      tag_57\n      jumpi\n      mload(0x40)\n      0x08c379a000000000000000000000000000000000000000000000000000000000\n      dup2\n      mstore\n      0x04\n      add\n      tag_58\n      swap1\n      tag_59\n      jump\t// in\n    tag_58:\n      mload(0x40)\n      dup1\n      swap2\n      sub\n      swap1\n      revert\n    tag_57:\n        /* \"contracts/C1.sol\":1982:1990  articles */\n      0x00\n        /* \"contracts/C1.sol\":1991:2000  articleId */\n      dup3\n        /* \"contracts/C1.sol\":1982:2001  articles[articleId] */\n      dup2\n      sload\n      dup2\n      lt\n      tag_60\n      jumpi\n      tag_61\n      tag_62\n      jump\t// in\n    tag_61:\n    tag_60:\n      swap1\n      0x00\n      mstore\n      keccak256(0x00, 0x20)\n      swap1\n      0x04\n      mul\n      add\n      0x00\n        /* \"contracts/C1.sol\":1975:2001  delete articles[articleId] */\n      dup1\n      dup3\n      add\n      0x00\n      tag_64\n      swap2\n      swap1\n      tag_65\n      jump\t// in\n    tag_64:\n      0x01\n      dup3\n      add\n      0x00\n      tag_66\n      swap2\n      swap1\n      tag_65\n      jump\t// in\n    tag_66:\n      0x02\n      dup3\n      add\n      0x00\n      swap1\n      sstore\n      0x03\n      dup3\n      add\n      exp(0x0100, 0x00)\n      dup2\n      sload\n      swap1\n      0xffffffffffffffffffffffffffffffffffffffff\n      mul\n      not\n      and\n      swap1\n      sstore\n      pop\n      pop\n        /* \"contracts/C1.sol\":2032:2041  articleId */\n      dup2\n        /* \"contracts/C1.sol\":2017:2050  ArticleDeleted(articleId, author) */\n      0xa4756d558a7f308c2c69668746970e42c7fada751c0a969d29a5a8f0ccd285cc\n        /* \"contracts/C1.sol\":2043:2049  author */\n      dup3\n        /* \"contracts/C1.sol\":2017:2050  ArticleDeleted(articleId, author) */\n      mload(0x40)\n      tag_67\n      swap2\n      swap1\n      tag_20\n      jump\t// in\n    tag_67:\n      mload(0x40)\n      dup1\n      swap2\n      sub\n      swap1\n      log2\n        /* \"contracts/C1.sol\":1753:2058  {... */\n      pop\n        /* \"contracts/C1.sol\":1704:2058  function deleteArticle(uint256 articleId) public {... */\n      pop\n      jump\t// out\n        /* \"contracts/C1.sol\":1306:1696  function updateArticle(uint256 articleId, string memory _content) public {... */\n    tag_27:\n        /* \"contracts/C1.sol\":1410:1418  articles */\n      0x00\n        /* \"contracts/C1.sol\":1410:1425  articles.length */\n      dup1\n      sload\n      swap1\n      pop\n        /* \"contracts/C1.sol\":1398:1407  articleId */\n      dup3\n        /* \"contracts/C1.sol\":1398:1425  articleId < articles.length */\n      lt\n        /* \"contracts/C1.sol\":1390:1452  require(articleId < articles.length, \"Article does not exist\") */\n      tag_69\n      jumpi\n      mload(0x40)\n      0x08c379a000000000000000000000000000000000000000000000000000000000\n      dup2\n      mstore\n      0x04\n      add\n      tag_70\n      swap1\n      tag_56\n      jump\t// in\n    tag_70:\n      mload(0x40)\n      dup1\n      swap2\n      sub\n      swap1\n      revert\n    tag_69:\n        /* \"contracts/C1.sol\":1463:1477  address author */\n      0x00\n        /* \"contracts/C1.sol\":1480:1495  articleToAuthor */\n      0x01\n        /* \"contracts/C1.sol\":1480:1506  articleToAuthor[articleId] */\n      0x00\n        /* \"contracts/C1.sol\":1496:1505  articleId */\n      dup5\n        /* \"contracts/C1.sol\":1480:1506  articleToAuthor[articleId] */\n      dup2\n      mstore\n      0x20\n      add\n      swap1\n      dup2\n      mstore\n      0x20\n      add\n      0x00\n      keccak256\n      0x00\n      swap1\n      sload\n      swap1\n      0x0100\n      exp\n      swap1\n      div\n      0xffffffffffffffffffffffffffffffffffffffff\n      and\n        /* \"contracts/C1.sol\":1463:1506  address author = articleToAuthor[articleId] */\n      swap1\n      pop\n        /* \"contracts/C1.sol\":1539:1545  author */\n      dup1\n        /* \"contracts/C1.sol\":1525:1545  msg.sender == author */\n      0xffffffffffffffffffffffffffffffffffffffff\n      and\n        /* \"contracts/C1.sol\":1525:1535  msg.sender */\n      caller\n        /* \"contracts/C1.sol\":1525:1545  msg.sender == author */\n      0xffffffffffffffffffffffffffffffffffffffff\n      and\n      eq\n        /* \"contracts/C1.sol\":1517:1588  require(msg.sender == author, \"Only the author can update the article\") */\n      tag_71\n      jumpi\n      mload(0x40)\n      0x08c379a000000000000000000000000000000000000000000000000000000000\n      dup2\n      mstore\n      0x04\n      add\n      tag_72\n      swap1\n      tag_73\n      jump\t// in\n    tag_72:\n      mload(0x40)\n      dup1\n      swap2\n      sub\n      swap1\n      revert\n    tag_71:\n        /* \"contracts/C1.sol\":1631:1639  _content */\n      dup2\n        /* \"contracts/C1.sol\":1601:1609  articles */\n      0x00\n        /* \"contracts/C1.sol\":1610:1619  articleId */\n      dup5\n        /* \"contracts/C1.sol\":1601:1620  articles[articleId] */\n      dup2\n      sload\n      dup2\n      lt\n      tag_74\n      jumpi\n      tag_75\n      tag_62\n      jump\t// in\n    tag_75:\n    tag_74:\n      swap1\n      0x00\n      mstore\n      keccak256(0x00, 0x20)\n      swap1\n      0x04\n      mul\n      add\n        /* \"contracts/C1.sol\":1601:1628  articles[articleId].content */\n      0x01\n      add\n        /* \"contracts/C1.sol\":1601:1639  articles[articleId].content = _content */\n      swap1\n      dup2\n      tag_77\n      swap2\n      swap1\n      tag_50\n      jump\t// in\n    tag_77:\n      pop\n        /* \"contracts/C1.sol\":1670:1679  articleId */\n      dup3\n        /* \"contracts/C1.sol\":1655:1688  ArticleUpdated(articleId, author) */\n      0x785a15875bf13599097808f87026b2497f90861161e0a08769dc6e2944b6d5db\n        /* \"contracts/C1.sol\":1681:1687  author */\n      dup3\n        /* \"contracts/C1.sol\":1655:1688  ArticleUpdated(articleId, author) */\n      mload(0x40)\n      tag_78\n      swap2\n      swap1\n      tag_20\n      jump\t// in\n    tag_78:\n      mload(0x40)\n      dup1\n      swap2\n      sub\n      swap1\n      log2\n        /* \"contracts/C1.sol\":1379:1696  {... */\n      pop\n        /* \"contracts/C1.sol\":1306:1696  function updateArticle(uint256 articleId, string memory _content) public {... */\n      pop\n      pop\n      jump\t// out\n        /* \"contracts/C1.sol\":2066:2395  function getArticle(uint256 articleId) public view returns (string memory, string memory, uint256, address) {... */\n    tag_30:\n        /* \"contracts/C1.sol\":2126:2139  string memory */\n      0x60\n        /* \"contracts/C1.sol\":2141:2154  string memory */\n      dup1\n        /* \"contracts/C1.sol\":2156:2163  uint256 */\n      0x00\n        /* \"contracts/C1.sol\":2165:2172  address */\n      dup1\n        /* \"contracts/C1.sol\":2205:2213  articles */\n      0x00\n        /* \"contracts/C1.sol\":2205:2220  articles.length */\n      dup1\n      sload\n      swap1\n      pop\n        /* \"contracts/C1.sol\":2193:2202  articleId */\n      dup6\n        /* \"contracts/C1.sol\":2193:2220  articleId < articles.length */\n      lt\n        /* \"contracts/C1.sol\":2185:2247  require(articleId < articles.length, \"Article does not exist\") */\n      tag_80\n      jumpi\n      mload(0x40)\n      0x08c379a000000000000000000000000000000000000000000000000000000000\n      dup2\n      mstore\n      0x04\n      add\n      tag_81\n      swap1\n      tag_56\n      jump\t// in\n    tag_81:\n      mload(0x40)\n      dup1\n      swap2\n      sub\n      swap1\n      revert\n    tag_80:\n        /* \"contracts/C1.sol\":2258:2280  Article memory article */\n      0x00\n        /* \"contracts/C1.sol\":2283:2291  articles */\n      dup1\n        /* \"contracts/C1.sol\":2292:2301  articleId */\n      dup7\n        /* \"contracts/C1.sol\":2283:2302  articles[articleId] */\n      dup2\n      sload\n      dup2\n      lt\n      tag_82\n      jumpi\n      tag_83\n      tag_62\n      jump\t// in\n    tag_83:\n    tag_82:\n      swap1\n      0x00\n      mstore\n      keccak256(0x00, 0x20)\n      swap1\n      0x04\n      mul\n      add\n        /* \"contracts/C1.sol\":2258:2302  Article memory article = articles[articleId] */\n      mload(0x40)\n      dup1\n      0x80\n      add\n      0x40\n      mstore\n      swap1\n      dup2\n      0x00\n      dup3\n      add\n      dup1\n      sload\n      tag_85\n      swap1\n      tag_86\n      jump\t// in\n    tag_85:\n      dup1\n      0x1f\n      add\n      0x20\n      dup1\n      swap2\n      div\n      mul\n      0x20\n      add\n      mload(0x40)\n      swap1\n      dup2\n      add\n      0x40\n      mstore\n      dup1\n      swap3\n      swap2\n      swap1\n      dup2\n      dup2\n      mstore\n      0x20\n      add\n      dup3\n      dup1\n      sload\n      tag_87\n      swap1\n      tag_86\n      jump\t// in\n    tag_87:\n      dup1\n      iszero\n      tag_88\n      jumpi\n      dup1\n      0x1f\n      lt\n      tag_89\n      jumpi\n      0x0100\n      dup1\n      dup4\n      sload\n      div\n      mul\n      dup4\n      mstore\n      swap2\n      0x20\n      add\n      swap2\n      jump(tag_88)\n    tag_89:\n      dup3\n      add\n      swap2\n      swap1\n      0x00\n      mstore\n      keccak256(0x00, 0x20)\n      swap1\n    tag_90:\n      dup2\n      sload\n      dup2\n      mstore\n      swap1\n      0x01\n      add\n      swap1\n      0x20\n      add\n      dup1\n      dup4\n      gt\n      tag_90\n      jumpi\n      dup3\n      swap1\n      sub\n      0x1f\n      and\n      dup3\n      add\n      swap2\n    tag_88:\n      pop\n      pop\n      pop\n      pop\n      pop\n      dup2\n      mstore\n      0x20\n      add\n      0x01\n      dup3\n      add\n      dup1\n      sload\n      tag_91\n      swap1\n      tag_86\n      jump\t// in\n    tag_91:\n      dup1\n      0x1f\n      add\n      0x20\n      dup1\n      swap2\n      div\n      mul\n      0x20\n      add\n      mload(0x40)\n      swap1\n      dup2\n      add\n      0x40\n      mstore\n      dup1\n      swap3\n      swap2\n      swap1\n      dup2\n      dup2\n      mstore\n      0x20\n      add\n      dup3\n      dup1\n      sload\n      tag_92\n      swap1\n      tag_86\n      jump\t// in\n    tag_92:\n      dup1\n      iszero\n      tag_93\n      jumpi\n      dup1\n      0x1f\n      lt\n      tag_94\n      jumpi\n      0x0100\n      dup1\n      dup4\n      sload\n      div\n      mul\n      dup4\n      mstore\n      swap2\n      0x20\n      add\n      swap2\n      jump(tag_93)\n    tag_94:\n      dup3\n      add\n      swap2\n      swap1\n      0x00\n      mstore\n      keccak256(0x00, 0x20)\n      swap1\n    tag_95:\n      dup2\n      sload\n      dup2\n      mstore\n      swap1\n      0x01\n      add\n      swap1\n      0x20\n      add\n      dup1\n      dup4\n      gt\n      tag_95\n      jumpi\n      dup3\n      swap1\n      sub\n      0x1f\n      and\n      dup3\n      add\n      swap2\n    tag_93:\n      pop\n      pop\n      pop\n      pop\n      pop\n      dup2\n      mstore\n      0x20\n      add\n      0x02\n      dup3\n      add\n      sload\n      dup2\n      mstore\n      0x20\n      add\n      0x03\n      dup3\n      add\n      0x00\n      swap1\n      sload\n      swap1\n      0x0100\n      exp\n      swap1\n      div\n      0xffffffffffffffffffffffffffffffffffffffff\n      and\n      0xffffffffffffffffffffffffffffffffffffffff\n      and\n      0xffffffffffffffffffffffffffffffffffffffff\n      and\n      dup2\n      mstore\n      pop\n      pop\n      swap1\n      pop\n        /* \"contracts/C1.sol\":2321:2328  article */\n      dup1\n        /* \"contracts/C1.sol\":2321:2334  article.title */\n      0x00\n      add\n      mload\n        /* \"contracts/C1.sol\":2336:2343  article */\n      dup2\n        /* \"contracts/C1.sol\":2336:2351  article.content */\n      0x20\n      add\n      mload\n        /* \"contracts/C1.sol\":2353:2360  article */\n      dup3\n        /* \"contracts/C1.sol\":2353:2370  article.timestamp */\n      0x40\n      add\n      mload\n        /* \"contracts/C1.sol\":2372:2379  article */\n      dup4\n        /* \"contracts/C1.sol\":2372:2386  article.author */\n      0x60\n      add\n      mload\n        /* \"contracts/C1.sol\":2313:2387  return (article.title, article.content, article.timestamp, article.author) */\n      swap5\n      pop\n      swap5\n      pop\n      swap5\n      pop\n      swap5\n      pop\n      pop\n        /* \"contracts/C1.sol\":2066:2395  function getArticle(uint256 articleId) public view returns (string memory, string memory, uint256, address) {... */\n      swap2\n      swap4\n      pop\n      swap2\n      swap4\n      jump\t// out\n        /* \"contracts/C1.sol\":2403:2501  function getArticleCount() public view returns (uint256) {... */\n    tag_34:\n        /* \"contracts/C1.sol\":2451:2458  uint256 */\n      0x00\n        /* \"contracts/C1.sol\":2478:2486  articles */\n      dup1\n        /* \"contracts/C1.sol\":2478:2493  articles.length */\n      dup1\n      sload\n      swap1\n      pop\n        /* \"contracts/C1.sol\":2471:2493  return articles.length */\n      swap1\n      pop\n        /* \"contracts/C1.sol\":2403:2501  function getArticleCount() public view returns (uint256) {... */\n      swap1\n      jump\t// out\n        /* \"contracts/C1.sol\":341:366  Article[] public articles */\n    tag_39:\n      0x00\n      dup2\n      dup2\n      sload\n      dup2\n      lt\n      tag_97\n      jumpi\n      0x00\n      dup1\n      revert\n    tag_97:\n      swap1\n      0x00\n      mstore\n      keccak256(0x00, 0x20)\n      swap1\n      0x04\n      mul\n      add\n      0x00\n      swap2\n      pop\n      swap1\n      pop\n      dup1\n      0x00\n      add\n      dup1\n      sload\n      tag_99\n      swap1\n      tag_86\n      jump\t// in\n    tag_99:\n      dup1\n      0x1f\n      add\n      0x20\n      dup1\n      swap2\n      div\n      mul\n      0x20\n      add\n      mload(0x40)\n      swap1\n      dup2\n      add\n      0x40\n      mstore\n      dup1\n      swap3\n      swap2\n      swap1\n      dup2\n      dup2\n      mstore\n      0x20\n      add\n      dup3\n      dup1\n      sload\n      tag_100\n      swap1\n      tag_86\n      jump\t// in\n    tag_100:\n      dup1\n      iszero\n      tag_101\n      jumpi\n      dup1\n      0x1f\n      lt\n      tag_102\n      jumpi\n      0x0100\n      dup1\n      dup4\n      sload\n      div\n      mul\n      dup4\n      mstore\n      swap2\n      0x20\n      add\n      swap2\n      jump(tag_101)\n    tag_102:\n      dup3\n      add\n      swap2\n      swap1\n      0x00\n      mstore\n      keccak256(0x00, 0x20)\n      swap1\n    tag_103:\n      dup2\n      sload\n      dup2\n      mstore\n      swap1\n      0x01\n      add\n      swap1\n      0x20\n      add\n      dup1\n      dup4\n      gt\n      tag_103\n      jumpi\n      dup3\n      swap1\n      sub\n      0x1f\n      and\n      dup3\n      add\n      swap2\n    tag_101:\n      pop\n      pop\n      pop\n      pop\n      pop\n      swap1\n      dup1\n      0x01\n      add\n      dup1\n      sload\n      tag_104\n      swap1\n      tag_86\n      jump\t// in\n    tag_104:\n      dup1\n      0x1f\n      add\n      0x20\n      dup1\n      swap2\n      div\n      mul\n      0x20\n      add\n      mload(0x40)\n      swap1\n      dup2\n      add\n      0x40\n      mstore\n      dup1\n      swap3\n      swap2\n      swap1\n      dup2\n      dup2\n      mstore\n      0x20\n      add\n      dup3\n      dup1\n      sload\n      tag_105\n      swap1\n      tag_86\n      jump\t// in\n    tag_105:\n      dup1\n      iszero\n      tag_106\n      jumpi\n      dup1\n      0x1f\n      lt\n      tag_107\n      jumpi\n      0x0100\n      dup1\n      dup4\n      sload\n      div\n      mul\n      dup4\n      mstore\n      swap2\n      0x20\n      add\n      swap2\n      jump(tag_106)\n    tag_107:\n      dup3\n      add\n      swap2\n      swap1\n      0x00\n      mstore\n      keccak256(0x00, 0x20)\n      swap1\n    tag_108:\n      dup2\n      sload\n      dup2\n      mstore\n      swap1\n      0x01\n      add\n      swap1\n      0x20\n      add\n      dup1\n      dup4\n      gt\n      tag_108\n      jumpi\n      dup3\n      swap1\n      sub\n      0x1f\n      and\n      dup3\n      add\n      swap2\n    tag_106:\n      pop\n      pop\n      pop\n      pop\n      pop\n      swap1\n      dup1\n      0x02\n      add\n      sload\n      swap1\n      dup1\n      0x03\n      add\n      0x00\n      swap1\n      sload\n      swap1\n      0x0100\n      exp\n      swap1\n      div\n      0xffffffffffffffffffffffffffffffffffffffff\n      and\n      swap1\n      pop\n      dup5\n      jump\t// out\n    tag_65:\n      pop\n      dup1\n      sload\n      tag_109\n      swap1\n      tag_86\n      jump\t// in\n    tag_109:\n      0x00\n      dup3\n      sstore\n      dup1\n      0x1f\n      lt\n      tag_111\n      jumpi\n      pop\n      jump(tag_110)\n    tag_111:\n      0x1f\n      add\n      0x20\n      swap1\n      div\n      swap1\n      0x00\n      mstore\n      keccak256(0x00, 0x20)\n      swap1\n      dup2\n      add\n      swap1\n      tag_112\n      swap2\n      swap1\n      tag_113\n      jump\t// in\n    tag_112:\n    tag_110:\n      pop\n      jump\t// out\n    tag_113:\n    tag_114:\n      dup1\n      dup3\n      gt\n      iszero\n      tag_115\n      jumpi\n      0x00\n      dup2\n      0x00\n      swap1\n      sstore\n      pop\n      0x01\n      add\n      jump(tag_114)\n    tag_115:\n      pop\n      swap1\n      jump\t// out\n        /* \"#utility.yul\":7:82   */\n    tag_116:\n        /* \"#utility.yul\":40:46   */\n      0x00\n        /* \"#utility.yul\":73:75   */\n      0x40\n        /* \"#utility.yul\":67:76   */\n      mload\n        /* \"#utility.yul\":57:76   */\n      swap1\n      pop\n        /* \"#utility.yul\":7:82   */\n      swap1\n      jump\t// out\n        /* \"#utility.yul\":88:205   */\n    tag_117:\n        /* \"#utility.yul\":197:198   */\n      0x00\n        /* \"#utility.yul\":194:195   */\n      dup1\n        /* \"#utility.yul\":187:199   */\n      revert\n        /* \"#utility.yul\":211:328   */\n    tag_118:\n        /* \"#utility.yul\":320:321   */\n      0x00\n        /* \"#utility.yul\":317:318   */\n      dup1\n        /* \"#utility.yul\":310:322   */\n      revert\n        /* \"#utility.yul\":334:451   */\n    tag_119:\n        /* \"#utility.yul\":443:444   */\n      0x00\n        /* \"#utility.yul\":440:441   */\n      dup1\n        /* \"#utility.yul\":433:445   */\n      revert\n        /* \"#utility.yul\":457:574   */\n    tag_120:\n        /* \"#utility.yul\":566:567   */\n      0x00\n        /* \"#utility.yul\":563:564   */\n      dup1\n        /* \"#utility.yul\":556:568   */\n      revert\n        /* \"#utility.yul\":580:682   */\n    tag_121:\n        /* \"#utility.yul\":621:627   */\n      0x00\n        /* \"#utility.yul\":672:674   */\n      0x1f\n        /* \"#utility.yul\":668:675   */\n      not\n        /* \"#utility.yul\":663:665   */\n      0x1f\n        /* \"#utility.yul\":656:661   */\n      dup4\n        /* \"#utility.yul\":652:666   */\n      add\n        /* \"#utility.yul\":648:676   */\n      and\n        /* \"#utility.yul\":638:676   */\n      swap1\n      pop\n        /* \"#utility.yul\":580:682   */\n      swap2\n      swap1\n      pop\n      jump\t// out\n        /* \"#utility.yul\":688:868   */\n    tag_122:\n        /* \"#utility.yul\":736:813   */\n      0x4e487b7100000000000000000000000000000000000000000000000000000000\n        /* \"#utility.yul\":733:734   */\n      0x00\n        /* \"#utility.yul\":726:814   */\n      mstore\n        /* \"#utility.yul\":833:837   */\n      0x41\n        /* \"#utility.yul\":830:831   */\n      0x04\n        /* \"#utility.yul\":823:838   */\n      mstore\n        /* \"#utility.yul\":857:861   */\n      0x24\n        /* \"#utility.yul\":854:855   */\n      0x00\n        /* \"#utility.yul\":847:862   */\n      revert\n        /* \"#utility.yul\":874:1155   */\n    tag_123:\n        /* \"#utility.yul\":957:984   */\n      tag_175\n        /* \"#utility.yul\":979:983   */\n      dup3\n        /* \"#utility.yul\":957:984   */\n      tag_121\n      jump\t// in\n    tag_175:\n        /* \"#utility.yul\":949:955   */\n      dup2\n        /* \"#utility.yul\":945:985   */\n      add\n        /* \"#utility.yul\":1087:1093   */\n      dup2\n        /* \"#utility.yul\":1075:1085   */\n      dup2\n        /* \"#utility.yul\":1072:1094   */\n      lt\n        /* \"#utility.yul\":1051:1069   */\n      0xffffffffffffffff\n        /* \"#utility.yul\":1039:1049   */\n      dup3\n        /* \"#utility.yul\":1036:1070   */\n      gt\n        /* \"#utility.yul\":1033:1095   */\n      or\n        /* \"#utility.yul\":1030:1118   */\n      iszero\n      tag_176\n      jumpi\n        /* \"#utility.yul\":1098:1116   */\n      tag_177\n      tag_122\n      jump\t// in\n    tag_177:\n        /* \"#utility.yul\":1030:1118   */\n    tag_176:\n        /* \"#utility.yul\":1138:1148   */\n      dup1\n        /* \"#utility.yul\":1134:1136   */\n      0x40\n        /* \"#utility.yul\":1127:1149   */\n      mstore\n        /* \"#utility.yul\":917:1155   */\n      pop\n        /* \"#utility.yul\":874:1155   */\n      pop\n      pop\n      jump\t// out\n        /* \"#utility.yul\":1161:1290   */\n    tag_124:\n        /* \"#utility.yul\":1195:1201   */\n      0x00\n        /* \"#utility.yul\":1222:1242   */\n      tag_179\n      tag_116\n      jump\t// in\n    tag_179:\n        /* \"#utility.yul\":1212:1242   */\n      swap1\n      pop\n        /* \"#utility.yul\":1251:1284   */\n      tag_180\n        /* \"#utility.yul\":1279:1283   */\n      dup3\n        /* \"#utility.yul\":1271:1277   */\n      dup3\n        /* \"#utility.yul\":1251:1284   */\n      tag_123\n      jump\t// in\n    tag_180:\n        /* \"#utility.yul\":1161:1290   */\n      swap2\n      swap1\n      pop\n      jump\t// out\n        /* \"#utility.yul\":1296:1604   */\n    tag_125:\n        /* \"#utility.yul\":1358:1362   */\n      0x00\n        /* \"#utility.yul\":1448:1466   */\n      0xffffffffffffffff\n        /* \"#utility.yul\":1440:1446   */\n      dup3\n        /* \"#utility.yul\":1437:1467   */\n      gt\n        /* \"#utility.yul\":1434:1490   */\n      iszero\n      tag_182\n      jumpi\n        /* \"#utility.yul\":1470:1488   */\n      tag_183\n      tag_122\n      jump\t// in\n    tag_183:\n        /* \"#utility.yul\":1434:1490   */\n    tag_182:\n        /* \"#utility.yul\":1508:1537   */\n      tag_184\n        /* \"#utility.yul\":1530:1536   */\n      dup3\n        /* \"#utility.yul\":1508:1537   */\n      tag_121\n      jump\t// in\n    tag_184:\n        /* \"#utility.yul\":1500:1537   */\n      swap1\n      pop\n        /* \"#utility.yul\":1592:1596   */\n      0x20\n        /* \"#utility.yul\":1586:1590   */\n      dup2\n        /* \"#utility.yul\":1582:1597   */\n      add\n        /* \"#utility.yul\":1574:1597   */\n      swap1\n      pop\n        /* \"#utility.yul\":1296:1604   */\n      swap2\n      swap1\n      pop\n      jump\t// out\n        /* \"#utility.yul\":1610:1756   */\n    tag_126:\n        /* \"#utility.yul\":1707:1713   */\n      dup3\n        /* \"#utility.yul\":1702:1705   */\n      dup2\n        /* \"#utility.yul\":1697:1700   */\n      dup4\n        /* \"#utility.yul\":1684:1714   */\n      calldatacopy\n        /* \"#utility.yul\":1748:1749   */\n      0x00\n        /* \"#utility.yul\":1739:1745   */\n      dup4\n        /* \"#utility.yul\":1734:1737   */\n      dup4\n        /* \"#utility.yul\":1730:1746   */\n      add\n        /* \"#utility.yul\":1723:1750   */\n      mstore\n        /* \"#utility.yul\":1610:1756   */\n      pop\n      pop\n      pop\n      jump\t// out\n        /* \"#utility.yul\":1762:2187   */\n    tag_127:\n        /* \"#utility.yul\":1840:1845   */\n      0x00\n        /* \"#utility.yul\":1865:1931   */\n      tag_187\n        /* \"#utility.yul\":1881:1930   */\n      tag_188\n        /* \"#utility.yul\":1923:1929   */\n      dup5\n        /* \"#utility.yul\":1881:1930   */\n      tag_125\n      jump\t// in\n    tag_188:\n        /* \"#utility.yul\":1865:1931   */\n      tag_124\n      jump\t// in\n    tag_187:\n        /* \"#utility.yul\":1856:1931   */\n      swap1\n      pop\n        /* \"#utility.yul\":1954:1960   */\n      dup3\n        /* \"#utility.yul\":1947:1952   */\n      dup2\n        /* \"#utility.yul\":1940:1961   */\n      mstore\n        /* \"#utility.yul\":1992:1996   */\n      0x20\n        /* \"#utility.yul\":1985:1990   */\n      dup2\n        /* \"#utility.yul\":1981:1997   */\n      add\n        /* \"#utility.yul\":2030:2033   */\n      dup5\n        /* \"#utility.yul\":2021:2027   */\n      dup5\n        /* \"#utility.yul\":2016:2019   */\n      dup5\n        /* \"#utility.yul\":2012:2028   */\n      add\n        /* \"#utility.yul\":2009:2034   */\n      gt\n        /* \"#utility.yul\":2006:2118   */\n      iszero\n      tag_189\n      jumpi\n        /* \"#utility.yul\":2037:2116   */\n      tag_190\n      tag_120\n      jump\t// in\n    tag_190:\n        /* \"#utility.yul\":2006:2118   */\n    tag_189:\n        /* \"#utility.yul\":2127:2181   */\n      tag_191\n        /* \"#utility.yul\":2174:2180   */\n      dup5\n        /* \"#utility.yul\":2169:2172   */\n      dup3\n        /* \"#utility.yul\":2164:2167   */\n      dup6\n        /* \"#utility.yul\":2127:2181   */\n      tag_126\n      jump\t// in\n    tag_191:\n        /* \"#utility.yul\":1846:2187   */\n      pop\n        /* \"#utility.yul\":1762:2187   */\n      swap4\n      swap3\n      pop\n      pop\n      pop\n      jump\t// out\n        /* \"#utility.yul\":2207:2547   */\n    tag_128:\n        /* \"#utility.yul\":2263:2268   */\n      0x00\n        /* \"#utility.yul\":2312:2315   */\n      dup3\n        /* \"#utility.yul\":2305:2309   */\n      0x1f\n        /* \"#utility.yul\":2297:2303   */\n      dup4\n        /* \"#utility.yul\":2293:2310   */\n      add\n        /* \"#utility.yul\":2289:2316   */\n      slt\n        /* \"#utility.yul\":2279:2401   */\n      tag_193\n      jumpi\n        /* \"#utility.yul\":2320:2399   */\n      tag_194\n      tag_119\n      jump\t// in\n    tag_194:\n        /* \"#utility.yul\":2279:2401   */\n    tag_193:\n        /* \"#utility.yul\":2437:2443   */\n      dup2\n        /* \"#utility.yul\":2424:2444   */\n      calldataload\n        /* \"#utility.yul\":2462:2541   */\n      tag_195\n        /* \"#utility.yul\":2537:2540   */\n      dup5\n        /* \"#utility.yul\":2529:2535   */\n      dup3\n        /* \"#utility.yul\":2522:2526   */\n      0x20\n        /* \"#utility.yul\":2514:2520   */\n      dup7\n        /* \"#utility.yul\":2510:2527   */\n      add\n        /* \"#utility.yul\":2462:2541   */\n      tag_127\n      jump\t// in\n    tag_195:\n        /* \"#utility.yul\":2453:2541   */\n      swap2\n      pop\n        /* \"#utility.yul\":2269:2547   */\n      pop\n        /* \"#utility.yul\":2207:2547   */\n      swap3\n      swap2\n      pop\n      pop\n      jump\t// out\n        /* \"#utility.yul\":2553:3387   */\n    tag_13:\n        /* \"#utility.yul\":2641:2647   */\n      0x00\n        /* \"#utility.yul\":2649:2655   */\n      dup1\n        /* \"#utility.yul\":2698:2700   */\n      0x40\n        /* \"#utility.yul\":2686:2695   */\n      dup4\n        /* \"#utility.yul\":2677:2684   */\n      dup6\n        /* \"#utility.yul\":2673:2696   */\n      sub\n        /* \"#utility.yul\":2669:2701   */\n      slt\n        /* \"#utility.yul\":2666:2785   */\n      iszero\n      tag_197\n      jumpi\n        /* \"#utility.yul\":2704:2783   */\n      tag_198\n      tag_117\n      jump\t// in\n    tag_198:\n        /* \"#utility.yul\":2666:2785   */\n    tag_197:\n        /* \"#utility.yul\":2852:2853   */\n      0x00\n        /* \"#utility.yul\":2841:2850   */\n      dup4\n        /* \"#utility.yul\":2837:2854   */\n      add\n        /* \"#utility.yul\":2824:2855   */\n      calldataload\n        /* \"#utility.yul\":2882:2900   */\n      0xffffffffffffffff\n        /* \"#utility.yul\":2874:2880   */\n      dup2\n        /* \"#utility.yul\":2871:2901   */\n      gt\n        /* \"#utility.yul\":2868:2985   */\n      iszero\n      tag_199\n      jumpi\n        /* \"#utility.yul\":2904:2983   */\n      tag_200\n      tag_118\n      jump\t// in\n    tag_200:\n        /* \"#utility.yul\":2868:2985   */\n    tag_199:\n        /* \"#utility.yul\":3009:3072   */\n      tag_201\n        /* \"#utility.yul\":3064:3071   */\n      dup6\n        /* \"#utility.yul\":3055:3061   */\n      dup3\n        /* \"#utility.yul\":3044:3053   */\n      dup7\n        /* \"#utility.yul\":3040:3062   */\n      add\n        /* \"#utility.yul\":3009:3072   */\n      tag_128\n      jump\t// in\n    tag_201:\n        /* \"#utility.yul\":2999:3072   */\n      swap3\n      pop\n        /* \"#utility.yul\":2795:3082   */\n      pop\n        /* \"#utility.yul\":3149:3151   */\n      0x20\n        /* \"#utility.yul\":3138:3147   */\n      dup4\n        /* \"#utility.yul\":3134:3152   */\n      add\n        /* \"#utility.yul\":3121:3153   */\n      calldataload\n        /* \"#utility.yul\":3180:3198   */\n      0xffffffffffffffff\n        /* \"#utility.yul\":3172:3178   */\n      dup2\n        /* \"#utility.yul\":3169:3199   */\n      gt\n        /* \"#utility.yul\":3166:3283   */\n      iszero\n      tag_202\n      jumpi\n        /* \"#utility.yul\":3202:3281   */\n      tag_203\n      tag_118\n      jump\t// in\n    tag_203:\n        /* \"#utility.yul\":3166:3283   */\n    tag_202:\n        /* \"#utility.yul\":3307:3370   */\n      tag_204\n        /* \"#utility.yul\":3362:3369   */\n      dup6\n        /* \"#utility.yul\":3353:3359   */\n      dup3\n        /* \"#utility.yul\":3342:3351   */\n      dup7\n        /* \"#utility.yul\":3338:3360   */\n      add\n        /* \"#utility.yul\":3307:3370   */\n      tag_128\n      jump\t// in\n    tag_204:\n        /* \"#utility.yul\":3297:3370   */\n      swap2\n      pop\n        /* \"#utility.yul\":3092:3380   */\n      pop\n        /* \"#utility.yul\":2553:3387   */\n      swap3\n      pop\n      swap3\n      swap1\n      pop\n      jump\t// out\n        /* \"#utility.yul\":3393:3470   */\n    tag_129:\n        /* \"#utility.yul\":3430:3437   */\n      0x00\n        /* \"#utility.yul\":3459:3464   */\n      dup2\n        /* \"#utility.yul\":3448:3464   */\n      swap1\n      pop\n        /* \"#utility.yul\":3393:3470   */\n      swap2\n      swap1\n      pop\n      jump\t// out\n        /* \"#utility.yul\":3476:3598   */\n    tag_130:\n        /* \"#utility.yul\":3549:3573   */\n      tag_207\n        /* \"#utility.yul\":3567:3572   */\n      dup2\n        /* \"#utility.yul\":3549:3573   */\n      tag_129\n      jump\t// in\n    tag_207:\n        /* \"#utility.yul\":3542:3547   */\n      dup2\n        /* \"#utility.yul\":3539:3574   */\n      eq\n        /* \"#utility.yul\":3529:3592   */\n      tag_208\n      jumpi\n        /* \"#utility.yul\":3588:3589   */\n      0x00\n        /* \"#utility.yul\":3585:3586   */\n      dup1\n        /* \"#utility.yul\":3578:3590   */\n      revert\n        /* \"#utility.yul\":3529:3592   */\n    tag_208:\n        /* \"#utility.yul\":3476:3598   */\n      pop\n      jump\t// out\n        /* \"#utility.yul\":3604:3743   */\n    tag_131:\n        /* \"#utility.yul\":3650:3655   */\n      0x00\n        /* \"#utility.yul\":3688:3694   */\n      dup2\n        /* \"#utility.yul\":3675:3695   */\n      calldataload\n        /* \"#utility.yul\":3666:3695   */\n      swap1\n      pop\n        /* \"#utility.yul\":3704:3737   */\n      tag_210\n        /* \"#utility.yul\":3731:3736   */\n      dup2\n        /* \"#utility.yul\":3704:3737   */\n      tag_130\n      jump\t// in\n    tag_210:\n        /* \"#utility.yul\":3604:3743   */\n      swap3\n      swap2\n      pop\n      pop\n      jump\t// out\n        /* \"#utility.yul\":3749:4078   */\n    tag_17:\n        /* \"#utility.yul\":3808:3814   */\n      0x00\n        /* \"#utility.yul\":3857:3859   */\n      0x20\n        /* \"#utility.yul\":3845:3854   */\n      dup3\n        /* \"#utility.yul\":3836:3843   */\n      dup5\n        /* \"#utility.yul\":3832:3855   */\n      sub\n        /* \"#utility.yul\":3828:3860   */\n      slt\n        /* \"#utility.yul\":3825:3944   */\n      iszero\n      tag_212\n      jumpi\n        /* \"#utility.yul\":3863:3942   */\n      tag_213\n      tag_117\n      jump\t// in\n    tag_213:\n        /* \"#utility.yul\":3825:3944   */\n    tag_212:\n        /* \"#utility.yul\":3983:3984   */\n      0x00\n        /* \"#utility.yul\":4008:4061   */\n      tag_214\n        /* \"#utility.yul\":4053:4060   */\n      dup5\n        /* \"#utility.yul\":4044:4050   */\n      dup3\n        /* \"#utility.yul\":4033:4042   */\n      dup6\n        /* \"#utility.yul\":4029:4051   */\n      add\n        /* \"#utility.yul\":4008:4061   */\n      tag_131\n      jump\t// in\n    tag_214:\n        /* \"#utility.yul\":3998:4061   */\n      swap2\n      pop\n        /* \"#utility.yul\":3954:4071   */\n      pop\n        /* \"#utility.yul\":3749:4078   */\n      swap3\n      swap2\n      pop\n      pop\n      jump\t// out\n        /* \"#utility.yul\":4084:4210   */\n    tag_132:\n        /* \"#utility.yul\":4121:4128   */\n      0x00\n        /* \"#utility.yul\":4161:4203   */\n      0xffffffffffffffffffffffffffffffffffffffff\n        /* \"#utility.yul\":4154:4159   */\n      dup3\n        /* \"#utility.yul\":4150:4204   */\n      and\n        /* \"#utility.yul\":4139:4204   */\n      swap1\n      pop\n        /* \"#utility.yul\":4084:4210   */\n      swap2\n      swap1\n      pop\n      jump\t// out\n        /* \"#utility.yul\":4216:4312   */\n    tag_133:\n        /* \"#utility.yul\":4253:4260   */\n      0x00\n        /* \"#utility.yul\":4282:4306   */\n      tag_217\n        /* \"#utility.yul\":4300:4305   */\n      dup3\n        /* \"#utility.yul\":4282:4306   */\n      tag_132\n      jump\t// in\n    tag_217:\n        /* \"#utility.yul\":4271:4306   */\n      swap1\n      pop\n        /* \"#utility.yul\":4216:4312   */\n      swap2\n      swap1\n      pop\n      jump\t// out\n        /* \"#utility.yul\":4318:4436   */\n    tag_134:\n        /* \"#utility.yul\":4405:4429   */\n      tag_219\n        /* \"#utility.yul\":4423:4428   */\n      dup2\n        /* \"#utility.yul\":4405:4429   */\n      tag_133\n      jump\t// in\n    tag_219:\n        /* \"#utility.yul\":4400:4403   */\n      dup3\n        /* \"#utility.yul\":4393:4430   */\n      mstore\n        /* \"#utility.yul\":4318:4436   */\n      pop\n      pop\n      jump\t// out\n        /* \"#utility.yul\":4442:4664   */\n    tag_20:\n        /* \"#utility.yul\":4535:4539   */\n      0x00\n        /* \"#utility.yul\":4573:4575   */\n      0x20\n        /* \"#utility.yul\":4562:4571   */\n      dup3\n        /* \"#utility.yul\":4558:4576   */\n      add\n        /* \"#utility.yul\":4550:4576   */\n      swap1\n      pop\n        /* \"#utility.yul\":4586:4657   */\n      tag_221\n        /* \"#utility.yul\":4654:4655   */\n      0x00\n        /* \"#utility.yul\":4643:4652   */\n      dup4\n        /* \"#utility.yul\":4639:4656   */\n      add\n        /* \"#utility.yul\":4630:4636   */\n      dup5\n        /* \"#utility.yul\":4586:4657   */\n      tag_134\n      jump\t// in\n    tag_221:\n        /* \"#utility.yul\":4442:4664   */\n      swap3\n      swap2\n      pop\n      pop\n      jump\t// out\n        /* \"#utility.yul\":4670:5324   */\n    tag_26:\n        /* \"#utility.yul\":4748:4754   */\n      0x00\n        /* \"#utility.yul\":4756:4762   */\n      dup1\n        /* \"#utility.yul\":4805:4807   */\n      0x40\n        /* \"#utility.yul\":4793:4802   */\n      dup4\n        /* \"#utility.yul\":4784:4791   */\n      dup6\n        /* \"#utility.yul\":4780:4803   */\n      sub\n        /* \"#utility.yul\":4776:4808   */\n      slt\n        /* \"#utility.yul\":4773:4892   */\n      iszero\n      tag_223\n      jumpi\n        /* \"#utility.yul\":4811:4890   */\n      tag_224\n      tag_117\n      jump\t// in\n    tag_224:\n        /* \"#utility.yul\":4773:4892   */\n    tag_223:\n        /* \"#utility.yul\":4931:4932   */\n      0x00\n        /* \"#utility.yul\":4956:5009   */\n      tag_225\n        /* \"#utility.yul\":5001:5008   */\n      dup6\n        /* \"#utility.yul\":4992:4998   */\n      dup3\n        /* \"#utility.yul\":4981:4990   */\n      dup7\n        /* \"#utility.yul\":4977:4999   */\n      add\n        /* \"#utility.yul\":4956:5009   */\n      tag_131\n      jump\t// in\n    tag_225:\n        /* \"#utility.yul\":4946:5009   */\n      swap3\n      pop\n        /* \"#utility.yul\":4902:5019   */\n      pop\n        /* \"#utility.yul\":5086:5088   */\n      0x20\n        /* \"#utility.yul\":5075:5084   */\n      dup4\n        /* \"#utility.yul\":5071:5089   */\n      add\n        /* \"#utility.yul\":5058:5090   */\n      calldataload\n        /* \"#utility.yul\":5117:5135   */\n      0xffffffffffffffff\n        /* \"#utility.yul\":5109:5115   */\n      dup2\n        /* \"#utility.yul\":5106:5136   */\n      gt\n        /* \"#utility.yul\":5103:5220   */\n      iszero\n      tag_226\n      jumpi\n        /* \"#utility.yul\":5139:5218   */\n      tag_227\n      tag_118\n      jump\t// in\n    tag_227:\n        /* \"#utility.yul\":5103:5220   */\n    tag_226:\n        /* \"#utility.yul\":5244:5307   */\n      tag_228\n        /* \"#utility.yul\":5299:5306   */\n      dup6\n        /* \"#utility.yul\":5290:5296   */\n      dup3\n        /* \"#utility.yul\":5279:5288   */\n      dup7\n        /* \"#utility.yul\":5275:5297   */\n      add\n        /* \"#utility.yul\":5244:5307   */\n      tag_128\n      jump\t// in\n    tag_228:\n        /* \"#utility.yul\":5234:5307   */\n      swap2\n      pop\n        /* \"#utility.yul\":5029:5317   */\n      pop\n        /* \"#utility.yul\":4670:5324   */\n      swap3\n      pop\n      swap3\n      swap1\n      pop\n      jump\t// out\n        /* \"#utility.yul\":5330:5429   */\n    tag_135:\n        /* \"#utility.yul\":5382:5388   */\n      0x00\n        /* \"#utility.yul\":5416:5421   */\n      dup2\n        /* \"#utility.yul\":5410:5422   */\n      mload\n        /* \"#utility.yul\":5400:5422   */\n      swap1\n      pop\n        /* \"#utility.yul\":5330:5429   */\n      swap2\n      swap1\n      pop\n      jump\t// out\n        /* \"#utility.yul\":5435:5604   */\n    tag_136:\n        /* \"#utility.yul\":5519:5530   */\n      0x00\n        /* \"#utility.yul\":5553:5559   */\n      dup3\n        /* \"#utility.yul\":5548:5551   */\n      dup3\n        /* \"#utility.yul\":5541:5560   */\n      mstore\n        /* \"#utility.yul\":5593:5597   */\n      0x20\n        /* \"#utility.yul\":5588:5591   */\n      dup3\n        /* \"#utility.yul\":5584:5598   */\n      add\n        /* \"#utility.yul\":5569:5598   */\n      swap1\n      pop\n        /* \"#utility.yul\":5435:5604   */\n      swap3\n      swap2\n      pop\n      pop\n      jump\t// out\n        /* \"#utility.yul\":5610:5856   */\n    tag_137:\n        /* \"#utility.yul\":5691:5692   */\n      0x00\n        /* \"#utility.yul\":5701:5814   */\n    tag_232:\n        /* \"#utility.yul\":5715:5721   */\n      dup4\n        /* \"#utility.yul\":5712:5713   */\n      dup2\n        /* \"#utility.yul\":5709:5722   */\n      lt\n        /* \"#utility.yul\":5701:5814   */\n      iszero\n      tag_234\n      jumpi\n        /* \"#utility.yul\":5800:5801   */\n      dup1\n        /* \"#utility.yul\":5795:5798   */\n      dup3\n        /* \"#utility.yul\":5791:5802   */\n      add\n        /* \"#utility.yul\":5785:5803   */\n      mload\n        /* \"#utility.yul\":5781:5782   */\n      dup2\n        /* \"#utility.yul\":5776:5779   */\n      dup5\n        /* \"#utility.yul\":5772:5783   */\n      add\n        /* \"#utility.yul\":5765:5804   */\n      mstore\n        /* \"#utility.yul\":5737:5739   */\n      0x20\n        /* \"#utility.yul\":5734:5735   */\n      dup2\n        /* \"#utility.yul\":5730:5740   */\n      add\n        /* \"#utility.yul\":5725:5740   */\n      swap1\n      pop\n        /* \"#utility.yul\":5701:5814   */\n      jump(tag_232)\n    tag_234:\n        /* \"#utility.yul\":5848:5849   */\n      0x00\n        /* \"#utility.yul\":5839:5845   */\n      dup5\n        /* \"#utility.yul\":5834:5837   */\n      dup5\n        /* \"#utility.yul\":5830:5846   */\n      add\n        /* \"#utility.yul\":5823:5850   */\n      mstore\n        /* \"#utility.yul\":5672:5856   */\n      pop\n        /* \"#utility.yul\":5610:5856   */\n      pop\n      pop\n      pop\n      jump\t// out\n        /* \"#utility.yul\":5862:6239   */\n    tag_138:\n        /* \"#utility.yul\":5950:5953   */\n      0x00\n        /* \"#utility.yul\":5978:6017   */\n      tag_236\n        /* \"#utility.yul\":6011:6016   */\n      dup3\n        /* \"#utility.yul\":5978:6017   */\n      tag_135\n      jump\t// in\n    tag_236:\n        /* \"#utility.yul\":6033:6104   */\n      tag_237\n        /* \"#utility.yul\":6097:6103   */\n      dup2\n        /* \"#utility.yul\":6092:6095   */\n      dup6\n        /* \"#utility.yul\":6033:6104   */\n      tag_136\n      jump\t// in\n    tag_237:\n        /* \"#utility.yul\":6026:6104   */\n      swap4\n      pop\n        /* \"#utility.yul\":6113:6178   */\n      tag_238\n        /* \"#utility.yul\":6171:6177   */\n      dup2\n        /* \"#utility.yul\":6166:6169   */\n      dup6\n        /* \"#utility.yul\":6159:6163   */\n      0x20\n        /* \"#utility.yul\":6152:6157   */\n      dup7\n        /* \"#utility.yul\":6148:6164   */\n      add\n        /* \"#utility.yul\":6113:6178   */\n      tag_137\n      jump\t// in\n    tag_238:\n        /* \"#utility.yul\":6203:6232   */\n      tag_239\n        /* \"#utility.yul\":6225:6231   */\n      dup2\n        /* \"#utility.yul\":6203:6232   */\n      tag_121\n      jump\t// in\n    tag_239:\n        /* \"#utility.yul\":6198:6201   */\n      dup5\n        /* \"#utility.yul\":6194:6233   */\n      add\n        /* \"#utility.yul\":6187:6233   */\n      swap2\n      pop\n        /* \"#utility.yul\":5954:6239   */\n      pop\n        /* \"#utility.yul\":5862:6239   */\n      swap3\n      swap2\n      pop\n      pop\n      jump\t// out\n        /* \"#utility.yul\":6245:6363   */\n    tag_139:\n        /* \"#utility.yul\":6332:6356   */\n      tag_241\n        /* \"#utility.yul\":6350:6355   */\n      dup2\n        /* \"#utility.yul\":6332:6356   */\n      tag_129\n      jump\t// in\n    tag_241:\n        /* \"#utility.yul\":6327:6330   */\n      dup3\n        /* \"#utility.yul\":6320:6357   */\n      mstore\n        /* \"#utility.yul\":6245:6363   */\n      pop\n      pop\n      jump\t// out\n        /* \"#utility.yul\":6369:7104   */\n    tag_32:\n        /* \"#utility.yul\":6586:6590   */\n      0x00\n        /* \"#utility.yul\":6624:6627   */\n      0x80\n        /* \"#utility.yul\":6613:6622   */\n      dup3\n        /* \"#utility.yul\":6609:6628   */\n      add\n        /* \"#utility.yul\":6601:6628   */\n      swap1\n      pop\n        /* \"#utility.yul\":6674:6683   */\n      dup2\n        /* \"#utility.yul\":6668:6672   */\n      dup2\n        /* \"#utility.yul\":6664:6684   */\n      sub\n        /* \"#utility.yul\":6660:6661   */\n      0x00\n        /* \"#utility.yul\":6649:6658   */\n      dup4\n        /* \"#utility.yul\":6645:6662   */\n      add\n        /* \"#utility.yul\":6638:6685   */\n      mstore\n        /* \"#utility.yul\":6702:6780   */\n      tag_243\n        /* \"#utility.yul\":6775:6779   */\n      dup2\n        /* \"#utility.yul\":6766:6772   */\n      dup8\n        /* \"#utility.yul\":6702:6780   */\n      tag_138\n      jump\t// in\n    tag_243:\n        /* \"#utility.yul\":6694:6780   */\n      swap1\n      pop\n        /* \"#utility.yul\":6827:6836   */\n      dup2\n        /* \"#utility.yul\":6821:6825   */\n      dup2\n        /* \"#utility.yul\":6817:6837   */\n      sub\n        /* \"#utility.yul\":6812:6814   */\n      0x20\n        /* \"#utility.yul\":6801:6810   */\n      dup4\n        /* \"#utility.yul\":6797:6815   */\n      add\n        /* \"#utility.yul\":6790:6838   */\n      mstore\n        /* \"#utility.yul\":6855:6933   */\n      tag_244\n        /* \"#utility.yul\":6928:6932   */\n      dup2\n        /* \"#utility.yul\":6919:6925   */\n      dup7\n        /* \"#utility.yul\":6855:6933   */\n      tag_138\n      jump\t// in\n    tag_244:\n        /* \"#utility.yul\":6847:6933   */\n      swap1\n      pop\n        /* \"#utility.yul\":6943:7015   */\n      tag_245\n        /* \"#utility.yul\":7011:7013   */\n      0x40\n        /* \"#utility.yul\":7000:7009   */\n      dup4\n        /* \"#utility.yul\":6996:7014   */\n      add\n        /* \"#utility.yul\":6987:6993   */\n      dup6\n        /* \"#utility.yul\":6943:7015   */\n      tag_139\n      jump\t// in\n    tag_245:\n        /* \"#utility.yul\":7025:7097   */\n      tag_246\n        /* \"#utility.yul\":7093:7095   */\n      0x60\n        /* \"#utility.yul\":7082:7091   */\n      dup4\n        /* \"#utility.yul\":7078:7096   */\n      add\n        /* \"#utility.yul\":7069:7075   */\n      dup5\n        /* \"#utility.yul\":7025:7097   */\n      tag_134\n      jump\t// in\n    tag_246:\n        /* \"#utility.yul\":6369:7104   */\n      swap6\n      swap5\n      pop\n      pop\n      pop\n      pop\n      pop\n      jump\t// out\n        /* \"#utility.yul\":7110:7332   */\n    tag_36:\n        /* \"#utility.yul\":7203:7207   */\n      0x00\n        /* \"#utility.yul\":7241:7243   */\n      0x20\n        /* \"#utility.yul\":7230:7239   */\n      dup3\n        /* \"#utility.yul\":7226:7244   */\n      add\n        /* \"#utility.yul\":7218:7244   */\n      swap1\n      pop\n        /* \"#utility.yul\":7254:7325   */\n      tag_248\n        /* \"#utility.yul\":7322:7323   */\n      0x00\n        /* \"#utility.yul\":7311:7320   */\n      dup4\n        /* \"#utility.yul\":7307:7324   */\n      add\n        /* \"#utility.yul\":7298:7304   */\n      dup5\n        /* \"#utility.yul\":7254:7325   */\n      tag_139\n      jump\t// in\n    tag_248:\n        /* \"#utility.yul\":7110:7332   */\n      swap3\n      swap2\n      pop\n      pop\n      jump\t// out\n        /* \"#utility.yul\":7338:7509   */\n    tag_140:\n        /* \"#utility.yul\":7478:7501   */\n      0x5469746c652063616e6e6f7420626520656d7074790000000000000000000000\n        /* \"#utility.yul\":7474:7475   */\n      0x00\n        /* \"#utility.yul\":7466:7472   */\n      dup3\n        /* \"#utility.yul\":7462:7476   */\n      add\n        /* \"#utility.yul\":7455:7502   */\n      mstore\n        /* \"#utility.yul\":7338:7509   */\n      pop\n      jump\t// out\n        /* \"#utility.yul\":7515:7881   */\n    tag_141:\n        /* \"#utility.yul\":7657:7660   */\n      0x00\n        /* \"#utility.yul\":7678:7745   */\n      tag_251\n        /* \"#utility.yul\":7742:7744   */\n      0x15\n        /* \"#utility.yul\":7737:7740   */\n      dup4\n        /* \"#utility.yul\":7678:7745   */\n      tag_136\n      jump\t// in\n    tag_251:\n        /* \"#utility.yul\":7671:7745   */\n      swap2\n      pop\n        /* \"#utility.yul\":7754:7847   */\n      tag_252\n        /* \"#utility.yul\":7843:7846   */\n      dup3\n        /* \"#utility.yul\":7754:7847   */\n      tag_140\n      jump\t// in\n    tag_252:\n        /* \"#utility.yul\":7872:7874   */\n      0x20\n        /* \"#utility.yul\":7867:7870   */\n      dup3\n        /* \"#utility.yul\":7863:7875   */\n      add\n        /* \"#utility.yul\":7856:7875   */\n      swap1\n      pop\n        /* \"#utility.yul\":7515:7881   */\n      swap2\n      swap1\n      pop\n      jump\t// out\n        /* \"#utility.yul\":7887:8306   */\n    tag_44:\n        /* \"#utility.yul\":8053:8057   */\n      0x00\n        /* \"#utility.yul\":8091:8093   */\n      0x20\n        /* \"#utility.yul\":8080:8089   */\n      dup3\n        /* \"#utility.yul\":8076:8094   */\n      add\n        /* \"#utility.yul\":8068:8094   */\n      swap1\n      pop\n        /* \"#utility.yul\":8140:8149   */\n      dup2\n        /* \"#utility.yul\":8134:8138   */\n      dup2\n        /* \"#utility.yul\":8130:8150   */\n      sub\n        /* \"#utility.yul\":8126:8127   */\n      0x00\n        /* \"#utility.yul\":8115:8124   */\n      dup4\n        /* \"#utility.yul\":8111:8128   */\n      add\n        /* \"#utility.yul\":8104:8151   */\n      mstore\n        /* \"#utility.yul\":8168:8299   */\n      tag_254\n        /* \"#utility.yul\":8294:8298   */\n      dup2\n        /* \"#utility.yul\":8168:8299   */\n      tag_141\n      jump\t// in\n    tag_254:\n        /* \"#utility.yul\":8160:8299   */\n      swap1\n      pop\n        /* \"#utility.yul\":7887:8306   */\n      swap2\n      swap1\n      pop\n      jump\t// out\n        /* \"#utility.yul\":8312:8485   */\n    tag_142:\n        /* \"#utility.yul\":8452:8477   */\n      0x436f6e74656e742063616e6e6f7420626520656d707479000000000000000000\n        /* \"#utility.yul\":8448:8449   */\n      0x00\n        /* \"#utility.yul\":8440:8446   */\n      dup3\n        /* \"#utility.yul\":8436:8450   */\n      add\n        /* \"#utility.yul\":8429:8478   */\n      mstore\n        /* \"#utility.yul\":8312:8485   */\n      pop\n      jump\t// out\n        /* \"#utility.yul\":8491:8857   */\n    tag_143:\n        /* \"#utility.yul\":8633:8636   */\n      0x00\n        /* \"#utility.yul\":8654:8721   */\n      tag_257\n        /* \"#utility.yul\":8718:8720   */\n      0x17\n        /* \"#utility.yul\":8713:8716   */\n      dup4\n        /* \"#utility.yul\":8654:8721   */\n      tag_136\n      jump\t// in\n    tag_257:\n        /* \"#utility.yul\":8647:8721   */\n      swap2\n      pop\n        /* \"#utility.yul\":8730:8823   */\n      tag_258\n        /* \"#utility.yul\":8819:8822   */\n      dup3\n        /* \"#utility.yul\":8730:8823   */\n      tag_142\n      jump\t// in\n    tag_258:\n        /* \"#utility.yul\":8848:8850   */\n      0x20\n        /* \"#utility.yul\":8843:8846   */\n      dup3\n        /* \"#utility.yul\":8839:8851   */\n      add\n        /* \"#utility.yul\":8832:8851   */\n      swap1\n      pop\n        /* \"#utility.yul\":8491:8857   */\n      swap2\n      swap1\n      pop\n      jump\t// out\n        /* \"#utility.yul\":8863:9282   */\n    tag_47:\n        /* \"#utility.yul\":9029:9033   */\n      0x00\n        /* \"#utility.yul\":9067:9069   */\n      0x20\n        /* \"#utility.yul\":9056:9065   */\n      dup3\n        /* \"#utility.yul\":9052:9070   */\n      add\n        /* \"#utility.yul\":9044:9070   */\n      swap1\n      pop\n        /* \"#utility.yul\":9116:9125   */\n      dup2\n        /* \"#utility.yul\":9110:9114   */\n      dup2\n        /* \"#utility.yul\":9106:9126   */\n      sub\n        /* \"#utility.yul\":9102:9103   */\n      0x00\n        /* \"#utility.yul\":9091:9100   */\n      dup4\n        /* \"#utility.yul\":9087:9104   */\n      add\n        /* \"#utility.yul\":9080:9127   */\n      mstore\n        /* \"#utility.yul\":9144:9275   */\n      tag_260\n        /* \"#utility.yul\":9270:9274   */\n      dup2\n        /* \"#utility.yul\":9144:9275   */\n      tag_143\n      jump\t// in\n    tag_260:\n        /* \"#utility.yul\":9136:9275   */\n      swap1\n      pop\n        /* \"#utility.yul\":8863:9282   */\n      swap2\n      swap1\n      pop\n      jump\t// out\n        /* \"#utility.yul\":9288:9468   */\n    tag_144:\n        /* \"#utility.yul\":9336:9413   */\n      0x4e487b7100000000000000000000000000000000000000000000000000000000\n        /* \"#utility.yul\":9333:9334   */\n      0x00\n        /* \"#utility.yul\":9326:9414   */\n      mstore\n        /* \"#utility.yul\":9433:9437   */\n      0x22\n        /* \"#utility.yul\":9430:9431   */\n      0x04\n        /* \"#utility.yul\":9423:9438   */\n      mstore\n        /* \"#utility.yul\":9457:9461   */\n      0x24\n        /* \"#utility.yul\":9454:9455   */\n      0x00\n        /* \"#utility.yul\":9447:9462   */\n      revert\n        /* \"#utility.yul\":9474:9794   */\n    tag_86:\n        /* \"#utility.yul\":9518:9524   */\n      0x00\n        /* \"#utility.yul\":9555:9556   */\n      0x02\n        /* \"#utility.yul\":9549:9553   */\n      dup3\n        /* \"#utility.yul\":9545:9557   */\n      div\n        /* \"#utility.yul\":9535:9557   */\n      swap1\n      pop\n        /* \"#utility.yul\":9602:9603   */\n      0x01\n        /* \"#utility.yul\":9596:9600   */\n      dup3\n        /* \"#utility.yul\":9592:9604   */\n      and\n        /* \"#utility.yul\":9623:9641   */\n      dup1\n        /* \"#utility.yul\":9613:9694   */\n      tag_263\n      jumpi\n        /* \"#utility.yul\":9679:9683   */\n      0x7f\n        /* \"#utility.yul\":9671:9677   */\n      dup3\n        /* \"#utility.yul\":9667:9684   */\n      and\n        /* \"#utility.yul\":9657:9684   */\n      swap2\n      pop\n        /* \"#utility.yul\":9613:9694   */\n    tag_263:\n        /* \"#utility.yul\":9741:9743   */\n      0x20\n        /* \"#utility.yul\":9733:9739   */\n      dup3\n        /* \"#utility.yul\":9730:9744   */\n      lt\n        /* \"#utility.yul\":9710:9728   */\n      dup2\n        /* \"#utility.yul\":9707:9745   */\n      sub\n        /* \"#utility.yul\":9704:9788   */\n      tag_264\n      jumpi\n        /* \"#utility.yul\":9760:9778   */\n      tag_265\n      tag_144\n      jump\t// in\n    tag_265:\n        /* \"#utility.yul\":9704:9788   */\n    tag_264:\n        /* \"#utility.yul\":9525:9794   */\n      pop\n        /* \"#utility.yul\":9474:9794   */\n      swap2\n      swap1\n      pop\n      jump\t// out\n        /* \"#utility.yul\":9800:9941   */\n    tag_145:\n        /* \"#utility.yul\":9849:9853   */\n      0x00\n        /* \"#utility.yul\":9872:9875   */\n      dup2\n        /* \"#utility.yul\":9864:9875   */\n      swap1\n      pop\n        /* \"#utility.yul\":9895:9898   */\n      dup2\n        /* \"#utility.yul\":9892:9893   */\n      0x00\n        /* \"#utility.yul\":9885:9899   */\n      mstore\n        /* \"#utility.yul\":9929:9933   */\n      0x20\n        /* \"#utility.yul\":9926:9927   */\n      0x00\n        /* \"#utility.yul\":9916:9934   */\n      keccak256\n        /* \"#utility.yul\":9908:9934   */\n      swap1\n      pop\n        /* \"#utility.yul\":9800:9941   */\n      swap2\n      swap1\n      pop\n      jump\t// out\n        /* \"#utility.yul\":9947:10040   */\n    tag_146:\n        /* \"#utility.yul\":9984:9990   */\n      0x00\n        /* \"#utility.yul\":10031:10033   */\n      0x20\n        /* \"#utility.yul\":10026:10028   */\n      0x1f\n        /* \"#utility.yul\":10019:10024   */\n      dup4\n        /* \"#utility.yul\":10015:10029   */\n      add\n        /* \"#utility.yul\":10011:10034   */\n      div\n        /* \"#utility.yul\":10001:10034   */\n      swap1\n      pop\n        /* \"#utility.yul\":9947:10040   */\n      swap2\n      swap1\n      pop\n      jump\t// out\n        /* \"#utility.yul\":10046:10153   */\n    tag_147:\n        /* \"#utility.yul\":10090:10098   */\n      0x00\n        /* \"#utility.yul\":10140:10145   */\n      dup3\n        /* \"#utility.yul\":10134:10138   */\n      dup3\n        /* \"#utility.yul\":10130:10146   */\n      shl\n        /* \"#utility.yul\":10109:10146   */\n      swap1\n      pop\n        /* \"#utility.yul\":10046:10153   */\n      swap3\n      swap2\n      pop\n      pop\n      jump\t// out\n        /* \"#utility.yul\":10159:10552   */\n    tag_148:\n        /* \"#utility.yul\":10228:10234   */\n      0x00\n        /* \"#utility.yul\":10278:10279   */\n      0x08\n        /* \"#utility.yul\":10266:10276   */\n      dup4\n        /* \"#utility.yul\":10262:10280   */\n      mul\n        /* \"#utility.yul\":10301:10398   */\n      tag_270\n        /* \"#utility.yul\":10331:10397   */\n      0xffffffffffffffffffffffffffffffffffffffffffffffffffffffffffffffff\n        /* \"#utility.yul\":10320:10329   */\n      dup3\n        /* \"#utility.yul\":10301:10398   */\n      tag_147\n      jump\t// in\n    tag_270:\n        /* \"#utility.yul\":10419:10458   */\n      tag_271\n        /* \"#utility.yul\":10449:10457   */\n      dup7\n        /* \"#utility.yul\":10438:10447   */\n      dup4\n        /* \"#utility.yul\":10419:10458   */\n      tag_147\n      jump\t// in\n    tag_271:\n        /* \"#utility.yul\":10407:10458   */\n      swap6\n      pop\n        /* \"#utility.yul\":10491:10495   */\n      dup1\n        /* \"#utility.yul\":10487:10496   */\n      not\n        /* \"#utility.yul\":10480:10485   */\n      dup5\n        /* \"#utility.yul\":10476:10497   */\n      and\n        /* \"#utility.yul\":10467:10497   */\n      swap4\n      pop\n        /* \"#utility.yul\":10540:10544   */\n      dup1\n        /* \"#utility.yul\":10530:10538   */\n      dup7\n        /* \"#utility.yul\":10526:10545   */\n      and\n        /* \"#utility.yul\":10519:10524   */\n      dup5\n        /* \"#utility.yul\":10516:10546   */\n      or\n        /* \"#utility.yul\":10506:10546   */\n      swap3\n      pop\n        /* \"#utility.yul\":10235:10552   */\n      pop\n      pop\n        /* \"#utility.yul\":10159:10552   */\n      swap4\n      swap3\n      pop\n      pop\n      pop\n      jump\t// out\n        /* \"#utility.yul\":10558:10618   */\n    tag_149:\n        /* \"#utility.yul\":10586:10589   */\n      0x00\n        /* \"#utility.yul\":10607:10612   */\n      dup2\n        /* \"#utility.yul\":10600:10612   */\n      swap1\n      pop\n        /* \"#utility.yul\":10558:10618   */\n      swap2\n      swap1\n      pop\n      jump\t// out\n        /* \"#utility.yul\":10624:10766   */\n    tag_150:\n        /* \"#utility.yul\":10674:10683   */\n      0x00\n        /* \"#utility.yul\":10707:10760   */\n      tag_274\n        /* \"#utility.yul\":10725:10759   */\n      tag_275\n        /* \"#utility.yul\":10734:10758   */\n      tag_276\n        /* \"#utility.yul\":10752:10757   */\n      dup5\n        /* \"#utility.yul\":10734:10758   */\n      tag_129\n      jump\t// in\n    tag_276:\n        /* \"#utility.yul\":10725:10759   */\n      tag_149\n      jump\t// in\n    tag_275:\n        /* \"#utility.yul\":10707:10760   */\n      tag_129\n      jump\t// in\n    tag_274:\n        /* \"#utility.yul\":10694:10760   */\n      swap1\n      pop\n        /* \"#utility.yul\":10624:10766   */\n      swap2\n      swap1\n      pop\n      jump\t// out\n        /* \"#utility.yul\":10772:10847   */\n    tag_151:\n        /* \"#utility.yul\":10815:10818   */\n      0x00\n        /* \"#utility.yul\":10836:10841   */\n      dup2\n        /* \"#utility.yul\":10829:10841   */\n      swap1\n      pop\n        /* \"#utility.yul\":10772:10847   */\n      swap2\n      swap1\n      pop\n      jump\t// out\n        /* \"#utility.yul\":10853:11122   */\n    tag_152:\n        /* \"#utility.yul\":10963:11002   */\n      tag_279\n        /* \"#utility.yul\":10994:11001   */\n      dup4\n        /* \"#utility.yul\":10963:11002   */\n      tag_150\n      jump\t// in\n    tag_279:\n        /* \"#utility.yul\":11024:11115   */\n      tag_280\n        /* \"#utility.yul\":11073:11114   */\n      tag_281\n        /* \"#utility.yul\":11097:11113   */\n      dup3\n        /* \"#utility.yul\":11073:11114   */\n      tag_151\n      jump\t// in\n    tag_281:\n        /* \"#utility.yul\":11065:11071   */\n      dup5\n        /* \"#utility.yul\":11058:11062   */\n      dup5\n        /* \"#utility.yul\":11052:11063   */\n      sload\n        /* \"#utility.yul\":11024:11115   */\n      tag_148\n      jump\t// in\n    tag_280:\n        /* \"#utility.yul\":11018:11022   */\n      dup3\n        /* \"#utility.yul\":11011:11116   */\n      sstore\n        /* \"#utility.yul\":10929:11122   */\n      pop\n        /* \"#utility.yul\":10853:11122   */\n      pop\n      pop\n      pop\n      jump\t// out\n        /* \"#utility.yul\":11128:11201   */\n    tag_153:\n        /* \"#utility.yul\":11173:11176   */\n      0x00\n        /* \"#utility.yul\":11128:11201   */\n      swap1\n      jump\t// out\n        /* \"#utility.yul\":11207:11396   */\n    tag_154:\n        /* \"#utility.yul\":11284:11316   */\n      tag_284\n      tag_153\n      jump\t// in\n    tag_284:\n        /* \"#utility.yul\":11325:11390   */\n      tag_285\n        /* \"#utility.yul\":11383:11389   */\n      dup2\n        /* \"#utility.yul\":11375:11381   */\n      dup5\n        /* \"#utility.yul\":11369:11373   */\n      dup5\n        /* \"#utility.yul\":11325:11390   */\n      tag_152\n      jump\t// in\n    tag_285:\n        /* \"#utility.yul\":11260:11396   */\n      pop\n        /* \"#utility.yul\":11207:11396   */\n      pop\n      pop\n      jump\t// out\n        /* \"#utility.yul\":11402:11588   */\n    tag_155:\n        /* \"#utility.yul\":11462:11582   */\n    tag_287:\n        /* \"#utility.yul\":11479:11482   */\n      dup2\n        /* \"#utility.yul\":11472:11477   */\n      dup2\n        /* \"#utility.yul\":11469:11483   */\n      lt\n        /* \"#utility.yul\":11462:11582   */\n      iszero\n      tag_289\n      jumpi\n        /* \"#utility.yul\":11533:11572   */\n      tag_290\n        /* \"#utility.yul\":11570:11571   */\n      0x00\n        /* \"#utility.yul\":11563:11568   */\n      dup3\n        /* \"#utility.yul\":11533:11572   */\n      tag_154\n      jump\t// in\n    tag_290:\n        /* \"#utility.yul\":11506:11507   */\n      0x01\n        /* \"#utility.yul\":11499:11504   */\n      dup2\n        /* \"#utility.yul\":11495:11508   */\n      add\n        /* \"#utility.yul\":11486:11508   */\n      swap1\n      pop\n        /* \"#utility.yul\":11462:11582   */\n      jump(tag_287)\n    tag_289:\n        /* \"#utility.yul\":11402:11588   */\n      pop\n      pop\n      jump\t// out\n        /* \"#utility.yul\":11594:12137   */\n    tag_156:\n        /* \"#utility.yul\":11695:11697   */\n      0x1f\n        /* \"#utility.yul\":11690:11693   */\n      dup3\n        /* \"#utility.yul\":11687:11698   */\n      gt\n        /* \"#utility.yul\":11684:12130   */\n      iszero\n      tag_292\n      jumpi\n        /* \"#utility.yul\":11729:11767   */\n      tag_293\n        /* \"#utility.yul\":11761:11766   */\n      dup2\n        /* \"#utility.yul\":11729:11767   */\n      tag_145\n      jump\t// in\n    tag_293:\n        /* \"#utility.yul\":11813:11842   */\n      tag_294\n        /* \"#utility.yul\":11831:11841   */\n      dup5\n        /* \"#utility.yul\":11813:11842   */\n      tag_146\n      jump\t// in\n    tag_294:\n        /* \"#utility.yul\":11803:11811   */\n      dup2\n        /* \"#utility.yul\":11799:11843   */\n      add\n        /* \"#utility.yul\":11996:11998   */\n      0x20\n        /* \"#utility.yul\":11984:11994   */\n      dup6\n        /* \"#utility.yul\":11981:11999   */\n      lt\n        /* \"#utility.yul\":11978:12027   */\n      iszero\n      tag_295\n      jumpi\n        /* \"#utility.yul\":12017:12025   */\n      dup2\n        /* \"#utility.yul\":12002:12025   */\n      swap1\n      pop\n        /* \"#utility.yul\":11978:12027   */\n    tag_295:\n        /* \"#utility.yul\":12040:12120   */\n      tag_296\n        /* \"#utility.yul\":12096:12118   */\n      tag_297\n        /* \"#utility.yul\":12114:12117   */\n      dup6\n        /* \"#utility.yul\":12096:12118   */\n      tag_146\n      jump\t// in\n    tag_297:\n        /* \"#utility.yul\":12086:12094   */\n      dup4\n        /* \"#utility.yul\":12082:12119   */\n      add\n        /* \"#utility.yul\":12069:12080   */\n      dup3\n        /* \"#utility.yul\":12040:12120   */\n      tag_155\n      jump\t// in\n    tag_296:\n        /* \"#utility.yul\":11699:12130   */\n      pop\n      pop\n        /* \"#utility.yul\":11684:12130   */\n    tag_292:\n        /* \"#utility.yul\":11594:12137   */\n      pop\n      pop\n      pop\n      jump\t// out\n        /* \"#utility.yul\":12143:12260   */\n    tag_157:\n        /* \"#utility.yul\":12197:12205   */\n      0x00\n        /* \"#utility.yul\":12247:12252   */\n      dup3\n        /* \"#utility.yul\":12241:12245   */\n      dup3\n        /* \"#utility.yul\":12237:12253   */\n      shr\n        /* \"#utility.yul\":12216:12253   */\n      swap1\n      pop\n        /* \"#utility.yul\":12143:12260   */\n      swap3\n      swap2\n      pop\n      pop\n      jump\t// out\n        /* \"#utility.yul\":12266:12435   */\n    tag_158:\n        /* \"#utility.yul\":12310:12316   */\n      0x00\n        /* \"#utility.yul\":12343:12394   */\n      tag_300\n        /* \"#utility.yul\":12391:12392   */\n      0x00\n        /* \"#utility.yul\":12387:12393   */\n      not\n        /* \"#utility.yul\":12379:12384   */\n      dup5\n        /* \"#utility.yul\":12376:12377   */\n      0x08\n        /* \"#utility.yul\":12372:12385   */\n      mul\n        /* \"#utility.yul\":12343:12394   */\n      tag_157\n      jump\t// in\n    tag_300:\n        /* \"#utility.yul\":12339:12395   */\n      not\n        /* \"#utility.yul\":12424:12428   */\n      dup1\n        /* \"#utility.yul\":12418:12422   */\n      dup4\n        /* \"#utility.yul\":12414:12429   */\n      and\n        /* \"#utility.yul\":12404:12429   */\n      swap2\n      pop\n        /* \"#utility.yul\":12317:12435   */\n      pop\n        /* \"#utility.yul\":12266:12435   */\n      swap3\n      swap2\n      pop\n      pop\n      jump\t// out\n        /* \"#utility.yul\":12440:12735   */\n    tag_159:\n        /* \"#utility.yul\":12516:12520   */\n      0x00\n        /* \"#utility.yul\":12662:12691   */\n      tag_302\n        /* \"#utility.yul\":12687:12690   */\n      dup4\n        /* \"#utility.yul\":12681:12685   */\n      dup4\n        /* \"#utility.yul\":12662:12691   */\n      tag_158\n      jump\t// in\n    tag_302:\n        /* \"#utility.yul\":12654:12691   */\n      swap2\n      pop\n        /* \"#utility.yul\":12724:12727   */\n      dup3\n        /* \"#utility.yul\":12721:12722   */\n      0x02\n        /* \"#utility.yul\":12717:12728   */\n      mul\n        /* \"#utility.yul\":12711:12715   */\n      dup3\n        /* \"#utility.yul\":12708:12729   */\n      or\n        /* \"#utility.yul\":12700:12729   */\n      swap1\n      pop\n        /* \"#utility.yul\":12440:12735   */\n      swap3\n      swap2\n      pop\n      pop\n      jump\t// out\n        /* \"#utility.yul\":12740:14135   */\n    tag_50:\n        /* \"#utility.yul\":12857:12894   */\n      tag_304\n        /* \"#utility.yul\":12890:12893   */\n      dup3\n        /* \"#utility.yul\":12857:12894   */\n      tag_135\n      jump\t// in\n    tag_304:\n        /* \"#utility.yul\":12959:12977   */\n      0xffffffffffffffff\n        /* \"#utility.yul\":12951:12957   */\n      dup2\n        /* \"#utility.yul\":12948:12978   */\n      gt\n        /* \"#utility.yul\":12945:13001   */\n      iszero\n      tag_305\n      jumpi\n        /* \"#utility.yul\":12981:12999   */\n      tag_306\n      tag_122\n      jump\t// in\n    tag_306:\n        /* \"#utility.yul\":12945:13001   */\n    tag_305:\n        /* \"#utility.yul\":13025:13063   */\n      tag_307\n        /* \"#utility.yul\":13057:13061   */\n      dup3\n        /* \"#utility.yul\":13051:13062   */\n      sload\n        /* \"#utility.yul\":13025:13063   */\n      tag_86\n      jump\t// in\n    tag_307:\n        /* \"#utility.yul\":13110:13177   */\n      tag_308\n        /* \"#utility.yul\":13170:13176   */\n      dup3\n        /* \"#utility.yul\":13162:13168   */\n      dup3\n        /* \"#utility.yul\":13156:13160   */\n      dup6\n        /* \"#utility.yul\":13110:13177   */\n      tag_156\n      jump\t// in\n    tag_308:\n        /* \"#utility.yul\":13204:13205   */\n      0x00\n        /* \"#utility.yul\":13228:13232   */\n      0x20\n        /* \"#utility.yul\":13215:13232   */\n      swap1\n      pop\n        /* \"#utility.yul\":13260:13262   */\n      0x1f\n        /* \"#utility.yul\":13252:13258   */\n      dup4\n        /* \"#utility.yul\":13249:13263   */\n      gt\n        /* \"#utility.yul\":13277:13278   */\n      0x01\n        /* \"#utility.yul\":13272:13890   */\n      dup2\n      eq\n      tag_310\n      jumpi\n        /* \"#utility.yul\":13934:13935   */\n      0x00\n        /* \"#utility.yul\":13951:13957   */\n      dup5\n        /* \"#utility.yul\":13948:14025   */\n      iszero\n      tag_311\n      jumpi\n        /* \"#utility.yul\":14000:14009   */\n      dup3\n        /* \"#utility.yul\":13995:13998   */\n      dup8\n        /* \"#utility.yul\":13991:14010   */\n      add\n        /* \"#utility.yul\":13985:14011   */\n      mload\n        /* \"#utility.yul\":13976:14011   */\n      swap1\n      pop\n        /* \"#utility.yul\":13948:14025   */\n    tag_311:\n        /* \"#utility.yul\":14051:14118   */\n      tag_312\n        /* \"#utility.yul\":14111:14117   */\n      dup6\n        /* \"#utility.yul\":14104:14109   */\n      dup3\n        /* \"#utility.yul\":14051:14118   */\n      tag_159\n      jump\t// in\n    tag_312:\n        /* \"#utility.yul\":14045:14049   */\n      dup7\n        /* \"#utility.yul\":14038:14119   */\n      sstore\n        /* \"#utility.yul\":13907:14129   */\n      pop\n        /* \"#utility.yul\":13242:14129   */\n      jump(tag_309)\n        /* \"#utility.yul\":13272:13890   */\n    tag_310:\n        /* \"#utility.yul\":13324:13328   */\n      0x1f\n        /* \"#utility.yul\":13320:13329   */\n      not\n        /* \"#utility.yul\":13312:13318   */\n      dup5\n        /* \"#utility.yul\":13308:13330   */\n      and\n        /* \"#utility.yul\":13358:13395   */\n      tag_313\n        /* \"#utility.yul\":13390:13394   */\n      dup7\n        /* \"#utility.yul\":13358:13395   */\n      tag_145\n      jump\t// in\n    tag_313:\n        /* \"#utility.yul\":13417:13418   */\n      0x00\n        /* \"#utility.yul\":13431:13639   */\n    tag_314:\n        /* \"#utility.yul\":13445:13452   */\n      dup3\n        /* \"#utility.yul\":13442:13443   */\n      dup2\n        /* \"#utility.yul\":13439:13453   */\n      lt\n        /* \"#utility.yul\":13431:13639   */\n      iszero\n      tag_316\n      jumpi\n        /* \"#utility.yul\":13524:13533   */\n      dup5\n        /* \"#utility.yul\":13519:13522   */\n      dup10\n        /* \"#utility.yul\":13515:13534   */\n      add\n        /* \"#utility.yul\":13509:13535   */\n      mload\n        /* \"#utility.yul\":13501:13507   */\n      dup3\n        /* \"#utility.yul\":13494:13536   */\n      sstore\n        /* \"#utility.yul\":13575:13576   */\n      0x01\n        /* \"#utility.yul\":13567:13573   */\n      dup3\n        /* \"#utility.yul\":13563:13577   */\n      add\n        /* \"#utility.yul\":13553:13577   */\n      swap2\n      pop\n        /* \"#utility.yul\":13622:13624   */\n      0x20\n        /* \"#utility.yul\":13611:13620   */\n      dup6\n        /* \"#utility.yul\":13607:13625   */\n      add\n        /* \"#utility.yul\":13594:13625   */\n      swap5\n      pop\n        /* \"#utility.yul\":13468:13472   */\n      0x20\n        /* \"#utility.yul\":13465:13466   */\n      dup2\n        /* \"#utility.yul\":13461:13473   */\n      add\n        /* \"#utility.yul\":13456:13473   */\n      swap1\n      pop\n        /* \"#utility.yul\":13431:13639   */\n      jump(tag_314)\n    tag_316:\n        /* \"#utility.yul\":13667:13673   */\n      dup7\n        /* \"#utility.yul\":13658:13665   */\n      dup4\n        /* \"#utility.yul\":13655:13674   */\n      lt\n        /* \"#utility.yul\":13652:13831   */\n      iszero\n      tag_317\n      jumpi\n        /* \"#utility.yul\":13725:13734   */\n      dup5\n        /* \"#utility.yul\":13720:13723   */\n      dup10\n        /* \"#utility.yul\":13716:13735   */\n      add\n        /* \"#utility.yul\":13710:13736   */\n      mload\n        /* \"#utility.yul\":13768:13816   */\n      tag_318\n        /* \"#utility.yul\":13810:13814   */\n      0x1f\n        /* \"#utility.yul\":13802:13808   */\n      dup10\n        /* \"#utility.yul\":13798:13815   */\n      and\n        /* \"#utility.yul\":13787:13796   */\n      dup3\n        /* \"#utility.yul\":13768:13816   */\n      tag_158\n      jump\t// in\n    tag_318:\n        /* \"#utility.yul\":13760:13766   */\n      dup4\n        /* \"#utility.yul\":13753:13817   */\n      sstore\n        /* \"#utility.yul\":13675:13831   */\n      pop\n        /* \"#utility.yul\":13652:13831   */\n    tag_317:\n        /* \"#utility.yul\":13877:13878   */\n      0x01\n        /* \"#utility.yul\":13873:13874   */\n      0x02\n        /* \"#utility.yul\":13865:13871   */\n      dup9\n        /* \"#utility.yul\":13861:13875   */\n      mul\n        /* \"#utility.yul\":13857:13879   */\n      add\n        /* \"#utility.yul\":13851:13855   */\n      dup9\n        /* \"#utility.yul\":13844:13880   */\n      sstore\n        /* \"#utility.yul\":13279:13890   */\n      pop\n      pop\n      pop\n        /* \"#utility.yul\":13242:14129   */\n    tag_309:\n      pop\n        /* \"#utility.yul\":12832:14135   */\n      pop\n      pop\n      pop\n        /* \"#utility.yul\":12740:14135   */\n      pop\n      pop\n      jump\t// out\n        /* \"#utility.yul\":14141:14313   */\n    tag_160:\n        /* \"#utility.yul\":14281:14305   */\n      0x41727469636c6520646f6573206e6f7420657869737400000000000000000000\n        /* \"#utility.yul\":14277:14278   */\n      0x00\n        /* \"#utility.yul\":14269:14275   */\n      dup3\n        /* \"#utility.yul\":14265:14279   */\n      add\n        /* \"#utility.yul\":14258:14306   */\n      mstore\n        /* \"#utility.yul\":14141:14313   */\n      pop\n      jump\t// out\n        /* \"#utility.yul\":14319:14685   */\n    tag_161:\n        /* \"#utility.yul\":14461:14464   */\n      0x00\n        /* \"#utility.yul\":14482:14549   */\n      tag_321\n        /* \"#utility.yul\":14546:14548   */\n      0x16\n        /* \"#utility.yul\":14541:14544   */\n      dup4\n        /* \"#utility.yul\":14482:14549   */\n      tag_136\n      jump\t// in\n    tag_321:\n        /* \"#utility.yul\":14475:14549   */\n      swap2\n      pop\n        /* \"#utility.yul\":14558:14651   */\n      tag_322\n        /* \"#utility.yul\":14647:14650   */\n      dup3\n        /* \"#utility.yul\":14558:14651   */\n      tag_160\n      jump\t// in\n    tag_322:\n        /* \"#utility.yul\":14676:14678   */\n      0x20\n        /* \"#utility.yul\":14671:14674   */\n      dup3\n        /* \"#utility.yul\":14667:14679   */\n      add\n        /* \"#utility.yul\":14660:14679   */\n      swap1\n      pop\n        /* \"#utility.yul\":14319:14685   */\n      swap2\n      swap1\n      pop\n      jump\t// out\n        /* \"#utility.yul\":14691:15110   */\n    tag_56:\n        /* \"#utility.yul\":14857:14861   */\n      0x00\n        /* \"#utility.yul\":14895:14897   */\n      0x20\n        /* \"#utility.yul\":14884:14893   */\n      dup3\n        /* \"#utility.yul\":14880:14898   */\n      add\n        /* \"#utility.yul\":14872:14898   */\n      swap1\n      pop\n        /* \"#utility.yul\":14944:14953   */\n      dup2\n        /* \"#utility.yul\":14938:14942   */\n      dup2\n        /* \"#utility.yul\":14934:14954   */\n      sub\n        /* \"#utility.yul\":14930:14931   */\n      0x00\n        /* \"#utility.yul\":14919:14928   */\n      dup4\n        /* \"#utility.yul\":14915:14932   */\n      add\n        /* \"#utility.yul\":14908:14955   */\n      mstore\n        /* \"#utility.yul\":14972:15103   */\n      tag_324\n        /* \"#utility.yul\":15098:15102   */\n      dup2\n        /* \"#utility.yul\":14972:15103   */\n      tag_161\n      jump\t// in\n    tag_324:\n        /* \"#utility.yul\":14964:15103   */\n      swap1\n      pop\n        /* \"#utility.yul\":14691:15110   */\n      swap2\n      swap1\n      pop\n      jump\t// out\n        /* \"#utility.yul\":15116:15341   */\n    tag_162:\n        /* \"#utility.yul\":15256:15290   */\n      0x4f6e6c792074686520617574686f722063616e2064656c657465207468652061\n        /* \"#utility.yul\":15252:15253   */\n      0x00\n        /* \"#utility.yul\":15244:15250   */\n      dup3\n        /* \"#utility.yul\":15240:15254   */\n      add\n        /* \"#utility.yul\":15233:15291   */\n      mstore\n        /* \"#utility.yul\":15325:15333   */\n      0x727469636c650000000000000000000000000000000000000000000000000000\n        /* \"#utility.yul\":15320:15322   */\n      0x20\n        /* \"#utility.yul\":15312:15318   */\n      dup3\n        /* \"#utility.yul\":15308:15323   */\n      add\n        /* \"#utility.yul\":15301:15334   */\n      mstore\n        /* \"#utility.yul\":15116:15341   */\n      pop\n      jump\t// out\n        /* \"#utility.yul\":15347:15713   */\n    tag_163:\n        /* \"#utility.yul\":15489:15492   */\n      0x00\n        /* \"#utility.yul\":15510:15577   */\n      tag_327\n        /* \"#utility.yul\":15574:15576   */\n      0x26\n        /* \"#utility.yul\":15569:15572   */\n      dup4\n        /* \"#utility.yul\":15510:15577   */\n      tag_136\n      jump\t// in\n    tag_327:\n        /* \"#utility.yul\":15503:15577   */\n      swap2\n      pop\n        /* \"#utility.yul\":15586:15679   */\n      tag_328\n        /* \"#utility.yul\":15675:15678   */\n      dup3\n        /* \"#utility.yul\":15586:15679   */\n      tag_162\n      jump\t// in\n    tag_328:\n        /* \"#utility.yul\":15704:15706   */\n      0x40\n        /* \"#utility.yul\":15699:15702   */\n      dup3\n        /* \"#utility.yul\":15695:15707   */\n      add\n        /* \"#utility.yul\":15688:15707   */\n      swap1\n      pop\n        /* \"#utility.yul\":15347:15713   */\n      swap2\n      swap1\n      pop\n      jump\t// out\n        /* \"#utility.yul\":15719:16138   */\n    tag_59:\n        /* \"#utility.yul\":15885:15889   */\n      0x00\n        /* \"#utility.yul\":15923:15925   */\n      0x20\n        /* \"#utility.yul\":15912:15921   */\n      dup3\n        /* \"#utility.yul\":15908:15926   */\n      add\n        /* \"#utility.yul\":15900:15926   */\n      swap1\n      pop\n        /* \"#utility.yul\":15972:15981   */\n      dup2\n        /* \"#utility.yul\":15966:15970   */\n      dup2\n        /* \"#utility.yul\":15962:15982   */\n      sub\n        /* \"#utility.yul\":15958:15959   */\n      0x00\n        /* \"#utility.yul\":15947:15956   */\n      dup4\n        /* \"#utility.yul\":15943:15960   */\n      add\n        /* \"#utility.yul\":15936:15983   */\n      mstore\n        /* \"#utility.yul\":16000:16131   */\n      tag_330\n        /* \"#utility.yul\":16126:16130   */\n      dup2\n        /* \"#utility.yul\":16000:16131   */\n      tag_163\n      jump\t// in\n    tag_330:\n        /* \"#utility.yul\":15992:16131   */\n      swap1\n      pop\n        /* \"#utility.yul\":15719:16138   */\n      swap2\n      swap1\n      pop\n      jump\t// out\n        /* \"#utility.yul\":16144:16324   */\n    tag_62:\n        /* \"#utility.yul\":16192:16269   */\n      0x4e487b7100000000000000000000000000000000000000000000000000000000\n        /* \"#utility.yul\":16189:16190   */\n      0x00\n        /* \"#utility.yul\":16182:16270   */\n      mstore\n        /* \"#utility.yul\":16289:16293   */\n      0x32\n        /* \"#utility.yul\":16286:16287   */\n      0x04\n        /* \"#utility.yul\":16279:16294   */\n      mstore\n        /* \"#utility.yul\":16313:16317   */\n      0x24\n        /* \"#utility.yul\":16310:16311   */\n      0x00\n        /* \"#utility.yul\":16303:16318   */\n      revert\n        /* \"#utility.yul\":16330:16555   */\n    tag_164:\n        /* \"#utility.yul\":16470:16504   */\n      0x4f6e6c792074686520617574686f722063616e20757064617465207468652061\n        /* \"#utility.yul\":16466:16467   */\n      0x00\n        /* \"#utility.yul\":16458:16464   */\n      dup3\n        /* \"#utility.yul\":16454:16468   */\n      add\n        /* \"#utility.yul\":16447:16505   */\n      mstore\n        /* \"#utility.yul\":16539:16547   */\n      0x727469636c650000000000000000000000000000000000000000000000000000\n        /* \"#utility.yul\":16534:16536   */\n      0x20\n        /* \"#utility.yul\":16526:16532   */\n      dup3\n        /* \"#utility.yul\":16522:16537   */\n      add\n        /* \"#utility.yul\":16515:16548   */\n      mstore\n        /* \"#utility.yul\":16330:16555   */\n      pop\n      jump\t// out\n        /* \"#utility.yul\":16561:16927   */\n    tag_165:\n        /* \"#utility.yul\":16703:16706   */\n      0x00\n        /* \"#utility.yul\":16724:16791   */\n      tag_334\n        /* \"#utility.yul\":16788:16790   */\n      0x26\n        /* \"#utility.yul\":16783:16786   */\n      dup4\n        /* \"#utility.yul\":16724:16791   */\n      tag_136\n      jump\t// in\n    tag_334:\n        /* \"#utility.yul\":16717:16791   */\n      swap2\n      pop\n        /* \"#utility.yul\":16800:16893   */\n      tag_335\n        /* \"#utility.yul\":16889:16892   */\n      dup3\n        /* \"#utility.yul\":16800:16893   */\n      tag_164\n      jump\t// in\n    tag_335:\n        /* \"#utility.yul\":16918:16920   */\n      0x40\n        /* \"#utility.yul\":16913:16916   */\n      dup3\n        /* \"#utility.yul\":16909:16921   */\n      add\n        /* \"#utility.yul\":16902:16921   */\n      swap1\n      pop\n        /* \"#utility.yul\":16561:16927   */\n      swap2\n      swap1\n      pop\n      jump\t// out\n        /* \"#utility.yul\":16933:17352   */\n    tag_73:\n        /* \"#utility.yul\":17099:17103   */\n      0x00\n        /* \"#utility.yul\":17137:17139   */\n      0x20\n        /* \"#utility.yul\":17126:17135   */\n      dup3\n        /* \"#utility.yul\":17122:17140   */\n      add\n        /* \"#utility.yul\":17114:17140   */\n      swap1\n      pop\n        /* \"#utility.yul\":17186:17195   */\n      dup2\n        /* \"#utility.yul\":17180:17184   */\n      dup2\n        /* \"#utility.yul\":17176:17196   */\n      sub\n        /* \"#utility.yul\":17172:17173   */\n      0x00\n        /* \"#utility.yul\":17161:17170   */\n      dup4\n        /* \"#utility.yul\":17157:17174   */\n      add\n        /* \"#utility.yul\":17150:17197   */\n      mstore\n        /* \"#utility.yul\":17214:17345   */\n      tag_337\n        /* \"#utility.yul\":17340:17344   */\n      dup2\n        /* \"#utility.yul\":17214:17345   */\n      tag_165\n      jump\t// in\n    tag_337:\n        /* \"#utility.yul\":17206:17345   */\n      swap1\n      pop\n        /* \"#utility.yul\":16933:17352   */\n      swap2\n      swap1\n      pop\n      jump\t// out\n\n    auxdata: 0xa2646970667358221220420a6eefbe7c303d13b88b51833179e0eb518bef7f4845098d9e8a169e3adb8264736f6c63430008120033\n}\n",
				"bytecode": {
					"linkReferences": {},
					"object": "608060405234801561001057600080fd5b50611456806100206000396000f3fe608060405234801561001057600080fd5b506004361061007d5760003560e01c80638120abed1161005b5780638120abed146100ea578063bd85d86714610106578063e899d5ff14610139578063edcfafe6146101575761007d565b80632d7e176a146100825780633dd80c331461009e578063498de8b3146100ce575b600080fd5b61009c60048036038101906100979190610c1c565b61018a565b005b6100b860048036038101906100b39190610cca565b610397565b6040516100c59190610d38565b60405180910390f35b6100e860048036038101906100e39190610cca565b6103ca565b005b61010460048036038101906100ff9190610d53565b610567565b005b610120600480360381019061011b9190610cca565b6106c4565b6040516101309493929190610e3d565b60405180910390f35b6101416108e9565b60405161014e9190610e90565b60405180910390f35b610171600480360381019061016c9190610cca565b6108f5565b6040516101819493929190610e3d565b60405180910390f35b60008251116101ce576040517f08c379a00000000000000000000000000000000000000000000000000000000081526004016101c590610ef7565b60405180910390fd5b6000815111610212576040517f08c379a000000000000000000000000000000000000000000000000000000000815260040161020990610f63565b60405180910390fd5b60004290506000339050600080805490509050600060405180608001604052808781526020018681526020018581526020018473ffffffffffffffffffffffffffffffffffffffff168152509080600181540180825580915050600190039060005260206000209060040201600090919091909150600082015181600001908161029c919061118f565b5060208201518160010190816102b2919061118f565b506040820151816002015560608201518160030160006101000a81548173ffffffffffffffffffffffffffffffffffffffff021916908373ffffffffffffffffffffffffffffffffffffffff1602179055505050816001600083815260200190815260200160002060006101000a81548173ffffffffffffffffffffffffffffffffffffffff021916908373ffffffffffffffffffffffffffffffffffffffff160217905550807f0d067132b5b7b86fabe7a6d7293411e7a1495db0cc1a3c051c7001f09b6b3629836040516103889190610d38565b60405180910390a25050505050565b60016020528060005260406000206000915054906101000a900473ffffffffffffffffffffffffffffffffffffffff1681565b6000805490508110610411576040517f08c379a0000000000000000000000000000000000000000000000000000000008152600401610408906112ad565b60405180910390fd5b60006001600083815260200190815260200160002060009054906101000a900473ffffffffffffffffffffffffffffffffffffffff1690508073ffffffffffffffffffffffffffffffffffffffff163373ffffffffffffffffffffffffffffffffffffffff16146104b7576040517f08c379a00000000000000000000000000000000000000000000000000000000081526004016104ae9061133f565b60405180910390fd5b600082815481106104cb576104ca61135f565b5b9060005260206000209060040201600080820160006104ea9190610a65565b6001820160006104fa9190610a65565b60028201600090556003820160006101000a81549073ffffffffffffffffffffffffffffffffffffffff02191690555050817fa4756d558a7f308c2c69668746970e42c7fada751c0a969d29a5a8f0ccd285cc8260405161055b9190610d38565b60405180910390a25050565b60008054905082106105ae576040517f08c379a00000000000000000000000000000000000000000000000000000000081526004016105a5906112ad565b60405180910390fd5b60006001600084815260200190815260200160002060009054906101000a900473ffffffffffffffffffffffffffffffffffffffff1690508073ffffffffffffffffffffffffffffffffffffffff163373ffffffffffffffffffffffffffffffffffffffff1614610654576040517f08c379a000000000000000000000000000000000000000000000000000000000815260040161064b90611400565b60405180910390fd5b81600084815481106106695761066861135f565b5b90600052602060002090600402016001019081610686919061118f565b50827f785a15875bf13599097808f87026b2497f90861161e0a08769dc6e2944b6d5db826040516106b79190610d38565b60405180910390a2505050565b6060806000806000805490508510610711576040517f08c379a0000000000000000000000000000000000000000000000000000000008152600401610708906112ad565b60405180910390fd5b60008086815481106107265761072561135f565b5b906000526020600020906004020160405180608001604052908160008201805461074f90610fb2565b80601f016020809104026020016040519081016040528092919081815260200182805461077b90610fb2565b80156107c85780601f1061079d576101008083540402835291602001916107c8565b820191906000526020600020905b8154815290600101906020018083116107ab57829003601f168201915b505050505081526020016001820180546107e190610fb2565b80601f016020809104026020016040519081016040528092919081815260200182805461080d90610fb2565b801561085a5780601f1061082f5761010080835404028352916020019161085a565b820191906000526020600020905b81548152906001019060200180831161083d57829003601f168201915b50505050508152602001600282015481526020016003820160009054906101000a900473ffffffffffffffffffffffffffffffffffffffff1673ffffffffffffffffffffffffffffffffffffffff1673ffffffffffffffffffffffffffffffffffffffff1681525050905080600001518160200151826040015183606001519450945094509450509193509193565b60008080549050905090565b6000818154811061090557600080fd5b906000526020600020906004020160009150905080600001805461092890610fb2565b80601f016020809104026020016040519081016040528092919081815260200182805461095490610fb2565b80156109a15780601f10610976576101008083540402835291602001916109a1565b820191906000526020600020905b81548152906001019060200180831161098457829003601f168201915b5050505050908060010180546109b690610fb2565b80601f01602080910402602001604051908101604052809291908181526020018280546109e290610fb2565b8015610a2f5780601f10610a0457610100808354040283529160200191610a2f565b820191906000526020600020905b815481529060010190602001808311610a1257829003601f168201915b5050505050908060020154908060030160009054906101000a900473ffffffffffffffffffffffffffffffffffffffff16905084565b508054610a7190610fb2565b6000825580601f10610a835750610aa2565b601f016020900490600052602060002090810190610aa19190610aa5565b5b50565b5b80821115610abe576000816000905550600101610aa6565b5090565b6000604051905090565b600080fd5b600080fd5b600080fd5b600080fd5b6000601f19601f8301169050919050565b7f4e487b7100000000000000000000000000000000000000000000000000000000600052604160045260246000fd5b610b2982610ae0565b810181811067ffffffffffffffff82111715610b4857610b47610af1565b5b80604052505050565b6000610b5b610ac2565b9050610b678282610b20565b919050565b600067ffffffffffffffff821115610b8757610b86610af1565b5b610b9082610ae0565b9050602081019050919050565b82818337600083830152505050565b6000610bbf610bba84610b6c565b610b51565b905082815260208101848484011115610bdb57610bda610adb565b5b610be6848285610b9d565b509392505050565b600082601f830112610c0357610c02610ad6565b5b8135610c13848260208601610bac565b91505092915050565b60008060408385031215610c3357610c32610acc565b5b600083013567ffffffffffffffff811115610c5157610c50610ad1565b5b610c5d85828601610bee565b925050602083013567ffffffffffffffff811115610c7e57610c7d610ad1565b5b610c8a85828601610bee565b9150509250929050565b6000819050919050565b610ca781610c94565b8114610cb257600080fd5b50565b600081359050610cc481610c9e565b92915050565b600060208284031215610ce057610cdf610acc565b5b6000610cee84828501610cb5565b91505092915050565b600073ffffffffffffffffffffffffffffffffffffffff82169050919050565b6000610d2282610cf7565b9050919050565b610d3281610d17565b82525050565b6000602082019050610d4d6000830184610d29565b92915050565b60008060408385031215610d6a57610d69610acc565b5b6000610d7885828601610cb5565b925050602083013567ffffffffffffffff811115610d9957610d98610ad1565b5b610da585828601610bee565b9150509250929050565b600081519050919050565b600082825260208201905092915050565b60005b83811015610de9578082015181840152602081019050610dce565b60008484015250505050565b6000610e0082610daf565b610e0a8185610dba565b9350610e1a818560208601610dcb565b610e2381610ae0565b840191505092915050565b610e3781610c94565b82525050565b60006080820190508181036000830152610e578187610df5565b90508181036020830152610e6b8186610df5565b9050610e7a6040830185610e2e565b610e876060830184610d29565b95945050505050565b6000602082019050610ea56000830184610e2e565b92915050565b7f5469746c652063616e6e6f7420626520656d7074790000000000000000000000600082015250565b6000610ee1601583610dba565b9150610eec82610eab565b602082019050919050565b60006020820190508181036000830152610f1081610ed4565b9050919050565b7f436f6e74656e742063616e6e6f7420626520656d707479000000000000000000600082015250565b6000610f4d601783610dba565b9150610f5882610f17565b602082019050919050565b60006020820190508181036000830152610f7c81610f40565b9050919050565b7f4e487b7100000000000000000000000000000000000000000000000000000000600052602260045260246000fd5b60006002820490506001821680610fca57607f821691505b602082108103610fdd57610fdc610f83565b5b50919050565b60008190508160005260206000209050919050565b60006020601f8301049050919050565b600082821b905092915050565b6000600883026110457fffffffffffffffffffffffffffffffffffffffffffffffffffffffffffffffff82611008565b61104f8683611008565b95508019841693508086168417925050509392505050565b6000819050919050565b600061108c61108761108284610c94565b611067565b610c94565b9050919050565b6000819050919050565b6110a683611071565b6110ba6110b282611093565b848454611015565b825550505050565b600090565b6110cf6110c2565b6110da81848461109d565b505050565b5b818110156110fe576110f36000826110c7565b6001810190506110e0565b5050565b601f8211156111435761111481610fe3565b61111d84610ff8565b8101602085101561112c578190505b61114061113885610ff8565b8301826110df565b50505b505050565b600082821c905092915050565b600061116660001984600802611148565b1980831691505092915050565b600061117f8383611155565b9150826002028217905092915050565b61119882610daf565b67ffffffffffffffff8111156111b1576111b0610af1565b5b6111bb8254610fb2565b6111c6828285611102565b600060209050601f8311600181146111f957600084156111e7578287015190505b6111f18582611173565b865550611259565b601f19841661120786610fe3565b60005b8281101561122f5784890151825560018201915060208501945060208101905061120a565b8683101561124c5784890151611248601f891682611155565b8355505b6001600288020188555050505b505050505050565b7f41727469636c6520646f6573206e6f7420657869737400000000000000000000600082015250565b6000611297601683610dba565b91506112a282611261565b602082019050919050565b600060208201905081810360008301526112c68161128a565b9050919050565b7f4f6e6c792074686520617574686f722063616e2064656c65746520746865206160008201527f727469636c650000000000000000000000000000000000000000000000000000602082015250565b6000611329602683610dba565b9150611334826112cd565b604082019050919050565b600060208201905081810360008301526113588161131c565b9050919050565b7f4e487b7100000000000000000000000000000000000000000000000000000000600052603260045260246000fd5b7f4f6e6c792074686520617574686f722063616e2075706461746520746865206160008201527f727469636c650000000000000000000000000000000000000000000000000000602082015250565b60006113ea602683610dba565b91506113f58261138e565b604082019050919050565b60006020820190508181036000830152611419816113dd565b905091905056fea2646970667358221220420a6eefbe7c303d13b88b51833179e0eb518bef7f4845098d9e8a169e3adb8264736f6c63430008120033",
					"opcodes": "PUSH1 0x80 PUSH1 0x40 MSTORE CALLVALUE DUP1 ISZERO PUSH2 0x10 JUMPI PUSH1 0x0 DUP1 REVERT JUMPDEST POP PUSH2 0x1456 DUP1 PUSH2 0x20 PUSH1 0x0 CODECOPY PUSH1 0x0 RETURN INVALID PUSH1 0x80 PUSH1 0x40 MSTORE CALLVALUE DUP1 ISZERO PUSH2 0x10 JUMPI PUSH1 0x0 DUP1 REVERT JUMPDEST POP PUSH1 0x4 CALLDATASIZE LT PUSH2 0x7D JUMPI PUSH1 0x0 CALLDATALOAD PUSH1 0xE0 SHR DUP1 PUSH4 0x8120ABED GT PUSH2 0x5B JUMPI DUP1 PUSH4 0x8120ABED EQ PUSH2 0xEA JUMPI DUP1 PUSH4 0xBD85D867 EQ PUSH2 0x106 JUMPI DUP1 PUSH4 0xE899D5FF EQ PUSH2 0x139 JUMPI DUP1 PUSH4 0xEDCFAFE6 EQ PUSH2 0x157 JUMPI PUSH2 0x7D JUMP JUMPDEST DUP1 PUSH4 0x2D7E176A EQ PUSH2 0x82 JUMPI DUP1 PUSH4 0x3DD80C33 EQ PUSH2 0x9E JUMPI DUP1 PUSH4 0x498DE8B3 EQ PUSH2 0xCE JUMPI JUMPDEST PUSH1 0x0 DUP1 REVERT JUMPDEST PUSH2 0x9C PUSH1 0x4 DUP1 CALLDATASIZE SUB DUP2 ADD SWAP1 PUSH2 0x97 SWAP2 SWAP1 PUSH2 0xC1C JUMP JUMPDEST PUSH2 0x18A JUMP JUMPDEST STOP JUMPDEST PUSH2 0xB8 PUSH1 0x4 DUP1 CALLDATASIZE SUB DUP2 ADD SWAP1 PUSH2 0xB3 SWAP2 SWAP1 PUSH2 0xCCA JUMP JUMPDEST PUSH2 0x397 JUMP JUMPDEST PUSH1 0x40 MLOAD PUSH2 0xC5 SWAP2 SWAP1 PUSH2 0xD38 JUMP JUMPDEST PUSH1 0x40 MLOAD DUP1 SWAP2 SUB SWAP1 RETURN JUMPDEST PUSH2 0xE8 PUSH1 0x4 DUP1 CALLDATASIZE SUB DUP2 ADD SWAP1 PUSH2 0xE3 SWAP2 SWAP1 PUSH2 0xCCA JUMP JUMPDEST PUSH2 0x3CA JUMP JUMPDEST STOP JUMPDEST PUSH2 0x104 PUSH1 0x4 DUP1 CALLDATASIZE SUB DUP2 ADD SWAP1 PUSH2 0xFF SWAP2 SWAP1 PUSH2 0xD53 JUMP JUMPDEST PUSH2 0x567 JUMP JUMPDEST STOP JUMPDEST PUSH2 0x120 PUSH1 0x4 DUP1 CALLDATASIZE SUB DUP2 ADD SWAP1 PUSH2 0x11B SWAP2 SWAP1 PUSH2 0xCCA JUMP JUMPDEST PUSH2 0x6C4 JUMP JUMPDEST PUSH1 0x40 MLOAD PUSH2 0x130 SWAP5 SWAP4 SWAP3 SWAP2 SWAP1 PUSH2 0xE3D JUMP JUMPDEST PUSH1 0x40 MLOAD DUP1 SWAP2 SUB SWAP1 RETURN JUMPDEST PUSH2 0x141 PUSH2 0x8E9 JUMP JUMPDEST PUSH1 0x40 MLOAD PUSH2 0x14E SWAP2 SWAP1 PUSH2 0xE90 JUMP JUMPDEST PUSH1 0x40 MLOAD DUP1 SWAP2 SUB SWAP1 RETURN JUMPDEST PUSH2 0x171 PUSH1 0x4 DUP1 CALLDATASIZE SUB DUP2 ADD SWAP1 PUSH2 0x16C SWAP2 SWAP1 PUSH2 0xCCA JUMP JUMPDEST PUSH2 0x8F5 JUMP JUMPDEST PUSH1 0x40 MLOAD PUSH2 0x181 SWAP5 SWAP4 SWAP3 SWAP2 SWAP1 PUSH2 0xE3D JUMP JUMPDEST PUSH1 0x40 MLOAD DUP1 SWAP2 SUB SWAP1 RETURN JUMPDEST PUSH1 0x0 DUP3 MLOAD GT PUSH2 0x1CE JUMPI PUSH1 0x40 MLOAD PUSH32 0x8C379A000000000000000000000000000000000000000000000000000000000 DUP2 MSTORE PUSH1 0x4 ADD PUSH2 0x1C5 SWAP1 PUSH2 0xEF7 JUMP JUMPDEST PUSH1 0x40 MLOAD DUP1 SWAP2 SUB SWAP1 REVERT JUMPDEST PUSH1 0x0 DUP2 MLOAD GT PUSH2 0x212 JUMPI PUSH1 0x40 MLOAD PUSH32 0x8C379A000000000000000000000000000000000000000000000000000000000 DUP2 MSTORE PUSH1 0x4 ADD PUSH2 0x209 SWAP1 PUSH2 0xF63 JUMP JUMPDEST PUSH1 0x40 MLOAD DUP1 SWAP2 SUB SWAP1 REVERT JUMPDEST PUSH1 0x0 TIMESTAMP SWAP1 POP PUSH1 0x0 CALLER SWAP1 POP PUSH1 0x0 DUP1 DUP1 SLOAD SWAP1 POP SWAP1 POP PUSH1 0x0 PUSH1 0x40 MLOAD DUP1 PUSH1 0x80 ADD PUSH1 0x40 MSTORE DUP1 DUP8 DUP2 MSTORE PUSH1 0x20 ADD DUP7 DUP2 MSTORE PUSH1 0x20 ADD DUP6 DUP2 MSTORE PUSH1 0x20 ADD DUP5 PUSH20 0xFFFFFFFFFFFFFFFFFFFFFFFFFFFFFFFFFFFFFFFF AND DUP2 MSTORE POP SWAP1 DUP1 PUSH1 0x1 DUP2 SLOAD ADD DUP1 DUP3 SSTORE DUP1 SWAP2 POP POP PUSH1 0x1 SWAP1 SUB SWAP1 PUSH1 0x0 MSTORE PUSH1 0x20 PUSH1 0x0 KECCAK256 SWAP1 PUSH1 0x4 MUL ADD PUSH1 0x0 SWAP1 SWAP2 SWAP1 SWAP2 SWAP1 SWAP2 POP PUSH1 0x0 DUP3 ADD MLOAD DUP2 PUSH1 0x0 ADD SWAP1 DUP2 PUSH2 0x29C SWAP2 SWAP1 PUSH2 0x118F JUMP JUMPDEST POP PUSH1 0x20 DUP3 ADD MLOAD DUP2 PUSH1 0x1 ADD SWAP1 DUP2 PUSH2 0x2B2 SWAP2 SWAP1 PUSH2 0x118F JUMP JUMPDEST POP PUSH1 0x40 DUP3 ADD MLOAD DUP2 PUSH1 0x2 ADD SSTORE PUSH1 0x60 DUP3 ADD MLOAD DUP2 PUSH1 0x3 ADD PUSH1 0x0 PUSH2 0x100 EXP DUP2 SLOAD DUP2 PUSH20 0xFFFFFFFFFFFFFFFFFFFFFFFFFFFFFFFFFFFFFFFF MUL NOT AND SWAP1 DUP4 PUSH20 0xFFFFFFFFFFFFFFFFFFFFFFFFFFFFFFFFFFFFFFFF AND MUL OR SWAP1 SSTORE POP POP POP DUP2 PUSH1 0x1 PUSH1 0x0 DUP4 DUP2 MSTORE PUSH1 0x20 ADD SWAP1 DUP2 MSTORE PUSH1 0x20 ADD PUSH1 0x0 KECCAK256 PUSH1 0x0 PUSH2 0x100 EXP DUP2 SLOAD DUP2 PUSH20 0xFFFFFFFFFFFFFFFFFFFFFFFFFFFFFFFFFFFFFFFF MUL NOT AND SWAP1 DUP4 PUSH20 0xFFFFFFFFFFFFFFFFFFFFFFFFFFFFFFFFFFFFFFFF AND MUL OR SWAP1 SSTORE POP DUP1 PUSH32 0xD067132B5B7B86FABE7A6D7293411E7A1495DB0CC1A3C051C7001F09B6B3629 DUP4 PUSH1 0x40 MLOAD PUSH2 0x388 SWAP2 SWAP1 PUSH2 0xD38 JUMP JUMPDEST PUSH1 0x40 MLOAD DUP1 SWAP2 SUB SWAP1 LOG2 POP POP POP POP POP JUMP JUMPDEST PUSH1 0x1 PUSH1 0x20 MSTORE DUP1 PUSH1 0x0 MSTORE PUSH1 0x40 PUSH1 0x0 KECCAK256 PUSH1 0x0 SWAP2 POP SLOAD SWAP1 PUSH2 0x100 EXP SWAP1 DIV PUSH20 0xFFFFFFFFFFFFFFFFFFFFFFFFFFFFFFFFFFFFFFFF AND DUP2 JUMP JUMPDEST PUSH1 0x0 DUP1 SLOAD SWAP1 POP DUP2 LT PUSH2 0x411 JUMPI PUSH1 0x40 MLOAD PUSH32 0x8C379A000000000000000000000000000000000000000000000000000000000 DUP2 MSTORE PUSH1 0x4 ADD PUSH2 0x408 SWAP1 PUSH2 0x12AD JUMP JUMPDEST PUSH1 0x40 MLOAD DUP1 SWAP2 SUB SWAP1 REVERT JUMPDEST PUSH1 0x0 PUSH1 0x1 PUSH1 0x0 DUP4 DUP2 MSTORE PUSH1 0x20 ADD SWAP1 DUP2 MSTORE PUSH1 0x20 ADD PUSH1 0x0 KECCAK256 PUSH1 0x0 SWAP1 SLOAD SWAP1 PUSH2 0x100 EXP SWAP1 DIV PUSH20 0xFFFFFFFFFFFFFFFFFFFFFFFFFFFFFFFFFFFFFFFF AND SWAP1 POP DUP1 PUSH20 0xFFFFFFFFFFFFFFFFFFFFFFFFFFFFFFFFFFFFFFFF AND CALLER PUSH20 0xFFFFFFFFFFFFFFFFFFFFFFFFFFFFFFFFFFFFFFFF AND EQ PUSH2 0x4B7 JUMPI PUSH1 0x40 MLOAD PUSH32 0x8C379A000000000000000000000000000000000000000000000000000000000 DUP2 MSTORE PUSH1 0x4 ADD PUSH2 0x4AE SWAP1 PUSH2 0x133F JUMP JUMPDEST PUSH1 0x40 MLOAD DUP1 SWAP2 SUB SWAP1 REVERT JUMPDEST PUSH1 0x0 DUP3 DUP2 SLOAD DUP2 LT PUSH2 0x4CB JUMPI PUSH2 0x4CA PUSH2 0x135F JUMP JUMPDEST JUMPDEST SWAP1 PUSH1 0x0 MSTORE PUSH1 0x20 PUSH1 0x0 KECCAK256 SWAP1 PUSH1 0x4 MUL ADD PUSH1 0x0 DUP1 DUP3 ADD PUSH1 0x0 PUSH2 0x4EA SWAP2 SWAP1 PUSH2 0xA65 JUMP JUMPDEST PUSH1 0x1 DUP3 ADD PUSH1 0x0 PUSH2 0x4FA SWAP2 SWAP1 PUSH2 0xA65 JUMP JUMPDEST PUSH1 0x2 DUP3 ADD PUSH1 0x0 SWAP1 SSTORE PUSH1 0x3 DUP3 ADD PUSH1 0x0 PUSH2 0x100 EXP DUP2 SLOAD SWAP1 PUSH20 0xFFFFFFFFFFFFFFFFFFFFFFFFFFFFFFFFFFFFFFFF MUL NOT AND SWAP1 SSTORE POP POP DUP2 PUSH32 0xA4756D558A7F308C2C69668746970E42C7FADA751C0A969D29A5A8F0CCD285CC DUP3 PUSH1 0x40 MLOAD PUSH2 0x55B SWAP2 SWAP1 PUSH2 0xD38 JUMP JUMPDEST PUSH1 0x40 MLOAD DUP1 SWAP2 SUB SWAP1 LOG2 POP POP JUMP JUMPDEST PUSH1 0x0 DUP1 SLOAD SWAP1 POP DUP3 LT PUSH2 0x5AE JUMPI PUSH1 0x40 MLOAD PUSH32 0x8C379A000000000000000000000000000000000000000000000000000000000 DUP2 MSTORE PUSH1 0x4 ADD PUSH2 0x5A5 SWAP1 PUSH2 0x12AD JUMP JUMPDEST PUSH1 0x40 MLOAD DUP1 SWAP2 SUB SWAP1 REVERT JUMPDEST PUSH1 0x0 PUSH1 0x1 PUSH1 0x0 DUP5 DUP2 MSTORE PUSH1 0x20 ADD SWAP1 DUP2 MSTORE PUSH1 0x20 ADD PUSH1 0x0 KECCAK256 PUSH1 0x0 SWAP1 SLOAD SWAP1 PUSH2 0x100 EXP SWAP1 DIV PUSH20 0xFFFFFFFFFFFFFFFFFFFFFFFFFFFFFFFFFFFFFFFF AND SWAP1 POP DUP1 PUSH20 0xFFFFFFFFFFFFFFFFFFFFFFFFFFFFFFFFFFFFFFFF AND CALLER PUSH20 0xFFFFFFFFFFFFFFFFFFFFFFFFFFFFFFFFFFFFFFFF AND EQ PUSH2 0x654 JUMPI PUSH1 0x40 MLOAD PUSH32 0x8C379A000000000000000000000000000000000000000000000000000000000 DUP2 MSTORE PUSH1 0x4 ADD PUSH2 0x64B SWAP1 PUSH2 0x1400 JUMP JUMPDEST PUSH1 0x40 MLOAD DUP1 SWAP2 SUB SWAP1 REVERT JUMPDEST DUP2 PUSH1 0x0 DUP5 DUP2 SLOAD DUP2 LT PUSH2 0x669 JUMPI PUSH2 0x668 PUSH2 0x135F JUMP JUMPDEST JUMPDEST SWAP1 PUSH1 0x0 MSTORE PUSH1 0x20 PUSH1 0x0 KECCAK256 SWAP1 PUSH1 0x4 MUL ADD PUSH1 0x1 ADD SWAP1 DUP2 PUSH2 0x686 SWAP2 SWAP1 PUSH2 0x118F JUMP JUMPDEST POP DUP3 PUSH32 0x785A15875BF13599097808F87026B2497F90861161E0A08769DC6E2944B6D5DB DUP3 PUSH1 0x40 MLOAD PUSH2 0x6B7 SWAP2 SWAP1 PUSH2 0xD38 JUMP JUMPDEST PUSH1 0x40 MLOAD DUP1 SWAP2 SUB SWAP1 LOG2 POP POP POP JUMP JUMPDEST PUSH1 0x60 DUP1 PUSH1 0x0 DUP1 PUSH1 0x0 DUP1 SLOAD SWAP1 POP DUP6 LT PUSH2 0x711 JUMPI PUSH1 0x40 MLOAD PUSH32 0x8C379A000000000000000000000000000000000000000000000000000000000 DUP2 MSTORE PUSH1 0x4 ADD PUSH2 0x708 SWAP1 PUSH2 0x12AD JUMP JUMPDEST PUSH1 0x40 MLOAD DUP1 SWAP2 SUB SWAP1 REVERT JUMPDEST PUSH1 0x0 DUP1 DUP7 DUP2 SLOAD DUP2 LT PUSH2 0x726 JUMPI PUSH2 0x725 PUSH2 0x135F JUMP JUMPDEST JUMPDEST SWAP1 PUSH1 0x0 MSTORE PUSH1 0x20 PUSH1 0x0 KECCAK256 SWAP1 PUSH1 0x4 MUL ADD PUSH1 0x40 MLOAD DUP1 PUSH1 0x80 ADD PUSH1 0x40 MSTORE SWAP1 DUP2 PUSH1 0x0 DUP3 ADD DUP1 SLOAD PUSH2 0x74F SWAP1 PUSH2 0xFB2 JUMP JUMPDEST DUP1 PUSH1 0x1F ADD PUSH1 0x20 DUP1 SWAP2 DIV MUL PUSH1 0x20 ADD PUSH1 0x40 MLOAD SWAP1 DUP2 ADD PUSH1 0x40 MSTORE DUP1 SWAP3 SWAP2 SWAP1 DUP2 DUP2 MSTORE PUSH1 0x20 ADD DUP3 DUP1 SLOAD PUSH2 0x77B SWAP1 PUSH2 0xFB2 JUMP JUMPDEST DUP1 ISZERO PUSH2 0x7C8 JUMPI DUP1 PUSH1 0x1F LT PUSH2 0x79D JUMPI PUSH2 0x100 DUP1 DUP4 SLOAD DIV MUL DUP4 MSTORE SWAP2 PUSH1 0x20 ADD SWAP2 PUSH2 0x7C8 JUMP JUMPDEST DUP3 ADD SWAP2 SWAP1 PUSH1 0x0 MSTORE PUSH1 0x20 PUSH1 0x0 KECCAK256 SWAP1 JUMPDEST DUP2 SLOAD DUP2 MSTORE SWAP1 PUSH1 0x1 ADD SWAP1 PUSH1 0x20 ADD DUP1 DUP4 GT PUSH2 0x7AB JUMPI DUP3 SWAP1 SUB PUSH1 0x1F AND DUP3 ADD SWAP2 JUMPDEST POP POP POP POP POP DUP2 MSTORE PUSH1 0x20 ADD PUSH1 0x1 DUP3 ADD DUP1 SLOAD PUSH2 0x7E1 SWAP1 PUSH2 0xFB2 JUMP JUMPDEST DUP1 PUSH1 0x1F ADD PUSH1 0x20 DUP1 SWAP2 DIV MUL PUSH1 0x20 ADD PUSH1 0x40 MLOAD SWAP1 DUP2 ADD PUSH1 0x40 MSTORE DUP1 SWAP3 SWAP2 SWAP1 DUP2 DUP2 MSTORE PUSH1 0x20 ADD DUP3 DUP1 SLOAD PUSH2 0x80D SWAP1 PUSH2 0xFB2 JUMP JUMPDEST DUP1 ISZERO PUSH2 0x85A JUMPI DUP1 PUSH1 0x1F LT PUSH2 0x82F JUMPI PUSH2 0x100 DUP1 DUP4 SLOAD DIV MUL DUP4 MSTORE SWAP2 PUSH1 0x20 ADD SWAP2 PUSH2 0x85A JUMP JUMPDEST DUP3 ADD SWAP2 SWAP1 PUSH1 0x0 MSTORE PUSH1 0x20 PUSH1 0x0 KECCAK256 SWAP1 JUMPDEST DUP2 SLOAD DUP2 MSTORE SWAP1 PUSH1 0x1 ADD SWAP1 PUSH1 0x20 ADD DUP1 DUP4 GT PUSH2 0x83D JUMPI DUP3 SWAP1 SUB PUSH1 0x1F AND DUP3 ADD SWAP2 JUMPDEST POP POP POP POP POP DUP2 MSTORE PUSH1 0x20 ADD PUSH1 0x2 DUP3 ADD SLOAD DUP2 MSTORE PUSH1 0x20 ADD PUSH1 0x3 DUP3 ADD PUSH1 0x0 SWAP1 SLOAD SWAP1 PUSH2 0x100 EXP SWAP1 DIV PUSH20 0xFFFFFFFFFFFFFFFFFFFFFFFFFFFFFFFFFFFFFFFF AND PUSH20 0xFFFFFFFFFFFFFFFFFFFFFFFFFFFFFFFFFFFFFFFF AND PUSH20 0xFFFFFFFFFFFFFFFFFFFFFFFFFFFFFFFFFFFFFFFF AND DUP2 MSTORE POP POP SWAP1 POP DUP1 PUSH1 0x0 ADD MLOAD DUP2 PUSH1 0x20 ADD MLOAD DUP3 PUSH1 0x40 ADD MLOAD DUP4 PUSH1 0x60 ADD MLOAD SWAP5 POP SWAP5 POP SWAP5 POP SWAP5 POP POP SWAP2 SWAP4 POP SWAP2 SWAP4 JUMP JUMPDEST PUSH1 0x0 DUP1 DUP1 SLOAD SWAP1 POP SWAP1 POP SWAP1 JUMP JUMPDEST PUSH1 0x0 DUP2 DUP2 SLOAD DUP2 LT PUSH2 0x905 JUMPI PUSH1 0x0 DUP1 REVERT JUMPDEST SWAP1 PUSH1 0x0 MSTORE PUSH1 0x20 PUSH1 0x0 KECCAK256 SWAP1 PUSH1 0x4 MUL ADD PUSH1 0x0 SWAP2 POP SWAP1 POP DUP1 PUSH1 0x0 ADD DUP1 SLOAD PUSH2 0x928 SWAP1 PUSH2 0xFB2 JUMP JUMPDEST DUP1 PUSH1 0x1F ADD PUSH1 0x20 DUP1 SWAP2 DIV MUL PUSH1 0x20 ADD PUSH1 0x40 MLOAD SWAP1 DUP2 ADD PUSH1 0x40 MSTORE DUP1 SWAP3 SWAP2 SWAP1 DUP2 DUP2 MSTORE PUSH1 0x20 ADD DUP3 DUP1 SLOAD PUSH2 0x954 SWAP1 PUSH2 0xFB2 JUMP JUMPDEST DUP1 ISZERO PUSH2 0x9A1 JUMPI DUP1 PUSH1 0x1F LT PUSH2 0x976 JUMPI PUSH2 0x100 DUP1 DUP4 SLOAD DIV MUL DUP4 MSTORE SWAP2 PUSH1 0x20 ADD SWAP2 PUSH2 0x9A1 JUMP JUMPDEST DUP3 ADD SWAP2 SWAP1 PUSH1 0x0 MSTORE PUSH1 0x20 PUSH1 0x0 KECCAK256 SWAP1 JUMPDEST DUP2 SLOAD DUP2 MSTORE SWAP1 PUSH1 0x1 ADD SWAP1 PUSH1 0x20 ADD DUP1 DUP4 GT PUSH2 0x984 JUMPI DUP3 SWAP1 SUB PUSH1 0x1F AND DUP3 ADD SWAP2 JUMPDEST POP POP POP POP POP SWAP1 DUP1 PUSH1 0x1 ADD DUP1 SLOAD PUSH2 0x9B6 SWAP1 PUSH2 0xFB2 JUMP JUMPDEST DUP1 PUSH1 0x1F ADD PUSH1 0x20 DUP1 SWAP2 DIV MUL PUSH1 0x20 ADD PUSH1 0x40 MLOAD SWAP1 DUP2 ADD PUSH1 0x40 MSTORE DUP1 SWAP3 SWAP2 SWAP1 DUP2 DUP2 MSTORE PUSH1 0x20 ADD DUP3 DUP1 SLOAD PUSH2 0x9E2 SWAP1 PUSH2 0xFB2 JUMP JUMPDEST DUP1 ISZERO PUSH2 0xA2F JUMPI DUP1 PUSH1 0x1F LT PUSH2 0xA04 JUMPI PUSH2 0x100 DUP1 DUP4 SLOAD DIV MUL DUP4 MSTORE SWAP2 PUSH1 0x20 ADD SWAP2 PUSH2 0xA2F JUMP JUMPDEST DUP3 ADD SWAP2 SWAP1 PUSH1 0x0 MSTORE PUSH1 0x20 PUSH1 0x0 KECCAK256 SWAP1 JUMPDEST DUP2 SLOAD DUP2 MSTORE SWAP1 PUSH1 0x1 ADD SWAP1 PUSH1 0x20 ADD DUP1 DUP4 GT PUSH2 0xA12 JUMPI DUP3 SWAP1 SUB PUSH1 0x1F AND DUP3 ADD SWAP2 JUMPDEST POP POP POP POP POP SWAP1 DUP1 PUSH1 0x2 ADD SLOAD SWAP1 DUP1 PUSH1 0x3 ADD PUSH1 0x0 SWAP1 SLOAD SWAP1 PUSH2 0x100 EXP SWAP1 DIV PUSH20 0xFFFFFFFFFFFFFFFFFFFFFFFFFFFFFFFFFFFFFFFF AND SWAP1 POP DUP5 JUMP JUMPDEST POP DUP1 SLOAD PUSH2 0xA71 SWAP1 PUSH2 0xFB2 JUMP JUMPDEST PUSH1 0x0 DUP3 SSTORE DUP1 PUSH1 0x1F LT PUSH2 0xA83 JUMPI POP PUSH2 0xAA2 JUMP JUMPDEST PUSH1 0x1F ADD PUSH1 0x20 SWAP1 DIV SWAP1 PUSH1 0x0 MSTORE PUSH1 0x20 PUSH1 0x0 KECCAK256 SWAP1 DUP2 ADD SWAP1 PUSH2 0xAA1 SWAP2 SWAP1 PUSH2 0xAA5 JUMP JUMPDEST JUMPDEST POP JUMP JUMPDEST JUMPDEST DUP1 DUP3 GT ISZERO PUSH2 0xABE JUMPI PUSH1 0x0 DUP2 PUSH1 0x0 SWAP1 SSTORE POP PUSH1 0x1 ADD PUSH2 0xAA6 JUMP JUMPDEST POP SWAP1 JUMP JUMPDEST PUSH1 0x0 PUSH1 0x40 MLOAD SWAP1 POP SWAP1 JUMP JUMPDEST PUSH1 0x0 DUP1 REVERT JUMPDEST PUSH1 0x0 DUP1 REVERT JUMPDEST PUSH1 0x0 DUP1 REVERT JUMPDEST PUSH1 0x0 DUP1 REVERT JUMPDEST PUSH1 0x0 PUSH1 0x1F NOT PUSH1 0x1F DUP4 ADD AND SWAP1 POP SWAP2 SWAP1 POP JUMP JUMPDEST PUSH32 0x4E487B7100000000000000000000000000000000000000000000000000000000 PUSH1 0x0 MSTORE PUSH1 0x41 PUSH1 0x4 MSTORE PUSH1 0x24 PUSH1 0x0 REVERT JUMPDEST PUSH2 0xB29 DUP3 PUSH2 0xAE0 JUMP JUMPDEST DUP2 ADD DUP2 DUP2 LT PUSH8 0xFFFFFFFFFFFFFFFF DUP3 GT OR ISZERO PUSH2 0xB48 JUMPI PUSH2 0xB47 PUSH2 0xAF1 JUMP JUMPDEST JUMPDEST DUP1 PUSH1 0x40 MSTORE POP POP POP JUMP JUMPDEST PUSH1 0x0 PUSH2 0xB5B PUSH2 0xAC2 JUMP JUMPDEST SWAP1 POP PUSH2 0xB67 DUP3 DUP3 PUSH2 0xB20 JUMP JUMPDEST SWAP2 SWAP1 POP JUMP JUMPDEST PUSH1 0x0 PUSH8 0xFFFFFFFFFFFFFFFF DUP3 GT ISZERO PUSH2 0xB87 JUMPI PUSH2 0xB86 PUSH2 0xAF1 JUMP JUMPDEST JUMPDEST PUSH2 0xB90 DUP3 PUSH2 0xAE0 JUMP JUMPDEST SWAP1 POP PUSH1 0x20 DUP2 ADD SWAP1 POP SWAP2 SWAP1 POP JUMP JUMPDEST DUP3 DUP2 DUP4 CALLDATACOPY PUSH1 0x0 DUP4 DUP4 ADD MSTORE POP POP POP JUMP JUMPDEST PUSH1 0x0 PUSH2 0xBBF PUSH2 0xBBA DUP5 PUSH2 0xB6C JUMP JUMPDEST PUSH2 0xB51 JUMP JUMPDEST SWAP1 POP DUP3 DUP2 MSTORE PUSH1 0x20 DUP2 ADD DUP5 DUP5 DUP5 ADD GT ISZERO PUSH2 0xBDB JUMPI PUSH2 0xBDA PUSH2 0xADB JUMP JUMPDEST JUMPDEST PUSH2 0xBE6 DUP5 DUP3 DUP6 PUSH2 0xB9D JUMP JUMPDEST POP SWAP4 SWAP3 POP POP POP JUMP JUMPDEST PUSH1 0x0 DUP3 PUSH1 0x1F DUP4 ADD SLT PUSH2 0xC03 JUMPI PUSH2 0xC02 PUSH2 0xAD6 JUMP JUMPDEST JUMPDEST DUP2 CALLDATALOAD PUSH2 0xC13 DUP5 DUP3 PUSH1 0x20 DUP7 ADD PUSH2 0xBAC JUMP JUMPDEST SWAP2 POP POP SWAP3 SWAP2 POP POP JUMP JUMPDEST PUSH1 0x0 DUP1 PUSH1 0x40 DUP4 DUP6 SUB SLT ISZERO PUSH2 0xC33 JUMPI PUSH2 0xC32 PUSH2 0xACC JUMP JUMPDEST JUMPDEST PUSH1 0x0 DUP4 ADD CALLDATALOAD PUSH8 0xFFFFFFFFFFFFFFFF DUP2 GT ISZERO PUSH2 0xC51 JUMPI PUSH2 0xC50 PUSH2 0xAD1 JUMP JUMPDEST JUMPDEST PUSH2 0xC5D DUP6 DUP3 DUP7 ADD PUSH2 0xBEE JUMP JUMPDEST SWAP3 POP POP PUSH1 0x20 DUP4 ADD CALLDATALOAD PUSH8 0xFFFFFFFFFFFFFFFF DUP2 GT ISZERO PUSH2 0xC7E JUMPI PUSH2 0xC7D PUSH2 0xAD1 JUMP JUMPDEST JUMPDEST PUSH2 0xC8A DUP6 DUP3 DUP7 ADD PUSH2 0xBEE JUMP JUMPDEST SWAP2 POP POP SWAP3 POP SWAP3 SWAP1 POP JUMP JUMPDEST PUSH1 0x0 DUP2 SWAP1 POP SWAP2 SWAP1 POP JUMP JUMPDEST PUSH2 0xCA7 DUP2 PUSH2 0xC94 JUMP JUMPDEST DUP2 EQ PUSH2 0xCB2 JUMPI PUSH1 0x0 DUP1 REVERT JUMPDEST POP JUMP JUMPDEST PUSH1 0x0 DUP2 CALLDATALOAD SWAP1 POP PUSH2 0xCC4 DUP2 PUSH2 0xC9E JUMP JUMPDEST SWAP3 SWAP2 POP POP JUMP JUMPDEST PUSH1 0x0 PUSH1 0x20 DUP3 DUP5 SUB SLT ISZERO PUSH2 0xCE0 JUMPI PUSH2 0xCDF PUSH2 0xACC JUMP JUMPDEST JUMPDEST PUSH1 0x0 PUSH2 0xCEE DUP5 DUP3 DUP6 ADD PUSH2 0xCB5 JUMP JUMPDEST SWAP2 POP POP SWAP3 SWAP2 POP POP JUMP JUMPDEST PUSH1 0x0 PUSH20 0xFFFFFFFFFFFFFFFFFFFFFFFFFFFFFFFFFFFFFFFF DUP3 AND SWAP1 POP SWAP2 SWAP1 POP JUMP JUMPDEST PUSH1 0x0 PUSH2 0xD22 DUP3 PUSH2 0xCF7 JUMP JUMPDEST SWAP1 POP SWAP2 SWAP1 POP JUMP JUMPDEST PUSH2 0xD32 DUP2 PUSH2 0xD17 JUMP JUMPDEST DUP3 MSTORE POP POP JUMP JUMPDEST PUSH1 0x0 PUSH1 0x20 DUP3 ADD SWAP1 POP PUSH2 0xD4D PUSH1 0x0 DUP4 ADD DUP5 PUSH2 0xD29 JUMP JUMPDEST SWAP3 SWAP2 POP POP JUMP JUMPDEST PUSH1 0x0 DUP1 PUSH1 0x40 DUP4 DUP6 SUB SLT ISZERO PUSH2 0xD6A JUMPI PUSH2 0xD69 PUSH2 0xACC JUMP JUMPDEST JUMPDEST PUSH1 0x0 PUSH2 0xD78 DUP6 DUP3 DUP7 ADD PUSH2 0xCB5 JUMP JUMPDEST SWAP3 POP POP PUSH1 0x20 DUP4 ADD CALLDATALOAD PUSH8 0xFFFFFFFFFFFFFFFF DUP2 GT ISZERO PUSH2 0xD99 JUMPI PUSH2 0xD98 PUSH2 0xAD1 JUMP JUMPDEST JUMPDEST PUSH2 0xDA5 DUP6 DUP3 DUP7 ADD PUSH2 0xBEE JUMP JUMPDEST SWAP2 POP POP SWAP3 POP SWAP3 SWAP1 POP JUMP JUMPDEST PUSH1 0x0 DUP2 MLOAD SWAP1 POP SWAP2 SWAP1 POP JUMP JUMPDEST PUSH1 0x0 DUP3 DUP3 MSTORE PUSH1 0x20 DUP3 ADD SWAP1 POP SWAP3 SWAP2 POP POP JUMP JUMPDEST PUSH1 0x0 JUMPDEST DUP4 DUP2 LT ISZERO PUSH2 0xDE9 JUMPI DUP1 DUP3 ADD MLOAD DUP2 DUP5 ADD MSTORE PUSH1 0x20 DUP2 ADD SWAP1 POP PUSH2 0xDCE JUMP JUMPDEST PUSH1 0x0 DUP5 DUP5 ADD MSTORE POP POP POP POP JUMP JUMPDEST PUSH1 0x0 PUSH2 0xE00 DUP3 PUSH2 0xDAF JUMP JUMPDEST PUSH2 0xE0A DUP2 DUP6 PUSH2 0xDBA JUMP JUMPDEST SWAP4 POP PUSH2 0xE1A DUP2 DUP6 PUSH1 0x20 DUP7 ADD PUSH2 0xDCB JUMP JUMPDEST PUSH2 0xE23 DUP2 PUSH2 0xAE0 JUMP JUMPDEST DUP5 ADD SWAP2 POP POP SWAP3 SWAP2 POP POP JUMP JUMPDEST PUSH2 0xE37 DUP2 PUSH2 0xC94 JUMP JUMPDEST DUP3 MSTORE POP POP JUMP JUMPDEST PUSH1 0x0 PUSH1 0x80 DUP3 ADD SWAP1 POP DUP2 DUP2 SUB PUSH1 0x0 DUP4 ADD MSTORE PUSH2 0xE57 DUP2 DUP8 PUSH2 0xDF5 JUMP JUMPDEST SWAP1 POP DUP2 DUP2 SUB PUSH1 0x20 DUP4 ADD MSTORE PUSH2 0xE6B DUP2 DUP7 PUSH2 0xDF5 JUMP JUMPDEST SWAP1 POP PUSH2 0xE7A PUSH1 0x40 DUP4 ADD DUP6 PUSH2 0xE2E JUMP JUMPDEST PUSH2 0xE87 PUSH1 0x60 DUP4 ADD DUP5 PUSH2 0xD29 JUMP JUMPDEST SWAP6 SWAP5 POP POP POP POP POP JUMP JUMPDEST PUSH1 0x0 PUSH1 0x20 DUP3 ADD SWAP1 POP PUSH2 0xEA5 PUSH1 0x0 DUP4 ADD DUP5 PUSH2 0xE2E JUMP JUMPDEST SWAP3 SWAP2 POP POP JUMP JUMPDEST PUSH32 0x5469746C652063616E6E6F7420626520656D7074790000000000000000000000 PUSH1 0x0 DUP3 ADD MSTORE POP JUMP JUMPDEST PUSH1 0x0 PUSH2 0xEE1 PUSH1 0x15 DUP4 PUSH2 0xDBA JUMP JUMPDEST SWAP2 POP PUSH2 0xEEC DUP3 PUSH2 0xEAB JUMP JUMPDEST PUSH1 0x20 DUP3 ADD SWAP1 POP SWAP2 SWAP1 POP JUMP JUMPDEST PUSH1 0x0 PUSH1 0x20 DUP3 ADD SWAP1 POP DUP2 DUP2 SUB PUSH1 0x0 DUP4 ADD MSTORE PUSH2 0xF10 DUP2 PUSH2 0xED4 JUMP JUMPDEST SWAP1 POP SWAP2 SWAP1 POP JUMP JUMPDEST PUSH32 0x436F6E74656E742063616E6E6F7420626520656D707479000000000000000000 PUSH1 0x0 DUP3 ADD MSTORE POP JUMP JUMPDEST PUSH1 0x0 PUSH2 0xF4D PUSH1 0x17 DUP4 PUSH2 0xDBA JUMP JUMPDEST SWAP2 POP PUSH2 0xF58 DUP3 PUSH2 0xF17 JUMP JUMPDEST PUSH1 0x20 DUP3 ADD SWAP1 POP SWAP2 SWAP1 POP JUMP JUMPDEST PUSH1 0x0 PUSH1 0x20 DUP3 ADD SWAP1 POP DUP2 DUP2 SUB PUSH1 0x0 DUP4 ADD MSTORE PUSH2 0xF7C DUP2 PUSH2 0xF40 JUMP JUMPDEST SWAP1 POP SWAP2 SWAP1 POP JUMP JUMPDEST PUSH32 0x4E487B7100000000000000000000000000000000000000000000000000000000 PUSH1 0x0 MSTORE PUSH1 0x22 PUSH1 0x4 MSTORE PUSH1 0x24 PUSH1 0x0 REVERT JUMPDEST PUSH1 0x0 PUSH1 0x2 DUP3 DIV SWAP1 POP PUSH1 0x1 DUP3 AND DUP1 PUSH2 0xFCA JUMPI PUSH1 0x7F DUP3 AND SWAP2 POP JUMPDEST PUSH1 0x20 DUP3 LT DUP2 SUB PUSH2 0xFDD JUMPI PUSH2 0xFDC PUSH2 0xF83 JUMP JUMPDEST JUMPDEST POP SWAP2 SWAP1 POP JUMP JUMPDEST PUSH1 0x0 DUP2 SWAP1 POP DUP2 PUSH1 0x0 MSTORE PUSH1 0x20 PUSH1 0x0 KECCAK256 SWAP1 POP SWAP2 SWAP1 POP JUMP JUMPDEST PUSH1 0x0 PUSH1 0x20 PUSH1 0x1F DUP4 ADD DIV SWAP1 POP SWAP2 SWAP1 POP JUMP JUMPDEST PUSH1 0x0 DUP3 DUP3 SHL SWAP1 POP SWAP3 SWAP2 POP POP JUMP JUMPDEST PUSH1 0x0 PUSH1 0x8 DUP4 MUL PUSH2 0x1045 PUSH32 0xFFFFFFFFFFFFFFFFFFFFFFFFFFFFFFFFFFFFFFFFFFFFFFFFFFFFFFFFFFFFFFFF DUP3 PUSH2 0x1008 JUMP JUMPDEST PUSH2 0x104F DUP7 DUP4 PUSH2 0x1008 JUMP JUMPDEST SWAP6 POP DUP1 NOT DUP5 AND SWAP4 POP DUP1 DUP7 AND DUP5 OR SWAP3 POP POP POP SWAP4 SWAP3 POP POP POP JUMP JUMPDEST PUSH1 0x0 DUP2 SWAP1 POP SWAP2 SWAP1 POP JUMP JUMPDEST PUSH1 0x0 PUSH2 0x108C PUSH2 0x1087 PUSH2 0x1082 DUP5 PUSH2 0xC94 JUMP JUMPDEST PUSH2 0x1067 JUMP JUMPDEST PUSH2 0xC94 JUMP JUMPDEST SWAP1 POP SWAP2 SWAP1 POP JUMP JUMPDEST PUSH1 0x0 DUP2 SWAP1 POP SWAP2 SWAP1 POP JUMP JUMPDEST PUSH2 0x10A6 DUP4 PUSH2 0x1071 JUMP JUMPDEST PUSH2 0x10BA PUSH2 0x10B2 DUP3 PUSH2 0x1093 JUMP JUMPDEST DUP5 DUP5 SLOAD PUSH2 0x1015 JUMP JUMPDEST DUP3 SSTORE POP POP POP POP JUMP JUMPDEST PUSH1 0x0 SWAP1 JUMP JUMPDEST PUSH2 0x10CF PUSH2 0x10C2 JUMP JUMPDEST PUSH2 0x10DA DUP2 DUP5 DUP5 PUSH2 0x109D JUMP JUMPDEST POP POP POP JUMP JUMPDEST JUMPDEST DUP2 DUP2 LT ISZERO PUSH2 0x10FE JUMPI PUSH2 0x10F3 PUSH1 0x0 DUP3 PUSH2 0x10C7 JUMP JUMPDEST PUSH1 0x1 DUP2 ADD SWAP1 POP PUSH2 0x10E0 JUMP JUMPDEST POP POP JUMP JUMPDEST PUSH1 0x1F DUP3 GT ISZERO PUSH2 0x1143 JUMPI PUSH2 0x1114 DUP2 PUSH2 0xFE3 JUMP JUMPDEST PUSH2 0x111D DUP5 PUSH2 0xFF8 JUMP JUMPDEST DUP2 ADD PUSH1 0x20 DUP6 LT ISZERO PUSH2 0x112C JUMPI DUP2 SWAP1 POP JUMPDEST PUSH2 0x1140 PUSH2 0x1138 DUP6 PUSH2 0xFF8 JUMP JUMPDEST DUP4 ADD DUP3 PUSH2 0x10DF JUMP JUMPDEST POP POP JUMPDEST POP POP POP JUMP JUMPDEST PUSH1 0x0 DUP3 DUP3 SHR SWAP1 POP SWAP3 SWAP2 POP POP JUMP JUMPDEST PUSH1 0x0 PUSH2 0x1166 PUSH1 0x0 NOT DUP5 PUSH1 0x8 MUL PUSH2 0x1148 JUMP JUMPDEST NOT DUP1 DUP4 AND SWAP2 POP POP SWAP3 SWAP2 POP POP JUMP JUMPDEST PUSH1 0x0 PUSH2 0x117F DUP4 DUP4 PUSH2 0x1155 JUMP JUMPDEST SWAP2 POP DUP3 PUSH1 0x2 MUL DUP3 OR SWAP1 POP SWAP3 SWAP2 POP POP JUMP JUMPDEST PUSH2 0x1198 DUP3 PUSH2 0xDAF JUMP JUMPDEST PUSH8 0xFFFFFFFFFFFFFFFF DUP2 GT ISZERO PUSH2 0x11B1 JUMPI PUSH2 0x11B0 PUSH2 0xAF1 JUMP JUMPDEST JUMPDEST PUSH2 0x11BB DUP3 SLOAD PUSH2 0xFB2 JUMP JUMPDEST PUSH2 0x11C6 DUP3 DUP3 DUP6 PUSH2 0x1102 JUMP JUMPDEST PUSH1 0x0 PUSH1 0x20 SWAP1 POP PUSH1 0x1F DUP4 GT PUSH1 0x1 DUP2 EQ PUSH2 0x11F9 JUMPI PUSH1 0x0 DUP5 ISZERO PUSH2 0x11E7 JUMPI DUP3 DUP8 ADD MLOAD SWAP1 POP JUMPDEST PUSH2 0x11F1 DUP6 DUP3 PUSH2 0x1173 JUMP JUMPDEST DUP7 SSTORE POP PUSH2 0x1259 JUMP JUMPDEST PUSH1 0x1F NOT DUP5 AND PUSH2 0x1207 DUP7 PUSH2 0xFE3 JUMP JUMPDEST PUSH1 0x0 JUMPDEST DUP3 DUP2 LT ISZERO PUSH2 0x122F JUMPI DUP5 DUP10 ADD MLOAD DUP3 SSTORE PUSH1 0x1 DUP3 ADD SWAP2 POP PUSH1 0x20 DUP6 ADD SWAP5 POP PUSH1 0x20 DUP2 ADD SWAP1 POP PUSH2 0x120A JUMP JUMPDEST DUP7 DUP4 LT ISZERO PUSH2 0x124C JUMPI DUP5 DUP10 ADD MLOAD PUSH2 0x1248 PUSH1 0x1F DUP10 AND DUP3 PUSH2 0x1155 JUMP JUMPDEST DUP4 SSTORE POP JUMPDEST PUSH1 0x1 PUSH1 0x2 DUP9 MUL ADD DUP9 SSTORE POP POP POP JUMPDEST POP POP POP POP POP POP JUMP JUMPDEST PUSH32 0x41727469636C6520646F6573206E6F7420657869737400000000000000000000 PUSH1 0x0 DUP3 ADD MSTORE POP JUMP JUMPDEST PUSH1 0x0 PUSH2 0x1297 PUSH1 0x16 DUP4 PUSH2 0xDBA JUMP JUMPDEST SWAP2 POP PUSH2 0x12A2 DUP3 PUSH2 0x1261 JUMP JUMPDEST PUSH1 0x20 DUP3 ADD SWAP1 POP SWAP2 SWAP1 POP JUMP JUMPDEST PUSH1 0x0 PUSH1 0x20 DUP3 ADD SWAP1 POP DUP2 DUP2 SUB PUSH1 0x0 DUP4 ADD MSTORE PUSH2 0x12C6 DUP2 PUSH2 0x128A JUMP JUMPDEST SWAP1 POP SWAP2 SWAP1 POP JUMP JUMPDEST PUSH32 0x4F6E6C792074686520617574686F722063616E2064656C657465207468652061 PUSH1 0x0 DUP3 ADD MSTORE PUSH32 0x727469636C650000000000000000000000000000000000000000000000000000 PUSH1 0x20 DUP3 ADD MSTORE POP JUMP JUMPDEST PUSH1 0x0 PUSH2 0x1329 PUSH1 0x26 DUP4 PUSH2 0xDBA JUMP JUMPDEST SWAP2 POP PUSH2 0x1334 DUP3 PUSH2 0x12CD JUMP JUMPDEST PUSH1 0x40 DUP3 ADD SWAP1 POP SWAP2 SWAP1 POP JUMP JUMPDEST PUSH1 0x0 PUSH1 0x20 DUP3 ADD SWAP1 POP DUP2 DUP2 SUB PUSH1 0x0 DUP4 ADD MSTORE PUSH2 0x1358 DUP2 PUSH2 0x131C JUMP JUMPDEST SWAP1 POP SWAP2 SWAP1 POP JUMP JUMPDEST PUSH32 0x4E487B7100000000000000000000000000000000000000000000000000000000 PUSH1 0x0 MSTORE PUSH1 0x32 PUSH1 0x4 MSTORE PUSH1 0x24 PUSH1 0x0 REVERT JUMPDEST PUSH32 0x4F6E6C792074686520617574686F722063616E20757064617465207468652061 PUSH1 0x0 DUP3 ADD MSTORE PUSH32 0x727469636C650000000000000000000000000000000000000000000000000000 PUSH1 0x20 DUP3 ADD MSTORE POP JUMP JUMPDEST PUSH1 0x0 PUSH2 0x13EA PUSH1 0x26 DUP4 PUSH2 0xDBA JUMP JUMPDEST SWAP2 POP PUSH2 0x13F5 DUP3 PUSH2 0x138E JUMP JUMPDEST PUSH1 0x40 DUP3 ADD SWAP1 POP SWAP2 SWAP1 POP JUMP JUMPDEST PUSH1 0x0 PUSH1 0x20 DUP3 ADD SWAP1 POP DUP2 DUP2 SUB PUSH1 0x0 DUP4 ADD MSTORE PUSH2 0x1419 DUP2 PUSH2 0x13DD JUMP JUMPDEST SWAP1 POP SWAP2 SWAP1 POP JUMP INVALID LOG2 PUSH5 0x6970667358 0x22 SLT KECCAK256 TIMESTAMP EXP PUSH15 0xEFBE7C303D13B88B51833179E0EB51 DUP12 0xEF PUSH32 0x4845098D9E8A169E3ADB8264736F6C6343000812003300000000000000000000 "
				},
				"gasEstimates": {
					"creation": {
						"codeDepositCost": "1041200",
						"executionCost": "1080",
						"totalCost": "1042280"
					},
					"external": {
						"articleToAuthor(uint256)": "2862",
						"articles(uint256)": "infinite",
						"deleteArticle(uint256)": "infinite",
						"getArticle(uint256)": "infinite",
						"getArticleCount()": "2489",
						"postArticle(string,string)": "infinite",
						"updateArticle(uint256,string)": "infinite"
					}
				},
				"methodIdentifiers": {
					"articleToAuthor(uint256)": "3dd80c33",
					"articles(uint256)": "edcfafe6",
					"deleteArticle(uint256)": "498de8b3",
					"getArticle(uint256)": "bd85d867",
					"getArticleCount()": "e899d5ff",
					"postArticle(string,string)": "2d7e176a",
					"updateArticle(uint256,string)": "8120abed"
				}
			},
			"storageLayout": {
				"storage": [
					{
						"astId": 15,
						"contract": "contracts/C1.sol:ArticleRegistry",
						"label": "articles",
						"offset": 0,
						"slot": "0",
						"type": "t_array(t_struct(Article)11_storage)dyn_storage"
					},
					{
						"astId": 19,
						"contract": "contracts/C1.sol:ArticleRegistry",
						"label": "articleToAuthor",
						"offset": 0,
						"slot": "1",
						"type": "t_mapping(t_uint256,t_address)"
					}
				],
				"types": {
					"t_address": {
						"encoding": "inplace",
						"label": "address",
						"numberOfBytes": "20"
					},
					"t_array(t_struct(Article)11_storage)dyn_storage": {
						"base": "t_struct(Article)11_storage",
						"encoding": "dynamic_array",
						"label": "struct ArticleRegistry.Article[]",
						"numberOfBytes": "32"
					},
					"t_mapping(t_uint256,t_address)": {
						"encoding": "mapping",
						"key": "t_uint256",
						"label": "mapping(uint256 => address)",
						"numberOfBytes": "32",
						"value": "t_address"
					},
					"t_string_storage": {
						"encoding": "bytes",
						"label": "string",
						"numberOfBytes": "32"
					},
					"t_struct(Article)11_storage": {
						"encoding": "inplace",
						"label": "struct ArticleRegistry.Article",
						"members": [
							{
								"astId": 4,
								"contract": "contracts/C1.sol:ArticleRegistry",
								"label": "title",
								"offset": 0,
								"slot": "0",
								"type": "t_string_storage"
							},
							{
								"astId": 6,
								"contract": "contracts/C1.sol:ArticleRegistry",
								"label": "content",
								"offset": 0,
								"slot": "1",
								"type": "t_string_storage"
							},
							{
								"astId": 8,
								"contract": "contracts/C1.sol:ArticleRegistry",
								"label": "timestamp",
								"offset": 0,
								"slot": "2",
								"type": "t_uint256"
							},
							{
								"astId": 10,
								"contract": "contracts/C1.sol:ArticleRegistry",
								"label": "author",
								"offset": 0,
								"slot": "3",
								"type": "t_address"
							}
						],
						"numberOfBytes": "128"
					},
					"t_uint256": {
						"encoding": "inplace",
						"label": "uint256",
						"numberOfBytes": "32"
					}
				}
			},
			"userdoc": {
				"kind": "user",
				"methods": {},
				"version": 1
			}
		}
	}
}