{
	"MyContracts2.sol": {
		"ArticleManagement": {
			"abi": [
				{
					"inputs": [
						{
							"internalType": "string",
							"name": "_title",
							"type": "string"
						},
						{
							"internalType": "string",
							"name": "_content",
							"type": "string"
						}
					],
					"name": "addArticle",
					"outputs": [],
					"stateMutability": "nonpayable",
					"type": "function"
				},
				{
					"inputs": [
						{
							"internalType": "address",
							"name": "user",
							"type": "address"
						}
					],
					"name": "addUser",
					"outputs": [],
					"stateMutability": "nonpayable",
					"type": "function"
				},
				{
					"inputs": [],
					"name": "getUserArticles",
					"outputs": [
						{
							"components": [
								{
									"internalType": "string",
									"name": "title",
									"type": "string"
								},
								{
									"internalType": "string",
									"name": "content",
									"type": "string"
								},
								{
									"internalType": "address",
									"name": "owner",
									"type": "address"
								}
							],
							"internalType": "struct ArticleManagement.Article[]",
							"name": "",
							"type": "tuple[]"
						}
					],
					"stateMutability": "view",
					"type": "function"
				},
				{
					"inputs": [
						{
							"internalType": "address",
							"name": "user",
							"type": "address"
						}
					],
					"name": "isUserEligible",
					"outputs": [
						{
							"internalType": "bool",
							"name": "",
							"type": "bool"
						}
					],
					"stateMutability": "view",
					"type": "function"
				},
				{
					"inputs": [
						{
							"internalType": "address",
							"name": "user",
							"type": "address"
						}
					],
					"name": "removeUser",
					"outputs": [],
					"stateMutability": "nonpayable",
					"type": "function"
				}
			],
			"devdoc": {
				"custom:dev-run-script": "MyContracts2.sol",
				"details": "ContractDescription",
				"kind": "dev",
				"methods": {},
				"title": "ContractName",
				"version": 1
			},
			"evm": {
				"assembly": "    /* \"MyContracts2.sol\":2629:3711  contract ArticleManagement {... */\n  mstore(0x40, 0x80)\n  callvalue\n  dup1\n  iszero\n  tag_1\n  jumpi\n  0x00\n  dup1\n  revert\ntag_1:\n  pop\n  dataSize(sub_0)\n  dup1\n  dataOffset(sub_0)\n  0x00\n  codecopy\n  0x00\n  return\nstop\n\nsub_0: assembly {\n        /* \"MyContracts2.sol\":2629:3711  contract ArticleManagement {... */\n      mstore(0x40, 0x80)\n      callvalue\n      dup1\n      iszero\n      tag_1\n      jumpi\n      0x00\n      dup1\n      revert\n    tag_1:\n      pop\n      jumpi(tag_2, lt(calldatasize, 0x04))\n      shr(0xe0, calldataload(0x00))\n      dup1\n      0x421b2d8b\n      eq\n      tag_3\n      jumpi\n      dup1\n      0x6ec67ec9\n      eq\n      tag_4\n      jumpi\n      dup1\n      0x8568e259\n      eq\n      tag_5\n      jumpi\n      dup1\n      0x879df1f3\n      eq\n      tag_6\n      jumpi\n      dup1\n      0x98575188\n      eq\n      tag_7\n      jumpi\n    tag_2:\n      0x00\n      dup1\n      revert\n        /* \"MyContracts2.sol\":3412:3495  function addUser(address user) public {... */\n    tag_3:\n      tag_8\n      0x04\n      dup1\n      calldatasize\n      sub\n      dup2\n      add\n      swap1\n      tag_9\n      swap2\n      swap1\n      tag_10\n      jump\t// in\n    tag_9:\n      tag_11\n      jump\t// in\n    tag_8:\n      stop\n        /* \"MyContracts2.sol\":3028:3280  function addArticle(string memory _title, string memory _content) public onlyEligibleUser {... */\n    tag_4:\n      tag_12\n      0x04\n      dup1\n      calldatasize\n      sub\n      dup2\n      add\n      swap1\n      tag_13\n      swap2\n      swap1\n      tag_14\n      jump\t// in\n    tag_13:\n      tag_15\n      jump\t// in\n    tag_12:\n      stop\n        /* \"MyContracts2.sol\":3288:3404  function getUserArticles() public view returns (Article[] memory) {... */\n    tag_5:\n      tag_16\n      tag_17\n      jump\t// in\n    tag_16:\n      mload(0x40)\n      tag_18\n      swap2\n      swap1\n      tag_19\n      jump\t// in\n    tag_18:\n      mload(0x40)\n      dup1\n      swap2\n      sub\n      swap1\n      return\n        /* \"MyContracts2.sol\":3598:3708  function isUserEligible(address user) public view returns (bool) {... */\n    tag_6:\n      tag_20\n      0x04\n      dup1\n      calldatasize\n      sub\n      dup2\n      add\n      swap1\n      tag_21\n      swap2\n      swap1\n      tag_10\n      jump\t// in\n    tag_21:\n      tag_22\n      jump\t// in\n    tag_20:\n      mload(0x40)\n      tag_23\n      swap2\n      swap1\n      tag_24\n      jump\t// in\n    tag_23:\n      mload(0x40)\n      dup1\n      swap2\n      sub\n      swap1\n      return\n        /* \"MyContracts2.sol\":3503:3590  function removeUser(address user) public {... */\n    tag_7:\n      tag_25\n      0x04\n      dup1\n      calldatasize\n      sub\n      dup2\n      add\n      swap1\n      tag_26\n      swap2\n      swap1\n      tag_10\n      jump\t// in\n    tag_26:\n      tag_27\n      jump\t// in\n    tag_25:\n      stop\n        /* \"MyContracts2.sol\":3412:3495  function addUser(address user) public {... */\n    tag_11:\n        /* \"MyContracts2.sol\":3483:3487  true */\n      0x01\n        /* \"MyContracts2.sol\":3461:3474  eligibleUsers */\n      dup1\n        /* \"MyContracts2.sol\":3461:3480  eligibleUsers[user] */\n      0x00\n        /* \"MyContracts2.sol\":3475:3479  user */\n      dup4\n        /* \"MyContracts2.sol\":3461:3480  eligibleUsers[user] */\n      0xffffffffffffffffffffffffffffffffffffffff\n      and\n      0xffffffffffffffffffffffffffffffffffffffff\n      and\n      dup2\n      mstore\n      0x20\n      add\n      swap1\n      dup2\n      mstore\n      0x20\n      add\n      0x00\n      keccak256\n      0x00\n        /* \"MyContracts2.sol\":3461:3487  eligibleUsers[user] = true */\n      0x0100\n      exp\n      dup2\n      sload\n      dup2\n      0xff\n      mul\n      not\n      and\n      swap1\n      dup4\n      iszero\n      iszero\n      mul\n      or\n      swap1\n      sstore\n      pop\n        /* \"MyContracts2.sol\":3412:3495  function addUser(address user) public {... */\n      pop\n      jump\t// out\n        /* \"MyContracts2.sol\":3028:3280  function addArticle(string memory _title, string memory _content) public onlyEligibleUser {... */\n    tag_15:\n        /* \"MyContracts2.sol\":2927:2940  eligibleUsers */\n      0x01\n        /* \"MyContracts2.sol\":2927:2952  eligibleUsers[msg.sender] */\n      0x00\n        /* \"MyContracts2.sol\":2941:2951  msg.sender */\n      caller\n        /* \"MyContracts2.sol\":2927:2952  eligibleUsers[msg.sender] */\n      0xffffffffffffffffffffffffffffffffffffffff\n      and\n      0xffffffffffffffffffffffffffffffffffffffff\n      and\n      dup2\n      mstore\n      0x20\n      add\n      swap1\n      dup2\n      mstore\n      0x20\n      add\n      0x00\n      keccak256\n      0x00\n      swap1\n      sload\n      swap1\n      0x0100\n      exp\n      swap1\n      div\n      0xff\n      and\n        /* \"MyContracts2.sol\":2919:3000  require(eligibleUsers[msg.sender], \"Only eligible users can perform this action\") */\n      tag_30\n      jumpi\n      mload(0x40)\n      0x08c379a000000000000000000000000000000000000000000000000000000000\n      dup2\n      mstore\n      0x04\n      add\n      tag_31\n      swap1\n      tag_32\n      jump\t// in\n    tag_31:\n      mload(0x40)\n      dup1\n      swap2\n      sub\n      swap1\n      revert\n    tag_30:\n        /* \"MyContracts2.sol\":3129:3141  userArticles */\n      0x00\n        /* \"MyContracts2.sol\":3129:3153  userArticles[msg.sender] */\n      dup1\n        /* \"MyContracts2.sol\":3142:3152  msg.sender */\n      caller\n        /* \"MyContracts2.sol\":3129:3153  userArticles[msg.sender] */\n      0xffffffffffffffffffffffffffffffffffffffff\n      and\n      0xffffffffffffffffffffffffffffffffffffffff\n      and\n      dup2\n      mstore\n      0x20\n      add\n      swap1\n      dup2\n      mstore\n      0x20\n      add\n      0x00\n      keccak256\n        /* \"MyContracts2.sol\":3159:3271  Article({... */\n      mload(0x40)\n      dup1\n      0x60\n      add\n      0x40\n      mstore\n      dup1\n        /* \"MyContracts2.sol\":3189:3195  _title */\n      dup5\n        /* \"MyContracts2.sol\":3159:3271  Article({... */\n      dup2\n      mstore\n      0x20\n      add\n        /* \"MyContracts2.sol\":3219:3227  _content */\n      dup4\n        /* \"MyContracts2.sol\":3159:3271  Article({... */\n      dup2\n      mstore\n      0x20\n      add\n        /* \"MyContracts2.sol\":3249:3259  msg.sender */\n      caller\n        /* \"MyContracts2.sol\":3159:3271  Article({... */\n      0xffffffffffffffffffffffffffffffffffffffff\n      and\n      dup2\n      mstore\n      pop\n        /* \"MyContracts2.sol\":3129:3272  userArticles[msg.sender].push(Article({... */\n      swap1\n      dup1\n      0x01\n      dup2\n      sload\n      add\n      dup1\n      dup3\n      sstore\n      dup1\n      swap2\n      pop\n      pop\n      0x01\n      swap1\n      sub\n      swap1\n      0x00\n      mstore\n      keccak256(0x00, 0x20)\n      swap1\n      0x03\n      mul\n      add\n      0x00\n      swap1\n      swap2\n      swap1\n      swap2\n      swap1\n      swap2\n      pop\n      0x00\n      dup3\n      add\n      mload\n      dup2\n      0x00\n      add\n      swap1\n      dup2\n      tag_35\n      swap2\n      swap1\n      tag_36\n      jump\t// in\n    tag_35:\n      pop\n      0x20\n      dup3\n      add\n      mload\n      dup2\n      0x01\n      add\n      swap1\n      dup2\n      tag_37\n      swap2\n      swap1\n      tag_36\n      jump\t// in\n    tag_37:\n      pop\n      0x40\n      dup3\n      add\n      mload\n      dup2\n      0x02\n      add\n      exp(0x0100, 0x00)\n      dup2\n      sload\n      dup2\n      0xffffffffffffffffffffffffffffffffffffffff\n      mul\n      not\n      and\n      swap1\n      dup4\n      0xffffffffffffffffffffffffffffffffffffffff\n      and\n      mul\n      or\n      swap1\n      sstore\n      pop\n      pop\n      pop\n        /* \"MyContracts2.sol\":3028:3280  function addArticle(string memory _title, string memory _content) public onlyEligibleUser {... */\n      pop\n      pop\n      jump\t// out\n        /* \"MyContracts2.sol\":3288:3404  function getUserArticles() public view returns (Article[] memory) {... */\n    tag_17:\n        /* \"MyContracts2.sol\":3336:3352  Article[] memory */\n      0x60\n        /* \"MyContracts2.sol\":3372:3384  userArticles */\n      0x00\n        /* \"MyContracts2.sol\":3372:3396  userArticles[msg.sender] */\n      dup1\n        /* \"MyContracts2.sol\":3385:3395  msg.sender */\n      caller\n        /* \"MyContracts2.sol\":3372:3396  userArticles[msg.sender] */\n      0xffffffffffffffffffffffffffffffffffffffff\n      and\n      0xffffffffffffffffffffffffffffffffffffffff\n      and\n      dup2\n      mstore\n      0x20\n      add\n      swap1\n      dup2\n      mstore\n      0x20\n      add\n      0x00\n      keccak256\n        /* \"MyContracts2.sol\":3365:3396  return userArticles[msg.sender] */\n      dup1\n      sload\n      dup1\n      0x20\n      mul\n      0x20\n      add\n      mload(0x40)\n      swap1\n      dup2\n      add\n      0x40\n      mstore\n      dup1\n      swap3\n      swap2\n      swap1\n      dup2\n      dup2\n      mstore\n      0x20\n      add\n      0x00\n      swap1\n    tag_39:\n      dup3\n      dup3\n      lt\n      iszero\n      tag_40\n      jumpi\n      dup4\n      dup3\n      swap1\n      0x00\n      mstore\n      keccak256(0x00, 0x20)\n      swap1\n      0x03\n      mul\n      add\n      mload(0x40)\n      dup1\n      0x60\n      add\n      0x40\n      mstore\n      swap1\n      dup2\n      0x00\n      dup3\n      add\n      dup1\n      sload\n      tag_42\n      swap1\n      tag_43\n      jump\t// in\n    tag_42:\n      dup1\n      0x1f\n      add\n      0x20\n      dup1\n      swap2\n      div\n      mul\n      0x20\n      add\n      mload(0x40)\n      swap1\n      dup2\n      add\n      0x40\n      mstore\n      dup1\n      swap3\n      swap2\n      swap1\n      dup2\n      dup2\n      mstore\n      0x20\n      add\n      dup3\n      dup1\n      sload\n      tag_44\n      swap1\n      tag_43\n      jump\t// in\n    tag_44:\n      dup1\n      iszero\n      tag_45\n      jumpi\n      dup1\n      0x1f\n      lt\n      tag_46\n      jumpi\n      0x0100\n      dup1\n      dup4\n      sload\n      div\n      mul\n      dup4\n      mstore\n      swap2\n      0x20\n      add\n      swap2\n      jump(tag_45)\n    tag_46:\n      dup3\n      add\n      swap2\n      swap1\n      0x00\n      mstore\n      keccak256(0x00, 0x20)\n      swap1\n    tag_47:\n      dup2\n      sload\n      dup2\n      mstore\n      swap1\n      0x01\n      add\n      swap1\n      0x20\n      add\n      dup1\n      dup4\n      gt\n      tag_47\n      jumpi\n      dup3\n      swap1\n      sub\n      0x1f\n      and\n      dup3\n      add\n      swap2\n    tag_45:\n      pop\n      pop\n      pop\n      pop\n      pop\n      dup2\n      mstore\n      0x20\n      add\n      0x01\n      dup3\n      add\n      dup1\n      sload\n      tag_48\n      swap1\n      tag_43\n      jump\t// in\n    tag_48:\n      dup1\n      0x1f\n      add\n      0x20\n      dup1\n      swap2\n      div\n      mul\n      0x20\n      add\n      mload(0x40)\n      swap1\n      dup2\n      add\n      0x40\n      mstore\n      dup1\n      swap3\n      swap2\n      swap1\n      dup2\n      dup2\n      mstore\n      0x20\n      add\n      dup3\n      dup1\n      sload\n      tag_49\n      swap1\n      tag_43\n      jump\t// in\n    tag_49:\n      dup1\n      iszero\n      tag_50\n      jumpi\n      dup1\n      0x1f\n      lt\n      tag_51\n      jumpi\n      0x0100\n      dup1\n      dup4\n      sload\n      div\n      mul\n      dup4\n      mstore\n      swap2\n      0x20\n      add\n      swap2\n      jump(tag_50)\n    tag_51:\n      dup3\n      add\n      swap2\n      swap1\n      0x00\n      mstore\n      keccak256(0x00, 0x20)\n      swap1\n    tag_52:\n      dup2\n      sload\n      dup2\n      mstore\n      swap1\n      0x01\n      add\n      swap1\n      0x20\n      add\n      dup1\n      dup4\n      gt\n      tag_52\n      jumpi\n      dup3\n      swap1\n      sub\n      0x1f\n      and\n      dup3\n      add\n      swap2\n    tag_50:\n      pop\n      pop\n      pop\n      pop\n      pop\n      dup2\n      mstore\n      0x20\n      add\n      0x02\n      dup3\n      add\n      0x00\n      swap1\n      sload\n      swap1\n      0x0100\n      exp\n      swap1\n      div\n      0xffffffffffffffffffffffffffffffffffffffff\n      and\n      0xffffffffffffffffffffffffffffffffffffffff\n      and\n      0xffffffffffffffffffffffffffffffffffffffff\n      and\n      dup2\n      mstore\n      pop\n      pop\n      dup2\n      mstore\n      0x20\n      add\n      swap1\n      0x01\n      add\n      swap1\n      jump(tag_39)\n    tag_40:\n      pop\n      pop\n      pop\n      pop\n      swap1\n      pop\n        /* \"MyContracts2.sol\":3288:3404  function getUserArticles() public view returns (Article[] memory) {... */\n      swap1\n      jump\t// out\n        /* \"MyContracts2.sol\":3598:3708  function isUserEligible(address user) public view returns (bool) {... */\n    tag_22:\n        /* \"MyContracts2.sol\":3657:3661  bool */\n      0x00\n        /* \"MyContracts2.sol\":3681:3694  eligibleUsers */\n      0x01\n        /* \"MyContracts2.sol\":3681:3700  eligibleUsers[user] */\n      0x00\n        /* \"MyContracts2.sol\":3695:3699  user */\n      dup4\n        /* \"MyContracts2.sol\":3681:3700  eligibleUsers[user] */\n      0xffffffffffffffffffffffffffffffffffffffff\n      and\n      0xffffffffffffffffffffffffffffffffffffffff\n      and\n      dup2\n      mstore\n      0x20\n      add\n      swap1\n      dup2\n      mstore\n      0x20\n      add\n      0x00\n      keccak256\n      0x00\n      swap1\n      sload\n      swap1\n      0x0100\n      exp\n      swap1\n      div\n      0xff\n      and\n        /* \"MyContracts2.sol\":3674:3700  return eligibleUsers[user] */\n      swap1\n      pop\n        /* \"MyContracts2.sol\":3598:3708  function isUserEligible(address user) public view returns (bool) {... */\n      swap2\n      swap1\n      pop\n      jump\t// out\n        /* \"MyContracts2.sol\":3503:3590  function removeUser(address user) public {... */\n    tag_27:\n        /* \"MyContracts2.sol\":3577:3582  false */\n      0x00\n        /* \"MyContracts2.sol\":3555:3568  eligibleUsers */\n      0x01\n        /* \"MyContracts2.sol\":3555:3574  eligibleUsers[user] */\n      0x00\n        /* \"MyContracts2.sol\":3569:3573  user */\n      dup4\n        /* \"MyContracts2.sol\":3555:3574  eligibleUsers[user] */\n      0xffffffffffffffffffffffffffffffffffffffff\n      and\n      0xffffffffffffffffffffffffffffffffffffffff\n      and\n      dup2\n      mstore\n      0x20\n      add\n      swap1\n      dup2\n      mstore\n      0x20\n      add\n      0x00\n      keccak256\n      0x00\n        /* \"MyContracts2.sol\":3555:3582  eligibleUsers[user] = false */\n      0x0100\n      exp\n      dup2\n      sload\n      dup2\n      0xff\n      mul\n      not\n      and\n      swap1\n      dup4\n      iszero\n      iszero\n      mul\n      or\n      swap1\n      sstore\n      pop\n        /* \"MyContracts2.sol\":3503:3590  function removeUser(address user) public {... */\n      pop\n      jump\t// out\n        /* \"#utility.yul\":7:82   */\n    tag_55:\n        /* \"#utility.yul\":40:46   */\n      0x00\n        /* \"#utility.yul\":73:75   */\n      0x40\n        /* \"#utility.yul\":67:76   */\n      mload\n        /* \"#utility.yul\":57:76   */\n      swap1\n      pop\n        /* \"#utility.yul\":7:82   */\n      swap1\n      jump\t// out\n        /* \"#utility.yul\":88:205   */\n    tag_56:\n        /* \"#utility.yul\":197:198   */\n      0x00\n        /* \"#utility.yul\":194:195   */\n      dup1\n        /* \"#utility.yul\":187:199   */\n      revert\n        /* \"#utility.yul\":211:328   */\n    tag_57:\n        /* \"#utility.yul\":320:321   */\n      0x00\n        /* \"#utility.yul\":317:318   */\n      dup1\n        /* \"#utility.yul\":310:322   */\n      revert\n        /* \"#utility.yul\":334:460   */\n    tag_58:\n        /* \"#utility.yul\":371:378   */\n      0x00\n        /* \"#utility.yul\":411:453   */\n      0xffffffffffffffffffffffffffffffffffffffff\n        /* \"#utility.yul\":404:409   */\n      dup3\n        /* \"#utility.yul\":400:454   */\n      and\n        /* \"#utility.yul\":389:454   */\n      swap1\n      pop\n        /* \"#utility.yul\":334:460   */\n      swap2\n      swap1\n      pop\n      jump\t// out\n        /* \"#utility.yul\":466:562   */\n    tag_59:\n        /* \"#utility.yul\":503:510   */\n      0x00\n        /* \"#utility.yul\":532:556   */\n      tag_112\n        /* \"#utility.yul\":550:555   */\n      dup3\n        /* \"#utility.yul\":532:556   */\n      tag_58\n      jump\t// in\n    tag_112:\n        /* \"#utility.yul\":521:556   */\n      swap1\n      pop\n        /* \"#utility.yul\":466:562   */\n      swap2\n      swap1\n      pop\n      jump\t// out\n        /* \"#utility.yul\":568:690   */\n    tag_60:\n        /* \"#utility.yul\":641:665   */\n      tag_114\n        /* \"#utility.yul\":659:664   */\n      dup2\n        /* \"#utility.yul\":641:665   */\n      tag_59\n      jump\t// in\n    tag_114:\n        /* \"#utility.yul\":634:639   */\n      dup2\n        /* \"#utility.yul\":631:666   */\n      eq\n        /* \"#utility.yul\":621:684   */\n      tag_115\n      jumpi\n        /* \"#utility.yul\":680:681   */\n      0x00\n        /* \"#utility.yul\":677:678   */\n      dup1\n        /* \"#utility.yul\":670:682   */\n      revert\n        /* \"#utility.yul\":621:684   */\n    tag_115:\n        /* \"#utility.yul\":568:690   */\n      pop\n      jump\t// out\n        /* \"#utility.yul\":696:835   */\n    tag_61:\n        /* \"#utility.yul\":742:747   */\n      0x00\n        /* \"#utility.yul\":780:786   */\n      dup2\n        /* \"#utility.yul\":767:787   */\n      calldataload\n        /* \"#utility.yul\":758:787   */\n      swap1\n      pop\n        /* \"#utility.yul\":796:829   */\n      tag_117\n        /* \"#utility.yul\":823:828   */\n      dup2\n        /* \"#utility.yul\":796:829   */\n      tag_60\n      jump\t// in\n    tag_117:\n        /* \"#utility.yul\":696:835   */\n      swap3\n      swap2\n      pop\n      pop\n      jump\t// out\n        /* \"#utility.yul\":841:1170   */\n    tag_10:\n        /* \"#utility.yul\":900:906   */\n      0x00\n        /* \"#utility.yul\":949:951   */\n      0x20\n        /* \"#utility.yul\":937:946   */\n      dup3\n        /* \"#utility.yul\":928:935   */\n      dup5\n        /* \"#utility.yul\":924:947   */\n      sub\n        /* \"#utility.yul\":920:952   */\n      slt\n        /* \"#utility.yul\":917:1036   */\n      iszero\n      tag_119\n      jumpi\n        /* \"#utility.yul\":955:1034   */\n      tag_120\n      tag_56\n      jump\t// in\n    tag_120:\n        /* \"#utility.yul\":917:1036   */\n    tag_119:\n        /* \"#utility.yul\":1075:1076   */\n      0x00\n        /* \"#utility.yul\":1100:1153   */\n      tag_121\n        /* \"#utility.yul\":1145:1152   */\n      dup5\n        /* \"#utility.yul\":1136:1142   */\n      dup3\n        /* \"#utility.yul\":1125:1134   */\n      dup6\n        /* \"#utility.yul\":1121:1143   */\n      add\n        /* \"#utility.yul\":1100:1153   */\n      tag_61\n      jump\t// in\n    tag_121:\n        /* \"#utility.yul\":1090:1153   */\n      swap2\n      pop\n        /* \"#utility.yul\":1046:1163   */\n      pop\n        /* \"#utility.yul\":841:1170   */\n      swap3\n      swap2\n      pop\n      pop\n      jump\t// out\n        /* \"#utility.yul\":1176:1293   */\n    tag_62:\n        /* \"#utility.yul\":1285:1286   */\n      0x00\n        /* \"#utility.yul\":1282:1283   */\n      dup1\n        /* \"#utility.yul\":1275:1287   */\n      revert\n        /* \"#utility.yul\":1299:1416   */\n    tag_63:\n        /* \"#utility.yul\":1408:1409   */\n      0x00\n        /* \"#utility.yul\":1405:1406   */\n      dup1\n        /* \"#utility.yul\":1398:1410   */\n      revert\n        /* \"#utility.yul\":1422:1524   */\n    tag_64:\n        /* \"#utility.yul\":1463:1469   */\n      0x00\n        /* \"#utility.yul\":1514:1516   */\n      0x1f\n        /* \"#utility.yul\":1510:1517   */\n      not\n        /* \"#utility.yul\":1505:1507   */\n      0x1f\n        /* \"#utility.yul\":1498:1503   */\n      dup4\n        /* \"#utility.yul\":1494:1508   */\n      add\n        /* \"#utility.yul\":1490:1518   */\n      and\n        /* \"#utility.yul\":1480:1518   */\n      swap1\n      pop\n        /* \"#utility.yul\":1422:1524   */\n      swap2\n      swap1\n      pop\n      jump\t// out\n        /* \"#utility.yul\":1530:1710   */\n    tag_65:\n        /* \"#utility.yul\":1578:1655   */\n      0x4e487b7100000000000000000000000000000000000000000000000000000000\n        /* \"#utility.yul\":1575:1576   */\n      0x00\n        /* \"#utility.yul\":1568:1656   */\n      mstore\n        /* \"#utility.yul\":1675:1679   */\n      0x41\n        /* \"#utility.yul\":1672:1673   */\n      0x04\n        /* \"#utility.yul\":1665:1680   */\n      mstore\n        /* \"#utility.yul\":1699:1703   */\n      0x24\n        /* \"#utility.yul\":1696:1697   */\n      0x00\n        /* \"#utility.yul\":1689:1704   */\n      revert\n        /* \"#utility.yul\":1716:1997   */\n    tag_66:\n        /* \"#utility.yul\":1799:1826   */\n      tag_127\n        /* \"#utility.yul\":1821:1825   */\n      dup3\n        /* \"#utility.yul\":1799:1826   */\n      tag_64\n      jump\t// in\n    tag_127:\n        /* \"#utility.yul\":1791:1797   */\n      dup2\n        /* \"#utility.yul\":1787:1827   */\n      add\n        /* \"#utility.yul\":1929:1935   */\n      dup2\n        /* \"#utility.yul\":1917:1927   */\n      dup2\n        /* \"#utility.yul\":1914:1936   */\n      lt\n        /* \"#utility.yul\":1893:1911   */\n      0xffffffffffffffff\n        /* \"#utility.yul\":1881:1891   */\n      dup3\n        /* \"#utility.yul\":1878:1912   */\n      gt\n        /* \"#utility.yul\":1875:1937   */\n      or\n        /* \"#utility.yul\":1872:1960   */\n      iszero\n      tag_128\n      jumpi\n        /* \"#utility.yul\":1940:1958   */\n      tag_129\n      tag_65\n      jump\t// in\n    tag_129:\n        /* \"#utility.yul\":1872:1960   */\n    tag_128:\n        /* \"#utility.yul\":1980:1990   */\n      dup1\n        /* \"#utility.yul\":1976:1978   */\n      0x40\n        /* \"#utility.yul\":1969:1991   */\n      mstore\n        /* \"#utility.yul\":1759:1997   */\n      pop\n        /* \"#utility.yul\":1716:1997   */\n      pop\n      pop\n      jump\t// out\n        /* \"#utility.yul\":2003:2132   */\n    tag_67:\n        /* \"#utility.yul\":2037:2043   */\n      0x00\n        /* \"#utility.yul\":2064:2084   */\n      tag_131\n      tag_55\n      jump\t// in\n    tag_131:\n        /* \"#utility.yul\":2054:2084   */\n      swap1\n      pop\n        /* \"#utility.yul\":2093:2126   */\n      tag_132\n        /* \"#utility.yul\":2121:2125   */\n      dup3\n        /* \"#utility.yul\":2113:2119   */\n      dup3\n        /* \"#utility.yul\":2093:2126   */\n      tag_66\n      jump\t// in\n    tag_132:\n        /* \"#utility.yul\":2003:2132   */\n      swap2\n      swap1\n      pop\n      jump\t// out\n        /* \"#utility.yul\":2138:2446   */\n    tag_68:\n        /* \"#utility.yul\":2200:2204   */\n      0x00\n        /* \"#utility.yul\":2290:2308   */\n      0xffffffffffffffff\n        /* \"#utility.yul\":2282:2288   */\n      dup3\n        /* \"#utility.yul\":2279:2309   */\n      gt\n        /* \"#utility.yul\":2276:2332   */\n      iszero\n      tag_134\n      jumpi\n        /* \"#utility.yul\":2312:2330   */\n      tag_135\n      tag_65\n      jump\t// in\n    tag_135:\n        /* \"#utility.yul\":2276:2332   */\n    tag_134:\n        /* \"#utility.yul\":2350:2379   */\n      tag_136\n        /* \"#utility.yul\":2372:2378   */\n      dup3\n        /* \"#utility.yul\":2350:2379   */\n      tag_64\n      jump\t// in\n    tag_136:\n        /* \"#utility.yul\":2342:2379   */\n      swap1\n      pop\n        /* \"#utility.yul\":2434:2438   */\n      0x20\n        /* \"#utility.yul\":2428:2432   */\n      dup2\n        /* \"#utility.yul\":2424:2439   */\n      add\n        /* \"#utility.yul\":2416:2439   */\n      swap1\n      pop\n        /* \"#utility.yul\":2138:2446   */\n      swap2\n      swap1\n      pop\n      jump\t// out\n        /* \"#utility.yul\":2452:2598   */\n    tag_69:\n        /* \"#utility.yul\":2549:2555   */\n      dup3\n        /* \"#utility.yul\":2544:2547   */\n      dup2\n        /* \"#utility.yul\":2539:2542   */\n      dup4\n        /* \"#utility.yul\":2526:2556   */\n      calldatacopy\n        /* \"#utility.yul\":2590:2591   */\n      0x00\n        /* \"#utility.yul\":2581:2587   */\n      dup4\n        /* \"#utility.yul\":2576:2579   */\n      dup4\n        /* \"#utility.yul\":2572:2588   */\n      add\n        /* \"#utility.yul\":2565:2592   */\n      mstore\n        /* \"#utility.yul\":2452:2598   */\n      pop\n      pop\n      pop\n      jump\t// out\n        /* \"#utility.yul\":2604:3029   */\n    tag_70:\n        /* \"#utility.yul\":2682:2687   */\n      0x00\n        /* \"#utility.yul\":2707:2773   */\n      tag_139\n        /* \"#utility.yul\":2723:2772   */\n      tag_140\n        /* \"#utility.yul\":2765:2771   */\n      dup5\n        /* \"#utility.yul\":2723:2772   */\n      tag_68\n      jump\t// in\n    tag_140:\n        /* \"#utility.yul\":2707:2773   */\n      tag_67\n      jump\t// in\n    tag_139:\n        /* \"#utility.yul\":2698:2773   */\n      swap1\n      pop\n        /* \"#utility.yul\":2796:2802   */\n      dup3\n        /* \"#utility.yul\":2789:2794   */\n      dup2\n        /* \"#utility.yul\":2782:2803   */\n      mstore\n        /* \"#utility.yul\":2834:2838   */\n      0x20\n        /* \"#utility.yul\":2827:2832   */\n      dup2\n        /* \"#utility.yul\":2823:2839   */\n      add\n        /* \"#utility.yul\":2872:2875   */\n      dup5\n        /* \"#utility.yul\":2863:2869   */\n      dup5\n        /* \"#utility.yul\":2858:2861   */\n      dup5\n        /* \"#utility.yul\":2854:2870   */\n      add\n        /* \"#utility.yul\":2851:2876   */\n      gt\n        /* \"#utility.yul\":2848:2960   */\n      iszero\n      tag_141\n      jumpi\n        /* \"#utility.yul\":2879:2958   */\n      tag_142\n      tag_63\n      jump\t// in\n    tag_142:\n        /* \"#utility.yul\":2848:2960   */\n    tag_141:\n        /* \"#utility.yul\":2969:3023   */\n      tag_143\n        /* \"#utility.yul\":3016:3022   */\n      dup5\n        /* \"#utility.yul\":3011:3014   */\n      dup3\n        /* \"#utility.yul\":3006:3009   */\n      dup6\n        /* \"#utility.yul\":2969:3023   */\n      tag_69\n      jump\t// in\n    tag_143:\n        /* \"#utility.yul\":2688:3029   */\n      pop\n        /* \"#utility.yul\":2604:3029   */\n      swap4\n      swap3\n      pop\n      pop\n      pop\n      jump\t// out\n        /* \"#utility.yul\":3049:3389   */\n    tag_71:\n        /* \"#utility.yul\":3105:3110   */\n      0x00\n        /* \"#utility.yul\":3154:3157   */\n      dup3\n        /* \"#utility.yul\":3147:3151   */\n      0x1f\n        /* \"#utility.yul\":3139:3145   */\n      dup4\n        /* \"#utility.yul\":3135:3152   */\n      add\n        /* \"#utility.yul\":3131:3158   */\n      slt\n        /* \"#utility.yul\":3121:3243   */\n      tag_145\n      jumpi\n        /* \"#utility.yul\":3162:3241   */\n      tag_146\n      tag_62\n      jump\t// in\n    tag_146:\n        /* \"#utility.yul\":3121:3243   */\n    tag_145:\n        /* \"#utility.yul\":3279:3285   */\n      dup2\n        /* \"#utility.yul\":3266:3286   */\n      calldataload\n        /* \"#utility.yul\":3304:3383   */\n      tag_147\n        /* \"#utility.yul\":3379:3382   */\n      dup5\n        /* \"#utility.yul\":3371:3377   */\n      dup3\n        /* \"#utility.yul\":3364:3368   */\n      0x20\n        /* \"#utility.yul\":3356:3362   */\n      dup7\n        /* \"#utility.yul\":3352:3369   */\n      add\n        /* \"#utility.yul\":3304:3383   */\n      tag_70\n      jump\t// in\n    tag_147:\n        /* \"#utility.yul\":3295:3383   */\n      swap2\n      pop\n        /* \"#utility.yul\":3111:3389   */\n      pop\n        /* \"#utility.yul\":3049:3389   */\n      swap3\n      swap2\n      pop\n      pop\n      jump\t// out\n        /* \"#utility.yul\":3395:4229   */\n    tag_14:\n        /* \"#utility.yul\":3483:3489   */\n      0x00\n        /* \"#utility.yul\":3491:3497   */\n      dup1\n        /* \"#utility.yul\":3540:3542   */\n      0x40\n        /* \"#utility.yul\":3528:3537   */\n      dup4\n        /* \"#utility.yul\":3519:3526   */\n      dup6\n        /* \"#utility.yul\":3515:3538   */\n      sub\n        /* \"#utility.yul\":3511:3543   */\n      slt\n        /* \"#utility.yul\":3508:3627   */\n      iszero\n      tag_149\n      jumpi\n        /* \"#utility.yul\":3546:3625   */\n      tag_150\n      tag_56\n      jump\t// in\n    tag_150:\n        /* \"#utility.yul\":3508:3627   */\n    tag_149:\n        /* \"#utility.yul\":3694:3695   */\n      0x00\n        /* \"#utility.yul\":3683:3692   */\n      dup4\n        /* \"#utility.yul\":3679:3696   */\n      add\n        /* \"#utility.yul\":3666:3697   */\n      calldataload\n        /* \"#utility.yul\":3724:3742   */\n      0xffffffffffffffff\n        /* \"#utility.yul\":3716:3722   */\n      dup2\n        /* \"#utility.yul\":3713:3743   */\n      gt\n        /* \"#utility.yul\":3710:3827   */\n      iszero\n      tag_151\n      jumpi\n        /* \"#utility.yul\":3746:3825   */\n      tag_152\n      tag_57\n      jump\t// in\n    tag_152:\n        /* \"#utility.yul\":3710:3827   */\n    tag_151:\n        /* \"#utility.yul\":3851:3914   */\n      tag_153\n        /* \"#utility.yul\":3906:3913   */\n      dup6\n        /* \"#utility.yul\":3897:3903   */\n      dup3\n        /* \"#utility.yul\":3886:3895   */\n      dup7\n        /* \"#utility.yul\":3882:3904   */\n      add\n        /* \"#utility.yul\":3851:3914   */\n      tag_71\n      jump\t// in\n    tag_153:\n        /* \"#utility.yul\":3841:3914   */\n      swap3\n      pop\n        /* \"#utility.yul\":3637:3924   */\n      pop\n        /* \"#utility.yul\":3991:3993   */\n      0x20\n        /* \"#utility.yul\":3980:3989   */\n      dup4\n        /* \"#utility.yul\":3976:3994   */\n      add\n        /* \"#utility.yul\":3963:3995   */\n      calldataload\n        /* \"#utility.yul\":4022:4040   */\n      0xffffffffffffffff\n        /* \"#utility.yul\":4014:4020   */\n      dup2\n        /* \"#utility.yul\":4011:4041   */\n      gt\n        /* \"#utility.yul\":4008:4125   */\n      iszero\n      tag_154\n      jumpi\n        /* \"#utility.yul\":4044:4123   */\n      tag_155\n      tag_57\n      jump\t// in\n    tag_155:\n        /* \"#utility.yul\":4008:4125   */\n    tag_154:\n        /* \"#utility.yul\":4149:4212   */\n      tag_156\n        /* \"#utility.yul\":4204:4211   */\n      dup6\n        /* \"#utility.yul\":4195:4201   */\n      dup3\n        /* \"#utility.yul\":4184:4193   */\n      dup7\n        /* \"#utility.yul\":4180:4202   */\n      add\n        /* \"#utility.yul\":4149:4212   */\n      tag_71\n      jump\t// in\n    tag_156:\n        /* \"#utility.yul\":4139:4212   */\n      swap2\n      pop\n        /* \"#utility.yul\":3934:4222   */\n      pop\n        /* \"#utility.yul\":3395:4229   */\n      swap3\n      pop\n      swap3\n      swap1\n      pop\n      jump\t// out\n        /* \"#utility.yul\":4235:4373   */\n    tag_72:\n        /* \"#utility.yul\":4326:4332   */\n      0x00\n        /* \"#utility.yul\":4360:4365   */\n      dup2\n        /* \"#utility.yul\":4354:4366   */\n      mload\n        /* \"#utility.yul\":4344:4366   */\n      swap1\n      pop\n        /* \"#utility.yul\":4235:4373   */\n      swap2\n      swap1\n      pop\n      jump\t// out\n        /* \"#utility.yul\":4379:4587   */\n    tag_73:\n        /* \"#utility.yul\":4502:4513   */\n      0x00\n        /* \"#utility.yul\":4536:4542   */\n      dup3\n        /* \"#utility.yul\":4531:4534   */\n      dup3\n        /* \"#utility.yul\":4524:4543   */\n      mstore\n        /* \"#utility.yul\":4576:4580   */\n      0x20\n        /* \"#utility.yul\":4571:4574   */\n      dup3\n        /* \"#utility.yul\":4567:4581   */\n      add\n        /* \"#utility.yul\":4552:4581   */\n      swap1\n      pop\n        /* \"#utility.yul\":4379:4587   */\n      swap3\n      swap2\n      pop\n      pop\n      jump\t// out\n        /* \"#utility.yul\":4593:4749   */\n    tag_74:\n        /* \"#utility.yul\":4684:4688   */\n      0x00\n        /* \"#utility.yul\":4707:4710   */\n      dup2\n        /* \"#utility.yul\":4699:4710   */\n      swap1\n      pop\n        /* \"#utility.yul\":4737:4741   */\n      0x20\n        /* \"#utility.yul\":4732:4735   */\n      dup3\n        /* \"#utility.yul\":4728:4742   */\n      add\n        /* \"#utility.yul\":4720:4742   */\n      swap1\n      pop\n        /* \"#utility.yul\":4593:4749   */\n      swap2\n      swap1\n      pop\n      jump\t// out\n        /* \"#utility.yul\":4755:4854   */\n    tag_75:\n        /* \"#utility.yul\":4807:4813   */\n      0x00\n        /* \"#utility.yul\":4841:4846   */\n      dup2\n        /* \"#utility.yul\":4835:4847   */\n      mload\n        /* \"#utility.yul\":4825:4847   */\n      swap1\n      pop\n        /* \"#utility.yul\":4755:4854   */\n      swap2\n      swap1\n      pop\n      jump\t// out\n        /* \"#utility.yul\":4860:5019   */\n    tag_76:\n        /* \"#utility.yul\":4934:4945   */\n      0x00\n        /* \"#utility.yul\":4968:4974   */\n      dup3\n        /* \"#utility.yul\":4963:4966   */\n      dup3\n        /* \"#utility.yul\":4956:4975   */\n      mstore\n        /* \"#utility.yul\":5008:5012   */\n      0x20\n        /* \"#utility.yul\":5003:5006   */\n      dup3\n        /* \"#utility.yul\":4999:5013   */\n      add\n        /* \"#utility.yul\":4984:5013   */\n      swap1\n      pop\n        /* \"#utility.yul\":4860:5019   */\n      swap3\n      swap2\n      pop\n      pop\n      jump\t// out\n        /* \"#utility.yul\":5025:5271   */\n    tag_77:\n        /* \"#utility.yul\":5106:5107   */\n      0x00\n        /* \"#utility.yul\":5116:5229   */\n    tag_163:\n        /* \"#utility.yul\":5130:5136   */\n      dup4\n        /* \"#utility.yul\":5127:5128   */\n      dup2\n        /* \"#utility.yul\":5124:5137   */\n      lt\n        /* \"#utility.yul\":5116:5229   */\n      iszero\n      tag_165\n      jumpi\n        /* \"#utility.yul\":5215:5216   */\n      dup1\n        /* \"#utility.yul\":5210:5213   */\n      dup3\n        /* \"#utility.yul\":5206:5217   */\n      add\n        /* \"#utility.yul\":5200:5218   */\n      mload\n        /* \"#utility.yul\":5196:5197   */\n      dup2\n        /* \"#utility.yul\":5191:5194   */\n      dup5\n        /* \"#utility.yul\":5187:5198   */\n      add\n        /* \"#utility.yul\":5180:5219   */\n      mstore\n        /* \"#utility.yul\":5152:5154   */\n      0x20\n        /* \"#utility.yul\":5149:5150   */\n      dup2\n        /* \"#utility.yul\":5145:5155   */\n      add\n        /* \"#utility.yul\":5140:5155   */\n      swap1\n      pop\n        /* \"#utility.yul\":5116:5229   */\n      jump(tag_163)\n    tag_165:\n        /* \"#utility.yul\":5263:5264   */\n      0x00\n        /* \"#utility.yul\":5254:5260   */\n      dup5\n        /* \"#utility.yul\":5249:5252   */\n      dup5\n        /* \"#utility.yul\":5245:5261   */\n      add\n        /* \"#utility.yul\":5238:5265   */\n      mstore\n        /* \"#utility.yul\":5087:5271   */\n      pop\n        /* \"#utility.yul\":5025:5271   */\n      pop\n      pop\n      pop\n      jump\t// out\n        /* \"#utility.yul\":5277:5634   */\n    tag_78:\n        /* \"#utility.yul\":5355:5358   */\n      0x00\n        /* \"#utility.yul\":5383:5422   */\n      tag_167\n        /* \"#utility.yul\":5416:5421   */\n      dup3\n        /* \"#utility.yul\":5383:5422   */\n      tag_75\n      jump\t// in\n    tag_167:\n        /* \"#utility.yul\":5438:5499   */\n      tag_168\n        /* \"#utility.yul\":5492:5498   */\n      dup2\n        /* \"#utility.yul\":5487:5490   */\n      dup6\n        /* \"#utility.yul\":5438:5499   */\n      tag_76\n      jump\t// in\n    tag_168:\n        /* \"#utility.yul\":5431:5499   */\n      swap4\n      pop\n        /* \"#utility.yul\":5508:5573   */\n      tag_169\n        /* \"#utility.yul\":5566:5572   */\n      dup2\n        /* \"#utility.yul\":5561:5564   */\n      dup6\n        /* \"#utility.yul\":5554:5558   */\n      0x20\n        /* \"#utility.yul\":5547:5552   */\n      dup7\n        /* \"#utility.yul\":5543:5559   */\n      add\n        /* \"#utility.yul\":5508:5573   */\n      tag_77\n      jump\t// in\n    tag_169:\n        /* \"#utility.yul\":5598:5627   */\n      tag_170\n        /* \"#utility.yul\":5620:5626   */\n      dup2\n        /* \"#utility.yul\":5598:5627   */\n      tag_64\n      jump\t// in\n    tag_170:\n        /* \"#utility.yul\":5593:5596   */\n      dup5\n        /* \"#utility.yul\":5589:5628   */\n      add\n        /* \"#utility.yul\":5582:5628   */\n      swap2\n      pop\n        /* \"#utility.yul\":5359:5634   */\n      pop\n        /* \"#utility.yul\":5277:5634   */\n      swap3\n      swap2\n      pop\n      pop\n      jump\t// out\n        /* \"#utility.yul\":5640:5748   */\n    tag_79:\n        /* \"#utility.yul\":5717:5741   */\n      tag_172\n        /* \"#utility.yul\":5735:5740   */\n      dup2\n        /* \"#utility.yul\":5717:5741   */\n      tag_59\n      jump\t// in\n    tag_172:\n        /* \"#utility.yul\":5712:5715   */\n      dup3\n        /* \"#utility.yul\":5705:5742   */\n      mstore\n        /* \"#utility.yul\":5640:5748   */\n      pop\n      pop\n      jump\t// out\n        /* \"#utility.yul\":5830:6674   */\n    tag_80:\n        /* \"#utility.yul\":5937:5940   */\n      0x00\n        /* \"#utility.yul\":5973:5977   */\n      0x60\n        /* \"#utility.yul\":5968:5971   */\n      dup4\n        /* \"#utility.yul\":5964:5978   */\n      add\n        /* \"#utility.yul\":6061:6065   */\n      0x00\n        /* \"#utility.yul\":6054:6059   */\n      dup4\n        /* \"#utility.yul\":6050:6066   */\n      add\n        /* \"#utility.yul\":6044:6067   */\n      mload\n        /* \"#utility.yul\":6114:6117   */\n      dup5\n        /* \"#utility.yul\":6108:6112   */\n      dup3\n        /* \"#utility.yul\":6104:6118   */\n      sub\n        /* \"#utility.yul\":6097:6101   */\n      0x00\n        /* \"#utility.yul\":6092:6095   */\n      dup7\n        /* \"#utility.yul\":6088:6102   */\n      add\n        /* \"#utility.yul\":6081:6119   */\n      mstore\n        /* \"#utility.yul\":6140:6213   */\n      tag_174\n        /* \"#utility.yul\":6208:6212   */\n      dup3\n        /* \"#utility.yul\":6194:6206   */\n      dup3\n        /* \"#utility.yul\":6140:6213   */\n      tag_78\n      jump\t// in\n    tag_174:\n        /* \"#utility.yul\":6132:6213   */\n      swap2\n      pop\n        /* \"#utility.yul\":5988:6224   */\n      pop\n        /* \"#utility.yul\":6309:6313   */\n      0x20\n        /* \"#utility.yul\":6302:6307   */\n      dup4\n        /* \"#utility.yul\":6298:6314   */\n      add\n        /* \"#utility.yul\":6292:6315   */\n      mload\n        /* \"#utility.yul\":6362:6365   */\n      dup5\n        /* \"#utility.yul\":6356:6360   */\n      dup3\n        /* \"#utility.yul\":6352:6366   */\n      sub\n        /* \"#utility.yul\":6345:6349   */\n      0x20\n        /* \"#utility.yul\":6340:6343   */\n      dup7\n        /* \"#utility.yul\":6336:6350   */\n      add\n        /* \"#utility.yul\":6329:6367   */\n      mstore\n        /* \"#utility.yul\":6388:6461   */\n      tag_175\n        /* \"#utility.yul\":6456:6460   */\n      dup3\n        /* \"#utility.yul\":6442:6454   */\n      dup3\n        /* \"#utility.yul\":6388:6461   */\n      tag_78\n      jump\t// in\n    tag_175:\n        /* \"#utility.yul\":6380:6461   */\n      swap2\n      pop\n        /* \"#utility.yul\":6234:6472   */\n      pop\n        /* \"#utility.yul\":6555:6559   */\n      0x40\n        /* \"#utility.yul\":6548:6553   */\n      dup4\n        /* \"#utility.yul\":6544:6560   */\n      add\n        /* \"#utility.yul\":6538:6561   */\n      mload\n        /* \"#utility.yul\":6574:6637   */\n      tag_176\n        /* \"#utility.yul\":6631:6635   */\n      0x40\n        /* \"#utility.yul\":6626:6629   */\n      dup7\n        /* \"#utility.yul\":6622:6636   */\n      add\n        /* \"#utility.yul\":6608:6620   */\n      dup3\n        /* \"#utility.yul\":6574:6637   */\n      tag_79\n      jump\t// in\n    tag_176:\n        /* \"#utility.yul\":6482:6647   */\n      pop\n        /* \"#utility.yul\":6664:6668   */\n      dup1\n        /* \"#utility.yul\":6657:6668   */\n      swap2\n      pop\n        /* \"#utility.yul\":5942:6674   */\n      pop\n        /* \"#utility.yul\":5830:6674   */\n      swap3\n      swap2\n      pop\n      pop\n      jump\t// out\n        /* \"#utility.yul\":6680:6932   */\n    tag_81:\n        /* \"#utility.yul\":6797:6807   */\n      0x00\n        /* \"#utility.yul\":6832:6926   */\n      tag_178\n        /* \"#utility.yul\":6922:6925   */\n      dup4\n        /* \"#utility.yul\":6914:6920   */\n      dup4\n        /* \"#utility.yul\":6832:6926   */\n      tag_80\n      jump\t// in\n    tag_178:\n        /* \"#utility.yul\":6818:6926   */\n      swap1\n      pop\n        /* \"#utility.yul\":6680:6932   */\n      swap3\n      swap2\n      pop\n      pop\n      jump\t// out\n        /* \"#utility.yul\":6938:7075   */\n    tag_82:\n        /* \"#utility.yul\":7032:7036   */\n      0x00\n        /* \"#utility.yul\":7064:7068   */\n      0x20\n        /* \"#utility.yul\":7059:7062   */\n      dup3\n        /* \"#utility.yul\":7055:7069   */\n      add\n        /* \"#utility.yul\":7047:7069   */\n      swap1\n      pop\n        /* \"#utility.yul\":6938:7075   */\n      swap2\n      swap1\n      pop\n      jump\t// out\n        /* \"#utility.yul\":7161:8264   */\n    tag_83:\n        /* \"#utility.yul\":7328:7331   */\n      0x00\n        /* \"#utility.yul\":7357:7435   */\n      tag_181\n        /* \"#utility.yul\":7429:7434   */\n      dup3\n        /* \"#utility.yul\":7357:7435   */\n      tag_72\n      jump\t// in\n    tag_181:\n        /* \"#utility.yul\":7451:7561   */\n      tag_182\n        /* \"#utility.yul\":7554:7560   */\n      dup2\n        /* \"#utility.yul\":7549:7552   */\n      dup6\n        /* \"#utility.yul\":7451:7561   */\n      tag_73\n      jump\t// in\n    tag_182:\n        /* \"#utility.yul\":7444:7561   */\n      swap4\n      pop\n        /* \"#utility.yul\":7587:7590   */\n      dup4\n        /* \"#utility.yul\":7632:7636   */\n      0x20\n        /* \"#utility.yul\":7624:7630   */\n      dup3\n        /* \"#utility.yul\":7620:7637   */\n      mul\n        /* \"#utility.yul\":7615:7618   */\n      dup6\n        /* \"#utility.yul\":7611:7638   */\n      add\n        /* \"#utility.yul\":7662:7742   */\n      tag_183\n        /* \"#utility.yul\":7736:7741   */\n      dup6\n        /* \"#utility.yul\":7662:7742   */\n      tag_74\n      jump\t// in\n    tag_183:\n        /* \"#utility.yul\":7765:7772   */\n      dup1\n        /* \"#utility.yul\":7796:7797   */\n      0x00\n        /* \"#utility.yul\":7781:8219   */\n    tag_184:\n        /* \"#utility.yul\":7806:7812   */\n      dup6\n        /* \"#utility.yul\":7803:7804   */\n      dup2\n        /* \"#utility.yul\":7800:7813   */\n      lt\n        /* \"#utility.yul\":7781:8219   */\n      iszero\n      tag_186\n      jumpi\n        /* \"#utility.yul\":7877:7886   */\n      dup5\n        /* \"#utility.yul\":7871:7875   */\n      dup5\n        /* \"#utility.yul\":7867:7887   */\n      sub\n        /* \"#utility.yul\":7862:7865   */\n      dup10\n        /* \"#utility.yul\":7855:7888   */\n      mstore\n        /* \"#utility.yul\":7928:7934   */\n      dup2\n        /* \"#utility.yul\":7922:7935   */\n      mload\n        /* \"#utility.yul\":7956:8068   */\n      tag_187\n        /* \"#utility.yul\":8063:8067   */\n      dup6\n        /* \"#utility.yul\":8048:8061   */\n      dup3\n        /* \"#utility.yul\":7956:8068   */\n      tag_81\n      jump\t// in\n    tag_187:\n        /* \"#utility.yul\":7948:8068   */\n      swap5\n      pop\n        /* \"#utility.yul\":8091:8175   */\n      tag_188\n        /* \"#utility.yul\":8168:8174   */\n      dup4\n        /* \"#utility.yul\":8091:8175   */\n      tag_82\n      jump\t// in\n    tag_188:\n        /* \"#utility.yul\":8081:8175   */\n      swap3\n      pop\n        /* \"#utility.yul\":8204:8208   */\n      0x20\n        /* \"#utility.yul\":8199:8202   */\n      dup11\n        /* \"#utility.yul\":8195:8209   */\n      add\n        /* \"#utility.yul\":8188:8209   */\n      swap10\n      pop\n        /* \"#utility.yul\":7841:8219   */\n      pop\n        /* \"#utility.yul\":7828:7829   */\n      0x01\n        /* \"#utility.yul\":7825:7826   */\n      dup2\n        /* \"#utility.yul\":7821:7830   */\n      add\n        /* \"#utility.yul\":7816:7830   */\n      swap1\n      pop\n        /* \"#utility.yul\":7781:8219   */\n      jump(tag_184)\n    tag_186:\n        /* \"#utility.yul\":7785:7799   */\n      pop\n        /* \"#utility.yul\":8235:8239   */\n      dup3\n        /* \"#utility.yul\":8228:8239   */\n      swap8\n      pop\n        /* \"#utility.yul\":8255:8258   */\n      dup8\n        /* \"#utility.yul\":8248:8258   */\n      swap6\n      pop\n        /* \"#utility.yul\":7333:8264   */\n      pop\n      pop\n      pop\n      pop\n      pop\n        /* \"#utility.yul\":7161:8264   */\n      swap3\n      swap2\n      pop\n      pop\n      jump\t// out\n        /* \"#utility.yul\":8270:8739   */\n    tag_19:\n        /* \"#utility.yul\":8461:8465   */\n      0x00\n        /* \"#utility.yul\":8499:8501   */\n      0x20\n        /* \"#utility.yul\":8488:8497   */\n      dup3\n        /* \"#utility.yul\":8484:8502   */\n      add\n        /* \"#utility.yul\":8476:8502   */\n      swap1\n      pop\n        /* \"#utility.yul\":8548:8557   */\n      dup2\n        /* \"#utility.yul\":8542:8546   */\n      dup2\n        /* \"#utility.yul\":8538:8558   */\n      sub\n        /* \"#utility.yul\":8534:8535   */\n      0x00\n        /* \"#utility.yul\":8523:8532   */\n      dup4\n        /* \"#utility.yul\":8519:8536   */\n      add\n        /* \"#utility.yul\":8512:8559   */\n      mstore\n        /* \"#utility.yul\":8576:8732   */\n      tag_190\n        /* \"#utility.yul\":8727:8731   */\n      dup2\n        /* \"#utility.yul\":8718:8724   */\n      dup5\n        /* \"#utility.yul\":8576:8732   */\n      tag_83\n      jump\t// in\n    tag_190:\n        /* \"#utility.yul\":8568:8732   */\n      swap1\n      pop\n        /* \"#utility.yul\":8270:8739   */\n      swap3\n      swap2\n      pop\n      pop\n      jump\t// out\n        /* \"#utility.yul\":8745:8835   */\n    tag_84:\n        /* \"#utility.yul\":8779:8786   */\n      0x00\n        /* \"#utility.yul\":8822:8827   */\n      dup2\n        /* \"#utility.yul\":8815:8828   */\n      iszero\n        /* \"#utility.yul\":8808:8829   */\n      iszero\n        /* \"#utility.yul\":8797:8829   */\n      swap1\n      pop\n        /* \"#utility.yul\":8745:8835   */\n      swap2\n      swap1\n      pop\n      jump\t// out\n        /* \"#utility.yul\":8841:8950   */\n    tag_85:\n        /* \"#utility.yul\":8922:8943   */\n      tag_193\n        /* \"#utility.yul\":8937:8942   */\n      dup2\n        /* \"#utility.yul\":8922:8943   */\n      tag_84\n      jump\t// in\n    tag_193:\n        /* \"#utility.yul\":8917:8920   */\n      dup3\n        /* \"#utility.yul\":8910:8944   */\n      mstore\n        /* \"#utility.yul\":8841:8950   */\n      pop\n      pop\n      jump\t// out\n        /* \"#utility.yul\":8956:9166   */\n    tag_24:\n        /* \"#utility.yul\":9043:9047   */\n      0x00\n        /* \"#utility.yul\":9081:9083   */\n      0x20\n        /* \"#utility.yul\":9070:9079   */\n      dup3\n        /* \"#utility.yul\":9066:9084   */\n      add\n        /* \"#utility.yul\":9058:9084   */\n      swap1\n      pop\n        /* \"#utility.yul\":9094:9159   */\n      tag_195\n        /* \"#utility.yul\":9156:9157   */\n      0x00\n        /* \"#utility.yul\":9145:9154   */\n      dup4\n        /* \"#utility.yul\":9141:9158   */\n      add\n        /* \"#utility.yul\":9132:9138   */\n      dup5\n        /* \"#utility.yul\":9094:9159   */\n      tag_85\n      jump\t// in\n    tag_195:\n        /* \"#utility.yul\":8956:9166   */\n      swap3\n      swap2\n      pop\n      pop\n      jump\t// out\n        /* \"#utility.yul\":9172:9341   */\n    tag_86:\n        /* \"#utility.yul\":9256:9267   */\n      0x00\n        /* \"#utility.yul\":9290:9296   */\n      dup3\n        /* \"#utility.yul\":9285:9288   */\n      dup3\n        /* \"#utility.yul\":9278:9297   */\n      mstore\n        /* \"#utility.yul\":9330:9334   */\n      0x20\n        /* \"#utility.yul\":9325:9328   */\n      dup3\n        /* \"#utility.yul\":9321:9335   */\n      add\n        /* \"#utility.yul\":9306:9335   */\n      swap1\n      pop\n        /* \"#utility.yul\":9172:9341   */\n      swap3\n      swap2\n      pop\n      pop\n      jump\t// out\n        /* \"#utility.yul\":9347:9577   */\n    tag_87:\n        /* \"#utility.yul\":9487:9521   */\n      0x4f6e6c7920656c696769626c652075736572732063616e20706572666f726d20\n        /* \"#utility.yul\":9483:9484   */\n      0x00\n        /* \"#utility.yul\":9475:9481   */\n      dup3\n        /* \"#utility.yul\":9471:9485   */\n      add\n        /* \"#utility.yul\":9464:9522   */\n      mstore\n        /* \"#utility.yul\":9556:9569   */\n      0x7468697320616374696f6e000000000000000000000000000000000000000000\n        /* \"#utility.yul\":9551:9553   */\n      0x20\n        /* \"#utility.yul\":9543:9549   */\n      dup3\n        /* \"#utility.yul\":9539:9554   */\n      add\n        /* \"#utility.yul\":9532:9570   */\n      mstore\n        /* \"#utility.yul\":9347:9577   */\n      pop\n      jump\t// out\n        /* \"#utility.yul\":9583:9949   */\n    tag_88:\n        /* \"#utility.yul\":9725:9728   */\n      0x00\n        /* \"#utility.yul\":9746:9813   */\n      tag_199\n        /* \"#utility.yul\":9810:9812   */\n      0x2b\n        /* \"#utility.yul\":9805:9808   */\n      dup4\n        /* \"#utility.yul\":9746:9813   */\n      tag_86\n      jump\t// in\n    tag_199:\n        /* \"#utility.yul\":9739:9813   */\n      swap2\n      pop\n        /* \"#utility.yul\":9822:9915   */\n      tag_200\n        /* \"#utility.yul\":9911:9914   */\n      dup3\n        /* \"#utility.yul\":9822:9915   */\n      tag_87\n      jump\t// in\n    tag_200:\n        /* \"#utility.yul\":9940:9942   */\n      0x40\n        /* \"#utility.yul\":9935:9938   */\n      dup3\n        /* \"#utility.yul\":9931:9943   */\n      add\n        /* \"#utility.yul\":9924:9943   */\n      swap1\n      pop\n        /* \"#utility.yul\":9583:9949   */\n      swap2\n      swap1\n      pop\n      jump\t// out\n        /* \"#utility.yul\":9955:10374   */\n    tag_32:\n        /* \"#utility.yul\":10121:10125   */\n      0x00\n        /* \"#utility.yul\":10159:10161   */\n      0x20\n        /* \"#utility.yul\":10148:10157   */\n      dup3\n        /* \"#utility.yul\":10144:10162   */\n      add\n        /* \"#utility.yul\":10136:10162   */\n      swap1\n      pop\n        /* \"#utility.yul\":10208:10217   */\n      dup2\n        /* \"#utility.yul\":10202:10206   */\n      dup2\n        /* \"#utility.yul\":10198:10218   */\n      sub\n        /* \"#utility.yul\":10194:10195   */\n      0x00\n        /* \"#utility.yul\":10183:10192   */\n      dup4\n        /* \"#utility.yul\":10179:10196   */\n      add\n        /* \"#utility.yul\":10172:10219   */\n      mstore\n        /* \"#utility.yul\":10236:10367   */\n      tag_202\n        /* \"#utility.yul\":10362:10366   */\n      dup2\n        /* \"#utility.yul\":10236:10367   */\n      tag_88\n      jump\t// in\n    tag_202:\n        /* \"#utility.yul\":10228:10367   */\n      swap1\n      pop\n        /* \"#utility.yul\":9955:10374   */\n      swap2\n      swap1\n      pop\n      jump\t// out\n        /* \"#utility.yul\":10380:10560   */\n    tag_89:\n        /* \"#utility.yul\":10428:10505   */\n      0x4e487b7100000000000000000000000000000000000000000000000000000000\n        /* \"#utility.yul\":10425:10426   */\n      0x00\n        /* \"#utility.yul\":10418:10506   */\n      mstore\n        /* \"#utility.yul\":10525:10529   */\n      0x22\n        /* \"#utility.yul\":10522:10523   */\n      0x04\n        /* \"#utility.yul\":10515:10530   */\n      mstore\n        /* \"#utility.yul\":10549:10553   */\n      0x24\n        /* \"#utility.yul\":10546:10547   */\n      0x00\n        /* \"#utility.yul\":10539:10554   */\n      revert\n        /* \"#utility.yul\":10566:10886   */\n    tag_43:\n        /* \"#utility.yul\":10610:10616   */\n      0x00\n        /* \"#utility.yul\":10647:10648   */\n      0x02\n        /* \"#utility.yul\":10641:10645   */\n      dup3\n        /* \"#utility.yul\":10637:10649   */\n      div\n        /* \"#utility.yul\":10627:10649   */\n      swap1\n      pop\n        /* \"#utility.yul\":10694:10695   */\n      0x01\n        /* \"#utility.yul\":10688:10692   */\n      dup3\n        /* \"#utility.yul\":10684:10696   */\n      and\n        /* \"#utility.yul\":10715:10733   */\n      dup1\n        /* \"#utility.yul\":10705:10786   */\n      tag_205\n      jumpi\n        /* \"#utility.yul\":10771:10775   */\n      0x7f\n        /* \"#utility.yul\":10763:10769   */\n      dup3\n        /* \"#utility.yul\":10759:10776   */\n      and\n        /* \"#utility.yul\":10749:10776   */\n      swap2\n      pop\n        /* \"#utility.yul\":10705:10786   */\n    tag_205:\n        /* \"#utility.yul\":10833:10835   */\n      0x20\n        /* \"#utility.yul\":10825:10831   */\n      dup3\n        /* \"#utility.yul\":10822:10836   */\n      lt\n        /* \"#utility.yul\":10802:10820   */\n      dup2\n        /* \"#utility.yul\":10799:10837   */\n      sub\n        /* \"#utility.yul\":10796:10880   */\n      tag_206\n      jumpi\n        /* \"#utility.yul\":10852:10870   */\n      tag_207\n      tag_89\n      jump\t// in\n    tag_207:\n        /* \"#utility.yul\":10796:10880   */\n    tag_206:\n        /* \"#utility.yul\":10617:10886   */\n      pop\n        /* \"#utility.yul\":10566:10886   */\n      swap2\n      swap1\n      pop\n      jump\t// out\n        /* \"#utility.yul\":10892:11033   */\n    tag_90:\n        /* \"#utility.yul\":10941:10945   */\n      0x00\n        /* \"#utility.yul\":10964:10967   */\n      dup2\n        /* \"#utility.yul\":10956:10967   */\n      swap1\n      pop\n        /* \"#utility.yul\":10987:10990   */\n      dup2\n        /* \"#utility.yul\":10984:10985   */\n      0x00\n        /* \"#utility.yul\":10977:10991   */\n      mstore\n        /* \"#utility.yul\":11021:11025   */\n      0x20\n        /* \"#utility.yul\":11018:11019   */\n      0x00\n        /* \"#utility.yul\":11008:11026   */\n      keccak256\n        /* \"#utility.yul\":11000:11026   */\n      swap1\n      pop\n        /* \"#utility.yul\":10892:11033   */\n      swap2\n      swap1\n      pop\n      jump\t// out\n        /* \"#utility.yul\":11039:11132   */\n    tag_91:\n        /* \"#utility.yul\":11076:11082   */\n      0x00\n        /* \"#utility.yul\":11123:11125   */\n      0x20\n        /* \"#utility.yul\":11118:11120   */\n      0x1f\n        /* \"#utility.yul\":11111:11116   */\n      dup4\n        /* \"#utility.yul\":11107:11121   */\n      add\n        /* \"#utility.yul\":11103:11126   */\n      div\n        /* \"#utility.yul\":11093:11126   */\n      swap1\n      pop\n        /* \"#utility.yul\":11039:11132   */\n      swap2\n      swap1\n      pop\n      jump\t// out\n        /* \"#utility.yul\":11138:11245   */\n    tag_92:\n        /* \"#utility.yul\":11182:11190   */\n      0x00\n        /* \"#utility.yul\":11232:11237   */\n      dup3\n        /* \"#utility.yul\":11226:11230   */\n      dup3\n        /* \"#utility.yul\":11222:11238   */\n      shl\n        /* \"#utility.yul\":11201:11238   */\n      swap1\n      pop\n        /* \"#utility.yul\":11138:11245   */\n      swap3\n      swap2\n      pop\n      pop\n      jump\t// out\n        /* \"#utility.yul\":11251:11644   */\n    tag_93:\n        /* \"#utility.yul\":11320:11326   */\n      0x00\n        /* \"#utility.yul\":11370:11371   */\n      0x08\n        /* \"#utility.yul\":11358:11368   */\n      dup4\n        /* \"#utility.yul\":11354:11372   */\n      mul\n        /* \"#utility.yul\":11393:11490   */\n      tag_212\n        /* \"#utility.yul\":11423:11489   */\n      0xffffffffffffffffffffffffffffffffffffffffffffffffffffffffffffffff\n        /* \"#utility.yul\":11412:11421   */\n      dup3\n        /* \"#utility.yul\":11393:11490   */\n      tag_92\n      jump\t// in\n    tag_212:\n        /* \"#utility.yul\":11511:11550   */\n      tag_213\n        /* \"#utility.yul\":11541:11549   */\n      dup7\n        /* \"#utility.yul\":11530:11539   */\n      dup4\n        /* \"#utility.yul\":11511:11550   */\n      tag_92\n      jump\t// in\n    tag_213:\n        /* \"#utility.yul\":11499:11550   */\n      swap6\n      pop\n        /* \"#utility.yul\":11583:11587   */\n      dup1\n        /* \"#utility.yul\":11579:11588   */\n      not\n        /* \"#utility.yul\":11572:11577   */\n      dup5\n        /* \"#utility.yul\":11568:11589   */\n      and\n        /* \"#utility.yul\":11559:11589   */\n      swap4\n      pop\n        /* \"#utility.yul\":11632:11636   */\n      dup1\n        /* \"#utility.yul\":11622:11630   */\n      dup7\n        /* \"#utility.yul\":11618:11637   */\n      and\n        /* \"#utility.yul\":11611:11616   */\n      dup5\n        /* \"#utility.yul\":11608:11638   */\n      or\n        /* \"#utility.yul\":11598:11638   */\n      swap3\n      pop\n        /* \"#utility.yul\":11327:11644   */\n      pop\n      pop\n        /* \"#utility.yul\":11251:11644   */\n      swap4\n      swap3\n      pop\n      pop\n      pop\n      jump\t// out\n        /* \"#utility.yul\":11650:11727   */\n    tag_94:\n        /* \"#utility.yul\":11687:11694   */\n      0x00\n        /* \"#utility.yul\":11716:11721   */\n      dup2\n        /* \"#utility.yul\":11705:11721   */\n      swap1\n      pop\n        /* \"#utility.yul\":11650:11727   */\n      swap2\n      swap1\n      pop\n      jump\t// out\n        /* \"#utility.yul\":11733:11793   */\n    tag_95:\n        /* \"#utility.yul\":11761:11764   */\n      0x00\n        /* \"#utility.yul\":11782:11787   */\n      dup2\n        /* \"#utility.yul\":11775:11787   */\n      swap1\n      pop\n        /* \"#utility.yul\":11733:11793   */\n      swap2\n      swap1\n      pop\n      jump\t// out\n        /* \"#utility.yul\":11799:11941   */\n    tag_96:\n        /* \"#utility.yul\":11849:11858   */\n      0x00\n        /* \"#utility.yul\":11882:11935   */\n      tag_217\n        /* \"#utility.yul\":11900:11934   */\n      tag_218\n        /* \"#utility.yul\":11909:11933   */\n      tag_219\n        /* \"#utility.yul\":11927:11932   */\n      dup5\n        /* \"#utility.yul\":11909:11933   */\n      tag_94\n      jump\t// in\n    tag_219:\n        /* \"#utility.yul\":11900:11934   */\n      tag_95\n      jump\t// in\n    tag_218:\n        /* \"#utility.yul\":11882:11935   */\n      tag_94\n      jump\t// in\n    tag_217:\n        /* \"#utility.yul\":11869:11935   */\n      swap1\n      pop\n        /* \"#utility.yul\":11799:11941   */\n      swap2\n      swap1\n      pop\n      jump\t// out\n        /* \"#utility.yul\":11947:12022   */\n    tag_97:\n        /* \"#utility.yul\":11990:11993   */\n      0x00\n        /* \"#utility.yul\":12011:12016   */\n      dup2\n        /* \"#utility.yul\":12004:12016   */\n      swap1\n      pop\n        /* \"#utility.yul\":11947:12022   */\n      swap2\n      swap1\n      pop\n      jump\t// out\n        /* \"#utility.yul\":12028:12297   */\n    tag_98:\n        /* \"#utility.yul\":12138:12177   */\n      tag_222\n        /* \"#utility.yul\":12169:12176   */\n      dup4\n        /* \"#utility.yul\":12138:12177   */\n      tag_96\n      jump\t// in\n    tag_222:\n        /* \"#utility.yul\":12199:12290   */\n      tag_223\n        /* \"#utility.yul\":12248:12289   */\n      tag_224\n        /* \"#utility.yul\":12272:12288   */\n      dup3\n        /* \"#utility.yul\":12248:12289   */\n      tag_97\n      jump\t// in\n    tag_224:\n        /* \"#utility.yul\":12240:12246   */\n      dup5\n        /* \"#utility.yul\":12233:12237   */\n      dup5\n        /* \"#utility.yul\":12227:12238   */\n      sload\n        /* \"#utility.yul\":12199:12290   */\n      tag_93\n      jump\t// in\n    tag_223:\n        /* \"#utility.yul\":12193:12197   */\n      dup3\n        /* \"#utility.yul\":12186:12291   */\n      sstore\n        /* \"#utility.yul\":12104:12297   */\n      pop\n        /* \"#utility.yul\":12028:12297   */\n      pop\n      pop\n      pop\n      jump\t// out\n        /* \"#utility.yul\":12303:12376   */\n    tag_99:\n        /* \"#utility.yul\":12348:12351   */\n      0x00\n        /* \"#utility.yul\":12303:12376   */\n      swap1\n      jump\t// out\n        /* \"#utility.yul\":12382:12571   */\n    tag_100:\n        /* \"#utility.yul\":12459:12491   */\n      tag_227\n      tag_99\n      jump\t// in\n    tag_227:\n        /* \"#utility.yul\":12500:12565   */\n      tag_228\n        /* \"#utility.yul\":12558:12564   */\n      dup2\n        /* \"#utility.yul\":12550:12556   */\n      dup5\n        /* \"#utility.yul\":12544:12548   */\n      dup5\n        /* \"#utility.yul\":12500:12565   */\n      tag_98\n      jump\t// in\n    tag_228:\n        /* \"#utility.yul\":12435:12571   */\n      pop\n        /* \"#utility.yul\":12382:12571   */\n      pop\n      pop\n      jump\t// out\n        /* \"#utility.yul\":12577:12763   */\n    tag_101:\n        /* \"#utility.yul\":12637:12757   */\n    tag_230:\n        /* \"#utility.yul\":12654:12657   */\n      dup2\n        /* \"#utility.yul\":12647:12652   */\n      dup2\n        /* \"#utility.yul\":12644:12658   */\n      lt\n        /* \"#utility.yul\":12637:12757   */\n      iszero\n      tag_232\n      jumpi\n        /* \"#utility.yul\":12708:12747   */\n      tag_233\n        /* \"#utility.yul\":12745:12746   */\n      0x00\n        /* \"#utility.yul\":12738:12743   */\n      dup3\n        /* \"#utility.yul\":12708:12747   */\n      tag_100\n      jump\t// in\n    tag_233:\n        /* \"#utility.yul\":12681:12682   */\n      0x01\n        /* \"#utility.yul\":12674:12679   */\n      dup2\n        /* \"#utility.yul\":12670:12683   */\n      add\n        /* \"#utility.yul\":12661:12683   */\n      swap1\n      pop\n        /* \"#utility.yul\":12637:12757   */\n      jump(tag_230)\n    tag_232:\n        /* \"#utility.yul\":12577:12763   */\n      pop\n      pop\n      jump\t// out\n        /* \"#utility.yul\":12769:13312   */\n    tag_102:\n        /* \"#utility.yul\":12870:12872   */\n      0x1f\n        /* \"#utility.yul\":12865:12868   */\n      dup3\n        /* \"#utility.yul\":12862:12873   */\n      gt\n        /* \"#utility.yul\":12859:13305   */\n      iszero\n      tag_235\n      jumpi\n        /* \"#utility.yul\":12904:12942   */\n      tag_236\n        /* \"#utility.yul\":12936:12941   */\n      dup2\n        /* \"#utility.yul\":12904:12942   */\n      tag_90\n      jump\t// in\n    tag_236:\n        /* \"#utility.yul\":12988:13017   */\n      tag_237\n        /* \"#utility.yul\":13006:13016   */\n      dup5\n        /* \"#utility.yul\":12988:13017   */\n      tag_91\n      jump\t// in\n    tag_237:\n        /* \"#utility.yul\":12978:12986   */\n      dup2\n        /* \"#utility.yul\":12974:13018   */\n      add\n        /* \"#utility.yul\":13171:13173   */\n      0x20\n        /* \"#utility.yul\":13159:13169   */\n      dup6\n        /* \"#utility.yul\":13156:13174   */\n      lt\n        /* \"#utility.yul\":13153:13202   */\n      iszero\n      tag_238\n      jumpi\n        /* \"#utility.yul\":13192:13200   */\n      dup2\n        /* \"#utility.yul\":13177:13200   */\n      swap1\n      pop\n        /* \"#utility.yul\":13153:13202   */\n    tag_238:\n        /* \"#utility.yul\":13215:13295   */\n      tag_239\n        /* \"#utility.yul\":13271:13293   */\n      tag_240\n        /* \"#utility.yul\":13289:13292   */\n      dup6\n        /* \"#utility.yul\":13271:13293   */\n      tag_91\n      jump\t// in\n    tag_240:\n        /* \"#utility.yul\":13261:13269   */\n      dup4\n        /* \"#utility.yul\":13257:13294   */\n      add\n        /* \"#utility.yul\":13244:13255   */\n      dup3\n        /* \"#utility.yul\":13215:13295   */\n      tag_101\n      jump\t// in\n    tag_239:\n        /* \"#utility.yul\":12874:13305   */\n      pop\n      pop\n        /* \"#utility.yul\":12859:13305   */\n    tag_235:\n        /* \"#utility.yul\":12769:13312   */\n      pop\n      pop\n      pop\n      jump\t// out\n        /* \"#utility.yul\":13318:13435   */\n    tag_103:\n        /* \"#utility.yul\":13372:13380   */\n      0x00\n        /* \"#utility.yul\":13422:13427   */\n      dup3\n        /* \"#utility.yul\":13416:13420   */\n      dup3\n        /* \"#utility.yul\":13412:13428   */\n      shr\n        /* \"#utility.yul\":13391:13428   */\n      swap1\n      pop\n        /* \"#utility.yul\":13318:13435   */\n      swap3\n      swap2\n      pop\n      pop\n      jump\t// out\n        /* \"#utility.yul\":13441:13610   */\n    tag_104:\n        /* \"#utility.yul\":13485:13491   */\n      0x00\n        /* \"#utility.yul\":13518:13569   */\n      tag_243\n        /* \"#utility.yul\":13566:13567   */\n      0x00\n        /* \"#utility.yul\":13562:13568   */\n      not\n        /* \"#utility.yul\":13554:13559   */\n      dup5\n        /* \"#utility.yul\":13551:13552   */\n      0x08\n        /* \"#utility.yul\":13547:13560   */\n      mul\n        /* \"#utility.yul\":13518:13569   */\n      tag_103\n      jump\t// in\n    tag_243:\n        /* \"#utility.yul\":13514:13570   */\n      not\n        /* \"#utility.yul\":13599:13603   */\n      dup1\n        /* \"#utility.yul\":13593:13597   */\n      dup4\n        /* \"#utility.yul\":13589:13604   */\n      and\n        /* \"#utility.yul\":13579:13604   */\n      swap2\n      pop\n        /* \"#utility.yul\":13492:13610   */\n      pop\n        /* \"#utility.yul\":13441:13610   */\n      swap3\n      swap2\n      pop\n      pop\n      jump\t// out\n        /* \"#utility.yul\":13615:13910   */\n    tag_105:\n        /* \"#utility.yul\":13691:13695   */\n      0x00\n        /* \"#utility.yul\":13837:13866   */\n      tag_245\n        /* \"#utility.yul\":13862:13865   */\n      dup4\n        /* \"#utility.yul\":13856:13860   */\n      dup4\n        /* \"#utility.yul\":13837:13866   */\n      tag_104\n      jump\t// in\n    tag_245:\n        /* \"#utility.yul\":13829:13866   */\n      swap2\n      pop\n        /* \"#utility.yul\":13899:13902   */\n      dup3\n        /* \"#utility.yul\":13896:13897   */\n      0x02\n        /* \"#utility.yul\":13892:13903   */\n      mul\n        /* \"#utility.yul\":13886:13890   */\n      dup3\n        /* \"#utility.yul\":13883:13904   */\n      or\n        /* \"#utility.yul\":13875:13904   */\n      swap1\n      pop\n        /* \"#utility.yul\":13615:13910   */\n      swap3\n      swap2\n      pop\n      pop\n      jump\t// out\n        /* \"#utility.yul\":13915:15310   */\n    tag_36:\n        /* \"#utility.yul\":14032:14069   */\n      tag_247\n        /* \"#utility.yul\":14065:14068   */\n      dup3\n        /* \"#utility.yul\":14032:14069   */\n      tag_75\n      jump\t// in\n    tag_247:\n        /* \"#utility.yul\":14134:14152   */\n      0xffffffffffffffff\n        /* \"#utility.yul\":14126:14132   */\n      dup2\n        /* \"#utility.yul\":14123:14153   */\n      gt\n        /* \"#utility.yul\":14120:14176   */\n      iszero\n      tag_248\n      jumpi\n        /* \"#utility.yul\":14156:14174   */\n      tag_249\n      tag_65\n      jump\t// in\n    tag_249:\n        /* \"#utility.yul\":14120:14176   */\n    tag_248:\n        /* \"#utility.yul\":14200:14238   */\n      tag_250\n        /* \"#utility.yul\":14232:14236   */\n      dup3\n        /* \"#utility.yul\":14226:14237   */\n      sload\n        /* \"#utility.yul\":14200:14238   */\n      tag_43\n      jump\t// in\n    tag_250:\n        /* \"#utility.yul\":14285:14352   */\n      tag_251\n        /* \"#utility.yul\":14345:14351   */\n      dup3\n        /* \"#utility.yul\":14337:14343   */\n      dup3\n        /* \"#utility.yul\":14331:14335   */\n      dup6\n        /* \"#utility.yul\":14285:14352   */\n      tag_102\n      jump\t// in\n    tag_251:\n        /* \"#utility.yul\":14379:14380   */\n      0x00\n        /* \"#utility.yul\":14403:14407   */\n      0x20\n        /* \"#utility.yul\":14390:14407   */\n      swap1\n      pop\n        /* \"#utility.yul\":14435:14437   */\n      0x1f\n        /* \"#utility.yul\":14427:14433   */\n      dup4\n        /* \"#utility.yul\":14424:14438   */\n      gt\n        /* \"#utility.yul\":14452:14453   */\n      0x01\n        /* \"#utility.yul\":14447:15065   */\n      dup2\n      eq\n      tag_253\n      jumpi\n        /* \"#utility.yul\":15109:15110   */\n      0x00\n        /* \"#utility.yul\":15126:15132   */\n      dup5\n        /* \"#utility.yul\":15123:15200   */\n      iszero\n      tag_254\n      jumpi\n        /* \"#utility.yul\":15175:15184   */\n      dup3\n        /* \"#utility.yul\":15170:15173   */\n      dup8\n        /* \"#utility.yul\":15166:15185   */\n      add\n        /* \"#utility.yul\":15160:15186   */\n      mload\n        /* \"#utility.yul\":15151:15186   */\n      swap1\n      pop\n        /* \"#utility.yul\":15123:15200   */\n    tag_254:\n        /* \"#utility.yul\":15226:15293   */\n      tag_255\n        /* \"#utility.yul\":15286:15292   */\n      dup6\n        /* \"#utility.yul\":15279:15284   */\n      dup3\n        /* \"#utility.yul\":15226:15293   */\n      tag_105\n      jump\t// in\n    tag_255:\n        /* \"#utility.yul\":15220:15224   */\n      dup7\n        /* \"#utility.yul\":15213:15294   */\n      sstore\n        /* \"#utility.yul\":15082:15304   */\n      pop\n        /* \"#utility.yul\":14417:15304   */\n      jump(tag_252)\n        /* \"#utility.yul\":14447:15065   */\n    tag_253:\n        /* \"#utility.yul\":14499:14503   */\n      0x1f\n        /* \"#utility.yul\":14495:14504   */\n      not\n        /* \"#utility.yul\":14487:14493   */\n      dup5\n        /* \"#utility.yul\":14483:14505   */\n      and\n        /* \"#utility.yul\":14533:14570   */\n      tag_256\n        /* \"#utility.yul\":14565:14569   */\n      dup7\n        /* \"#utility.yul\":14533:14570   */\n      tag_90\n      jump\t// in\n    tag_256:\n        /* \"#utility.yul\":14592:14593   */\n      0x00\n        /* \"#utility.yul\":14606:14814   */\n    tag_257:\n        /* \"#utility.yul\":14620:14627   */\n      dup3\n        /* \"#utility.yul\":14617:14618   */\n      dup2\n        /* \"#utility.yul\":14614:14628   */\n      lt\n        /* \"#utility.yul\":14606:14814   */\n      iszero\n      tag_259\n      jumpi\n        /* \"#utility.yul\":14699:14708   */\n      dup5\n        /* \"#utility.yul\":14694:14697   */\n      dup10\n        /* \"#utility.yul\":14690:14709   */\n      add\n        /* \"#utility.yul\":14684:14710   */\n      mload\n        /* \"#utility.yul\":14676:14682   */\n      dup3\n        /* \"#utility.yul\":14669:14711   */\n      sstore\n        /* \"#utility.yul\":14750:14751   */\n      0x01\n        /* \"#utility.yul\":14742:14748   */\n      dup3\n        /* \"#utility.yul\":14738:14752   */\n      add\n        /* \"#utility.yul\":14728:14752   */\n      swap2\n      pop\n        /* \"#utility.yul\":14797:14799   */\n      0x20\n        /* \"#utility.yul\":14786:14795   */\n      dup6\n        /* \"#utility.yul\":14782:14800   */\n      add\n        /* \"#utility.yul\":14769:14800   */\n      swap5\n      pop\n        /* \"#utility.yul\":14643:14647   */\n      0x20\n        /* \"#utility.yul\":14640:14641   */\n      dup2\n        /* \"#utility.yul\":14636:14648   */\n      add\n        /* \"#utility.yul\":14631:14648   */\n      swap1\n      pop\n        /* \"#utility.yul\":14606:14814   */\n      jump(tag_257)\n    tag_259:\n        /* \"#utility.yul\":14842:14848   */\n      dup7\n        /* \"#utility.yul\":14833:14840   */\n      dup4\n        /* \"#utility.yul\":14830:14849   */\n      lt\n        /* \"#utility.yul\":14827:15006   */\n      iszero\n      tag_260\n      jumpi\n        /* \"#utility.yul\":14900:14909   */\n      dup5\n        /* \"#utility.yul\":14895:14898   */\n      dup10\n        /* \"#utility.yul\":14891:14910   */\n      add\n        /* \"#utility.yul\":14885:14911   */\n      mload\n        /* \"#utility.yul\":14943:14991   */\n      tag_261\n        /* \"#utility.yul\":14985:14989   */\n      0x1f\n        /* \"#utility.yul\":14977:14983   */\n      dup10\n        /* \"#utility.yul\":14973:14990   */\n      and\n        /* \"#utility.yul\":14962:14971   */\n      dup3\n        /* \"#utility.yul\":14943:14991   */\n      tag_104\n      jump\t// in\n    tag_261:\n        /* \"#utility.yul\":14935:14941   */\n      dup4\n        /* \"#utility.yul\":14928:14992   */\n      sstore\n        /* \"#utility.yul\":14850:15006   */\n      pop\n        /* \"#utility.yul\":14827:15006   */\n    tag_260:\n        /* \"#utility.yul\":15052:15053   */\n      0x01\n        /* \"#utility.yul\":15048:15049   */\n      0x02\n        /* \"#utility.yul\":15040:15046   */\n      dup9\n        /* \"#utility.yul\":15036:15050   */\n      mul\n        /* \"#utility.yul\":15032:15054   */\n      add\n        /* \"#utility.yul\":15026:15030   */\n      dup9\n        /* \"#utility.yul\":15019:15055   */\n      sstore\n        /* \"#utility.yul\":14454:15065   */\n      pop\n      pop\n      pop\n        /* \"#utility.yul\":14417:15304   */\n    tag_252:\n      pop\n        /* \"#utility.yul\":14007:15310   */\n      pop\n      pop\n      pop\n        /* \"#utility.yul\":13915:15310   */\n      pop\n      pop\n      jump\t// out\n\n    auxdata: 0xa26469706673582212204b8f95c916f6db014694726f4358c4d6905dfa084815c1e4519aca435df596ec64736f6c63430008120033\n}\n",
				"bytecode": {
					"linkReferences": {},
					"object": "608060405234801561001057600080fd5b50610dd8806100206000396000f3fe608060405234801561001057600080fd5b50600436106100575760003560e01c8063421b2d8b1461005c5780636ec67ec9146100785780638568e25914610094578063879df1f3146100b257806398575188146100e2575b600080fd5b6100766004803603810190610071919061062d565b6100fe565b005b610092600480360381019061008d91906107a0565b610158565b005b61009c6102f5565b6040516100a991906109bf565b60405180910390f35b6100cc60048036038101906100c7919061062d565b61050a565b6040516100d991906109fc565b60405180910390f35b6100fc60048036038101906100f7919061062d565b610560565b005b60018060008373ffffffffffffffffffffffffffffffffffffffff1673ffffffffffffffffffffffffffffffffffffffff16815260200190815260200160002060006101000a81548160ff02191690831515021790555050565b600160003373ffffffffffffffffffffffffffffffffffffffff1673ffffffffffffffffffffffffffffffffffffffff16815260200190815260200160002060009054906101000a900460ff166101e4576040517f08c379a00000000000000000000000000000000000000000000000000000000081526004016101db90610a9a565b60405180910390fd5b6000803373ffffffffffffffffffffffffffffffffffffffff1673ffffffffffffffffffffffffffffffffffffffff16815260200190815260200160002060405180606001604052808481526020018381526020013373ffffffffffffffffffffffffffffffffffffffff16815250908060018154018082558091505060019003906000526020600020906003020160009091909190915060008201518160000190816102919190610cd0565b5060208201518160010190816102a79190610cd0565b5060408201518160020160006101000a81548173ffffffffffffffffffffffffffffffffffffffff021916908373ffffffffffffffffffffffffffffffffffffffff16021790555050505050565b60606000803373ffffffffffffffffffffffffffffffffffffffff1673ffffffffffffffffffffffffffffffffffffffff168152602001908152602001600020805480602002602001604051908101604052809291908181526020016000905b82821015610501578382906000526020600020906003020160405180606001604052908160008201805461038890610ae9565b80601f01602080910402602001604051908101604052809291908181526020018280546103b490610ae9565b80156104015780601f106103d657610100808354040283529160200191610401565b820191906000526020600020905b8154815290600101906020018083116103e457829003601f168201915b5050505050815260200160018201805461041a90610ae9565b80601f016020809104026020016040519081016040528092919081815260200182805461044690610ae9565b80156104935780601f1061046857610100808354040283529160200191610493565b820191906000526020600020905b81548152906001019060200180831161047657829003601f168201915b505050505081526020016002820160009054906101000a900473ffffffffffffffffffffffffffffffffffffffff1673ffffffffffffffffffffffffffffffffffffffff1673ffffffffffffffffffffffffffffffffffffffff168152505081526020019060010190610355565b50505050905090565b6000600160008373ffffffffffffffffffffffffffffffffffffffff1673ffffffffffffffffffffffffffffffffffffffff16815260200190815260200160002060009054906101000a900460ff169050919050565b6000600160008373ffffffffffffffffffffffffffffffffffffffff1673ffffffffffffffffffffffffffffffffffffffff16815260200190815260200160002060006101000a81548160ff02191690831515021790555050565b6000604051905090565b600080fd5b600080fd5b600073ffffffffffffffffffffffffffffffffffffffff82169050919050565b60006105fa826105cf565b9050919050565b61060a816105ef565b811461061557600080fd5b50565b60008135905061062781610601565b92915050565b600060208284031215610643576106426105c5565b5b600061065184828501610618565b91505092915050565b600080fd5b600080fd5b6000601f19601f8301169050919050565b7f4e487b7100000000000000000000000000000000000000000000000000000000600052604160045260246000fd5b6106ad82610664565b810181811067ffffffffffffffff821117156106cc576106cb610675565b5b80604052505050565b60006106df6105bb565b90506106eb82826106a4565b919050565b600067ffffffffffffffff82111561070b5761070a610675565b5b61071482610664565b9050602081019050919050565b82818337600083830152505050565b600061074361073e846106f0565b6106d5565b90508281526020810184848401111561075f5761075e61065f565b5b61076a848285610721565b509392505050565b600082601f8301126107875761078661065a565b5b8135610797848260208601610730565b91505092915050565b600080604083850312156107b7576107b66105c5565b5b600083013567ffffffffffffffff8111156107d5576107d46105ca565b5b6107e185828601610772565b925050602083013567ffffffffffffffff811115610802576108016105ca565b5b61080e85828601610772565b9150509250929050565b600081519050919050565b600082825260208201905092915050565b6000819050602082019050919050565b600081519050919050565b600082825260208201905092915050565b60005b8381101561087e578082015181840152602081019050610863565b60008484015250505050565b600061089582610844565b61089f818561084f565b93506108af818560208601610860565b6108b881610664565b840191505092915050565b6108cc816105ef565b82525050565b600060608301600083015184820360008601526108ef828261088a565b91505060208301518482036020860152610909828261088a565b915050604083015161091e60408601826108c3565b508091505092915050565b600061093583836108d2565b905092915050565b6000602082019050919050565b600061095582610818565b61095f8185610823565b93508360208202850161097185610834565b8060005b858110156109ad578484038952815161098e8582610929565b94506109998361093d565b925060208a01995050600181019050610975565b50829750879550505050505092915050565b600060208201905081810360008301526109d9818461094a565b905092915050565b60008115159050919050565b6109f6816109e1565b82525050565b6000602082019050610a1160008301846109ed565b92915050565b600082825260208201905092915050565b7f4f6e6c7920656c696769626c652075736572732063616e20706572666f726d2060008201527f7468697320616374696f6e000000000000000000000000000000000000000000602082015250565b6000610a84602b83610a17565b9150610a8f82610a28565b604082019050919050565b60006020820190508181036000830152610ab381610a77565b9050919050565b7f4e487b7100000000000000000000000000000000000000000000000000000000600052602260045260246000fd5b60006002820490506001821680610b0157607f821691505b602082108103610b1457610b13610aba565b5b50919050565b60008190508160005260206000209050919050565b60006020601f8301049050919050565b600082821b905092915050565b600060088302610b7c7fffffffffffffffffffffffffffffffffffffffffffffffffffffffffffffffff82610b3f565b610b868683610b3f565b95508019841693508086168417925050509392505050565b6000819050919050565b6000819050919050565b6000610bcd610bc8610bc384610b9e565b610ba8565b610b9e565b9050919050565b6000819050919050565b610be783610bb2565b610bfb610bf382610bd4565b848454610b4c565b825550505050565b600090565b610c10610c03565b610c1b818484610bde565b505050565b5b81811015610c3f57610c34600082610c08565b600181019050610c21565b5050565b601f821115610c8457610c5581610b1a565b610c5e84610b2f565b81016020851015610c6d578190505b610c81610c7985610b2f565b830182610c20565b50505b505050565b600082821c905092915050565b6000610ca760001984600802610c89565b1980831691505092915050565b6000610cc08383610c96565b9150826002028217905092915050565b610cd982610844565b67ffffffffffffffff811115610cf257610cf1610675565b5b610cfc8254610ae9565b610d07828285610c43565b600060209050601f831160018114610d3a5760008415610d28578287015190505b610d328582610cb4565b865550610d9a565b601f198416610d4886610b1a565b60005b82811015610d7057848901518255600182019150602085019450602081019050610d4b565b86831015610d8d5784890151610d89601f891682610c96565b8355505b6001600288020188555050505b50505050505056fea26469706673582212204b8f95c916f6db014694726f4358c4d6905dfa084815c1e4519aca435df596ec64736f6c63430008120033",
					"opcodes": "PUSH1 0x80 PUSH1 0x40 MSTORE CALLVALUE DUP1 ISZERO PUSH2 0x10 JUMPI PUSH1 0x0 DUP1 REVERT JUMPDEST POP PUSH2 0xDD8 DUP1 PUSH2 0x20 PUSH1 0x0 CODECOPY PUSH1 0x0 RETURN INVALID PUSH1 0x80 PUSH1 0x40 MSTORE CALLVALUE DUP1 ISZERO PUSH2 0x10 JUMPI PUSH1 0x0 DUP1 REVERT JUMPDEST POP PUSH1 0x4 CALLDATASIZE LT PUSH2 0x57 JUMPI PUSH1 0x0 CALLDATALOAD PUSH1 0xE0 SHR DUP1 PUSH4 0x421B2D8B EQ PUSH2 0x5C JUMPI DUP1 PUSH4 0x6EC67EC9 EQ PUSH2 0x78 JUMPI DUP1 PUSH4 0x8568E259 EQ PUSH2 0x94 JUMPI DUP1 PUSH4 0x879DF1F3 EQ PUSH2 0xB2 JUMPI DUP1 PUSH4 0x98575188 EQ PUSH2 0xE2 JUMPI JUMPDEST PUSH1 0x0 DUP1 REVERT JUMPDEST PUSH2 0x76 PUSH1 0x4 DUP1 CALLDATASIZE SUB DUP2 ADD SWAP1 PUSH2 0x71 SWAP2 SWAP1 PUSH2 0x62D JUMP JUMPDEST PUSH2 0xFE JUMP JUMPDEST STOP JUMPDEST PUSH2 0x92 PUSH1 0x4 DUP1 CALLDATASIZE SUB DUP2 ADD SWAP1 PUSH2 0x8D SWAP2 SWAP1 PUSH2 0x7A0 JUMP JUMPDEST PUSH2 0x158 JUMP JUMPDEST STOP JUMPDEST PUSH2 0x9C PUSH2 0x2F5 JUMP JUMPDEST PUSH1 0x40 MLOAD PUSH2 0xA9 SWAP2 SWAP1 PUSH2 0x9BF JUMP JUMPDEST PUSH1 0x40 MLOAD DUP1 SWAP2 SUB SWAP1 RETURN JUMPDEST PUSH2 0xCC PUSH1 0x4 DUP1 CALLDATASIZE SUB DUP2 ADD SWAP1 PUSH2 0xC7 SWAP2 SWAP1 PUSH2 0x62D JUMP JUMPDEST PUSH2 0x50A JUMP JUMPDEST PUSH1 0x40 MLOAD PUSH2 0xD9 SWAP2 SWAP1 PUSH2 0x9FC JUMP JUMPDEST PUSH1 0x40 MLOAD DUP1 SWAP2 SUB SWAP1 RETURN JUMPDEST PUSH2 0xFC PUSH1 0x4 DUP1 CALLDATASIZE SUB DUP2 ADD SWAP1 PUSH2 0xF7 SWAP2 SWAP1 PUSH2 0x62D JUMP JUMPDEST PUSH2 0x560 JUMP JUMPDEST STOP JUMPDEST PUSH1 0x1 DUP1 PUSH1 0x0 DUP4 PUSH20 0xFFFFFFFFFFFFFFFFFFFFFFFFFFFFFFFFFFFFFFFF AND PUSH20 0xFFFFFFFFFFFFFFFFFFFFFFFFFFFFFFFFFFFFFFFF AND DUP2 MSTORE PUSH1 0x20 ADD SWAP1 DUP2 MSTORE PUSH1 0x20 ADD PUSH1 0x0 KECCAK256 PUSH1 0x0 PUSH2 0x100 EXP DUP2 SLOAD DUP2 PUSH1 0xFF MUL NOT AND SWAP1 DUP4 ISZERO ISZERO MUL OR SWAP1 SSTORE POP POP JUMP JUMPDEST PUSH1 0x1 PUSH1 0x0 CALLER PUSH20 0xFFFFFFFFFFFFFFFFFFFFFFFFFFFFFFFFFFFFFFFF AND PUSH20 0xFFFFFFFFFFFFFFFFFFFFFFFFFFFFFFFFFFFFFFFF AND DUP2 MSTORE PUSH1 0x20 ADD SWAP1 DUP2 MSTORE PUSH1 0x20 ADD PUSH1 0x0 KECCAK256 PUSH1 0x0 SWAP1 SLOAD SWAP1 PUSH2 0x100 EXP SWAP1 DIV PUSH1 0xFF AND PUSH2 0x1E4 JUMPI PUSH1 0x40 MLOAD PUSH32 0x8C379A000000000000000000000000000000000000000000000000000000000 DUP2 MSTORE PUSH1 0x4 ADD PUSH2 0x1DB SWAP1 PUSH2 0xA9A JUMP JUMPDEST PUSH1 0x40 MLOAD DUP1 SWAP2 SUB SWAP1 REVERT JUMPDEST PUSH1 0x0 DUP1 CALLER PUSH20 0xFFFFFFFFFFFFFFFFFFFFFFFFFFFFFFFFFFFFFFFF AND PUSH20 0xFFFFFFFFFFFFFFFFFFFFFFFFFFFFFFFFFFFFFFFF AND DUP2 MSTORE PUSH1 0x20 ADD SWAP1 DUP2 MSTORE PUSH1 0x20 ADD PUSH1 0x0 KECCAK256 PUSH1 0x40 MLOAD DUP1 PUSH1 0x60 ADD PUSH1 0x40 MSTORE DUP1 DUP5 DUP2 MSTORE PUSH1 0x20 ADD DUP4 DUP2 MSTORE PUSH1 0x20 ADD CALLER PUSH20 0xFFFFFFFFFFFFFFFFFFFFFFFFFFFFFFFFFFFFFFFF AND DUP2 MSTORE POP SWAP1 DUP1 PUSH1 0x1 DUP2 SLOAD ADD DUP1 DUP3 SSTORE DUP1 SWAP2 POP POP PUSH1 0x1 SWAP1 SUB SWAP1 PUSH1 0x0 MSTORE PUSH1 0x20 PUSH1 0x0 KECCAK256 SWAP1 PUSH1 0x3 MUL ADD PUSH1 0x0 SWAP1 SWAP2 SWAP1 SWAP2 SWAP1 SWAP2 POP PUSH1 0x0 DUP3 ADD MLOAD DUP2 PUSH1 0x0 ADD SWAP1 DUP2 PUSH2 0x291 SWAP2 SWAP1 PUSH2 0xCD0 JUMP JUMPDEST POP PUSH1 0x20 DUP3 ADD MLOAD DUP2 PUSH1 0x1 ADD SWAP1 DUP2 PUSH2 0x2A7 SWAP2 SWAP1 PUSH2 0xCD0 JUMP JUMPDEST POP PUSH1 0x40 DUP3 ADD MLOAD DUP2 PUSH1 0x2 ADD PUSH1 0x0 PUSH2 0x100 EXP DUP2 SLOAD DUP2 PUSH20 0xFFFFFFFFFFFFFFFFFFFFFFFFFFFFFFFFFFFFFFFF MUL NOT AND SWAP1 DUP4 PUSH20 0xFFFFFFFFFFFFFFFFFFFFFFFFFFFFFFFFFFFFFFFF AND MUL OR SWAP1 SSTORE POP POP POP POP POP JUMP JUMPDEST PUSH1 0x60 PUSH1 0x0 DUP1 CALLER PUSH20 0xFFFFFFFFFFFFFFFFFFFFFFFFFFFFFFFFFFFFFFFF AND PUSH20 0xFFFFFFFFFFFFFFFFFFFFFFFFFFFFFFFFFFFFFFFF AND DUP2 MSTORE PUSH1 0x20 ADD SWAP1 DUP2 MSTORE PUSH1 0x20 ADD PUSH1 0x0 KECCAK256 DUP1 SLOAD DUP1 PUSH1 0x20 MUL PUSH1 0x20 ADD PUSH1 0x40 MLOAD SWAP1 DUP2 ADD PUSH1 0x40 MSTORE DUP1 SWAP3 SWAP2 SWAP1 DUP2 DUP2 MSTORE PUSH1 0x20 ADD PUSH1 0x0 SWAP1 JUMPDEST DUP3 DUP3 LT ISZERO PUSH2 0x501 JUMPI DUP4 DUP3 SWAP1 PUSH1 0x0 MSTORE PUSH1 0x20 PUSH1 0x0 KECCAK256 SWAP1 PUSH1 0x3 MUL ADD PUSH1 0x40 MLOAD DUP1 PUSH1 0x60 ADD PUSH1 0x40 MSTORE SWAP1 DUP2 PUSH1 0x0 DUP3 ADD DUP1 SLOAD PUSH2 0x388 SWAP1 PUSH2 0xAE9 JUMP JUMPDEST DUP1 PUSH1 0x1F ADD PUSH1 0x20 DUP1 SWAP2 DIV MUL PUSH1 0x20 ADD PUSH1 0x40 MLOAD SWAP1 DUP2 ADD PUSH1 0x40 MSTORE DUP1 SWAP3 SWAP2 SWAP1 DUP2 DUP2 MSTORE PUSH1 0x20 ADD DUP3 DUP1 SLOAD PUSH2 0x3B4 SWAP1 PUSH2 0xAE9 JUMP JUMPDEST DUP1 ISZERO PUSH2 0x401 JUMPI DUP1 PUSH1 0x1F LT PUSH2 0x3D6 JUMPI PUSH2 0x100 DUP1 DUP4 SLOAD DIV MUL DUP4 MSTORE SWAP2 PUSH1 0x20 ADD SWAP2 PUSH2 0x401 JUMP JUMPDEST DUP3 ADD SWAP2 SWAP1 PUSH1 0x0 MSTORE PUSH1 0x20 PUSH1 0x0 KECCAK256 SWAP1 JUMPDEST DUP2 SLOAD DUP2 MSTORE SWAP1 PUSH1 0x1 ADD SWAP1 PUSH1 0x20 ADD DUP1 DUP4 GT PUSH2 0x3E4 JUMPI DUP3 SWAP1 SUB PUSH1 0x1F AND DUP3 ADD SWAP2 JUMPDEST POP POP POP POP POP DUP2 MSTORE PUSH1 0x20 ADD PUSH1 0x1 DUP3 ADD DUP1 SLOAD PUSH2 0x41A SWAP1 PUSH2 0xAE9 JUMP JUMPDEST DUP1 PUSH1 0x1F ADD PUSH1 0x20 DUP1 SWAP2 DIV MUL PUSH1 0x20 ADD PUSH1 0x40 MLOAD SWAP1 DUP2 ADD PUSH1 0x40 MSTORE DUP1 SWAP3 SWAP2 SWAP1 DUP2 DUP2 MSTORE PUSH1 0x20 ADD DUP3 DUP1 SLOAD PUSH2 0x446 SWAP1 PUSH2 0xAE9 JUMP JUMPDEST DUP1 ISZERO PUSH2 0x493 JUMPI DUP1 PUSH1 0x1F LT PUSH2 0x468 JUMPI PUSH2 0x100 DUP1 DUP4 SLOAD DIV MUL DUP4 MSTORE SWAP2 PUSH1 0x20 ADD SWAP2 PUSH2 0x493 JUMP JUMPDEST DUP3 ADD SWAP2 SWAP1 PUSH1 0x0 MSTORE PUSH1 0x20 PUSH1 0x0 KECCAK256 SWAP1 JUMPDEST DUP2 SLOAD DUP2 MSTORE SWAP1 PUSH1 0x1 ADD SWAP1 PUSH1 0x20 ADD DUP1 DUP4 GT PUSH2 0x476 JUMPI DUP3 SWAP1 SUB PUSH1 0x1F AND DUP3 ADD SWAP2 JUMPDEST POP POP POP POP POP DUP2 MSTORE PUSH1 0x20 ADD PUSH1 0x2 DUP3 ADD PUSH1 0x0 SWAP1 SLOAD SWAP1 PUSH2 0x100 EXP SWAP1 DIV PUSH20 0xFFFFFFFFFFFFFFFFFFFFFFFFFFFFFFFFFFFFFFFF AND PUSH20 0xFFFFFFFFFFFFFFFFFFFFFFFFFFFFFFFFFFFFFFFF AND PUSH20 0xFFFFFFFFFFFFFFFFFFFFFFFFFFFFFFFFFFFFFFFF AND DUP2 MSTORE POP POP DUP2 MSTORE PUSH1 0x20 ADD SWAP1 PUSH1 0x1 ADD SWAP1 PUSH2 0x355 JUMP JUMPDEST POP POP POP POP SWAP1 POP SWAP1 JUMP JUMPDEST PUSH1 0x0 PUSH1 0x1 PUSH1 0x0 DUP4 PUSH20 0xFFFFFFFFFFFFFFFFFFFFFFFFFFFFFFFFFFFFFFFF AND PUSH20 0xFFFFFFFFFFFFFFFFFFFFFFFFFFFFFFFFFFFFFFFF AND DUP2 MSTORE PUSH1 0x20 ADD SWAP1 DUP2 MSTORE PUSH1 0x20 ADD PUSH1 0x0 KECCAK256 PUSH1 0x0 SWAP1 SLOAD SWAP1 PUSH2 0x100 EXP SWAP1 DIV PUSH1 0xFF AND SWAP1 POP SWAP2 SWAP1 POP JUMP JUMPDEST PUSH1 0x0 PUSH1 0x1 PUSH1 0x0 DUP4 PUSH20 0xFFFFFFFFFFFFFFFFFFFFFFFFFFFFFFFFFFFFFFFF AND PUSH20 0xFFFFFFFFFFFFFFFFFFFFFFFFFFFFFFFFFFFFFFFF AND DUP2 MSTORE PUSH1 0x20 ADD SWAP1 DUP2 MSTORE PUSH1 0x20 ADD PUSH1 0x0 KECCAK256 PUSH1 0x0 PUSH2 0x100 EXP DUP2 SLOAD DUP2 PUSH1 0xFF MUL NOT AND SWAP1 DUP4 ISZERO ISZERO MUL OR SWAP1 SSTORE POP POP JUMP JUMPDEST PUSH1 0x0 PUSH1 0x40 MLOAD SWAP1 POP SWAP1 JUMP JUMPDEST PUSH1 0x0 DUP1 REVERT JUMPDEST PUSH1 0x0 DUP1 REVERT JUMPDEST PUSH1 0x0 PUSH20 0xFFFFFFFFFFFFFFFFFFFFFFFFFFFFFFFFFFFFFFFF DUP3 AND SWAP1 POP SWAP2 SWAP1 POP JUMP JUMPDEST PUSH1 0x0 PUSH2 0x5FA DUP3 PUSH2 0x5CF JUMP JUMPDEST SWAP1 POP SWAP2 SWAP1 POP JUMP JUMPDEST PUSH2 0x60A DUP2 PUSH2 0x5EF JUMP JUMPDEST DUP2 EQ PUSH2 0x615 JUMPI PUSH1 0x0 DUP1 REVERT JUMPDEST POP JUMP JUMPDEST PUSH1 0x0 DUP2 CALLDATALOAD SWAP1 POP PUSH2 0x627 DUP2 PUSH2 0x601 JUMP JUMPDEST SWAP3 SWAP2 POP POP JUMP JUMPDEST PUSH1 0x0 PUSH1 0x20 DUP3 DUP5 SUB SLT ISZERO PUSH2 0x643 JUMPI PUSH2 0x642 PUSH2 0x5C5 JUMP JUMPDEST JUMPDEST PUSH1 0x0 PUSH2 0x651 DUP5 DUP3 DUP6 ADD PUSH2 0x618 JUMP JUMPDEST SWAP2 POP POP SWAP3 SWAP2 POP POP JUMP JUMPDEST PUSH1 0x0 DUP1 REVERT JUMPDEST PUSH1 0x0 DUP1 REVERT JUMPDEST PUSH1 0x0 PUSH1 0x1F NOT PUSH1 0x1F DUP4 ADD AND SWAP1 POP SWAP2 SWAP1 POP JUMP JUMPDEST PUSH32 0x4E487B7100000000000000000000000000000000000000000000000000000000 PUSH1 0x0 MSTORE PUSH1 0x41 PUSH1 0x4 MSTORE PUSH1 0x24 PUSH1 0x0 REVERT JUMPDEST PUSH2 0x6AD DUP3 PUSH2 0x664 JUMP JUMPDEST DUP2 ADD DUP2 DUP2 LT PUSH8 0xFFFFFFFFFFFFFFFF DUP3 GT OR ISZERO PUSH2 0x6CC JUMPI PUSH2 0x6CB PUSH2 0x675 JUMP JUMPDEST JUMPDEST DUP1 PUSH1 0x40 MSTORE POP POP POP JUMP JUMPDEST PUSH1 0x0 PUSH2 0x6DF PUSH2 0x5BB JUMP JUMPDEST SWAP1 POP PUSH2 0x6EB DUP3 DUP3 PUSH2 0x6A4 JUMP JUMPDEST SWAP2 SWAP1 POP JUMP JUMPDEST PUSH1 0x0 PUSH8 0xFFFFFFFFFFFFFFFF DUP3 GT ISZERO PUSH2 0x70B JUMPI PUSH2 0x70A PUSH2 0x675 JUMP JUMPDEST JUMPDEST PUSH2 0x714 DUP3 PUSH2 0x664 JUMP JUMPDEST SWAP1 POP PUSH1 0x20 DUP2 ADD SWAP1 POP SWAP2 SWAP1 POP JUMP JUMPDEST DUP3 DUP2 DUP4 CALLDATACOPY PUSH1 0x0 DUP4 DUP4 ADD MSTORE POP POP POP JUMP JUMPDEST PUSH1 0x0 PUSH2 0x743 PUSH2 0x73E DUP5 PUSH2 0x6F0 JUMP JUMPDEST PUSH2 0x6D5 JUMP JUMPDEST SWAP1 POP DUP3 DUP2 MSTORE PUSH1 0x20 DUP2 ADD DUP5 DUP5 DUP5 ADD GT ISZERO PUSH2 0x75F JUMPI PUSH2 0x75E PUSH2 0x65F JUMP JUMPDEST JUMPDEST PUSH2 0x76A DUP5 DUP3 DUP6 PUSH2 0x721 JUMP JUMPDEST POP SWAP4 SWAP3 POP POP POP JUMP JUMPDEST PUSH1 0x0 DUP3 PUSH1 0x1F DUP4 ADD SLT PUSH2 0x787 JUMPI PUSH2 0x786 PUSH2 0x65A JUMP JUMPDEST JUMPDEST DUP2 CALLDATALOAD PUSH2 0x797 DUP5 DUP3 PUSH1 0x20 DUP7 ADD PUSH2 0x730 JUMP JUMPDEST SWAP2 POP POP SWAP3 SWAP2 POP POP JUMP JUMPDEST PUSH1 0x0 DUP1 PUSH1 0x40 DUP4 DUP6 SUB SLT ISZERO PUSH2 0x7B7 JUMPI PUSH2 0x7B6 PUSH2 0x5C5 JUMP JUMPDEST JUMPDEST PUSH1 0x0 DUP4 ADD CALLDATALOAD PUSH8 0xFFFFFFFFFFFFFFFF DUP2 GT ISZERO PUSH2 0x7D5 JUMPI PUSH2 0x7D4 PUSH2 0x5CA JUMP JUMPDEST JUMPDEST PUSH2 0x7E1 DUP6 DUP3 DUP7 ADD PUSH2 0x772 JUMP JUMPDEST SWAP3 POP POP PUSH1 0x20 DUP4 ADD CALLDATALOAD PUSH8 0xFFFFFFFFFFFFFFFF DUP2 GT ISZERO PUSH2 0x802 JUMPI PUSH2 0x801 PUSH2 0x5CA JUMP JUMPDEST JUMPDEST PUSH2 0x80E DUP6 DUP3 DUP7 ADD PUSH2 0x772 JUMP JUMPDEST SWAP2 POP POP SWAP3 POP SWAP3 SWAP1 POP JUMP JUMPDEST PUSH1 0x0 DUP2 MLOAD SWAP1 POP SWAP2 SWAP1 POP JUMP JUMPDEST PUSH1 0x0 DUP3 DUP3 MSTORE PUSH1 0x20 DUP3 ADD SWAP1 POP SWAP3 SWAP2 POP POP JUMP JUMPDEST PUSH1 0x0 DUP2 SWAP1 POP PUSH1 0x20 DUP3 ADD SWAP1 POP SWAP2 SWAP1 POP JUMP JUMPDEST PUSH1 0x0 DUP2 MLOAD SWAP1 POP SWAP2 SWAP1 POP JUMP JUMPDEST PUSH1 0x0 DUP3 DUP3 MSTORE PUSH1 0x20 DUP3 ADD SWAP1 POP SWAP3 SWAP2 POP POP JUMP JUMPDEST PUSH1 0x0 JUMPDEST DUP4 DUP2 LT ISZERO PUSH2 0x87E JUMPI DUP1 DUP3 ADD MLOAD DUP2 DUP5 ADD MSTORE PUSH1 0x20 DUP2 ADD SWAP1 POP PUSH2 0x863 JUMP JUMPDEST PUSH1 0x0 DUP5 DUP5 ADD MSTORE POP POP POP POP JUMP JUMPDEST PUSH1 0x0 PUSH2 0x895 DUP3 PUSH2 0x844 JUMP JUMPDEST PUSH2 0x89F DUP2 DUP6 PUSH2 0x84F JUMP JUMPDEST SWAP4 POP PUSH2 0x8AF DUP2 DUP6 PUSH1 0x20 DUP7 ADD PUSH2 0x860 JUMP JUMPDEST PUSH2 0x8B8 DUP2 PUSH2 0x664 JUMP JUMPDEST DUP5 ADD SWAP2 POP POP SWAP3 SWAP2 POP POP JUMP JUMPDEST PUSH2 0x8CC DUP2 PUSH2 0x5EF JUMP JUMPDEST DUP3 MSTORE POP POP JUMP JUMPDEST PUSH1 0x0 PUSH1 0x60 DUP4 ADD PUSH1 0x0 DUP4 ADD MLOAD DUP5 DUP3 SUB PUSH1 0x0 DUP7 ADD MSTORE PUSH2 0x8EF DUP3 DUP3 PUSH2 0x88A JUMP JUMPDEST SWAP2 POP POP PUSH1 0x20 DUP4 ADD MLOAD DUP5 DUP3 SUB PUSH1 0x20 DUP7 ADD MSTORE PUSH2 0x909 DUP3 DUP3 PUSH2 0x88A JUMP JUMPDEST SWAP2 POP POP PUSH1 0x40 DUP4 ADD MLOAD PUSH2 0x91E PUSH1 0x40 DUP7 ADD DUP3 PUSH2 0x8C3 JUMP JUMPDEST POP DUP1 SWAP2 POP POP SWAP3 SWAP2 POP POP JUMP JUMPDEST PUSH1 0x0 PUSH2 0x935 DUP4 DUP4 PUSH2 0x8D2 JUMP JUMPDEST SWAP1 POP SWAP3 SWAP2 POP POP JUMP JUMPDEST PUSH1 0x0 PUSH1 0x20 DUP3 ADD SWAP1 POP SWAP2 SWAP1 POP JUMP JUMPDEST PUSH1 0x0 PUSH2 0x955 DUP3 PUSH2 0x818 JUMP JUMPDEST PUSH2 0x95F DUP2 DUP6 PUSH2 0x823 JUMP JUMPDEST SWAP4 POP DUP4 PUSH1 0x20 DUP3 MUL DUP6 ADD PUSH2 0x971 DUP6 PUSH2 0x834 JUMP JUMPDEST DUP1 PUSH1 0x0 JUMPDEST DUP6 DUP2 LT ISZERO PUSH2 0x9AD JUMPI DUP5 DUP5 SUB DUP10 MSTORE DUP2 MLOAD PUSH2 0x98E DUP6 DUP3 PUSH2 0x929 JUMP JUMPDEST SWAP5 POP PUSH2 0x999 DUP4 PUSH2 0x93D JUMP JUMPDEST SWAP3 POP PUSH1 0x20 DUP11 ADD SWAP10 POP POP PUSH1 0x1 DUP2 ADD SWAP1 POP PUSH2 0x975 JUMP JUMPDEST POP DUP3 SWAP8 POP DUP8 SWAP6 POP POP POP POP POP POP SWAP3 SWAP2 POP POP JUMP JUMPDEST PUSH1 0x0 PUSH1 0x20 DUP3 ADD SWAP1 POP DUP2 DUP2 SUB PUSH1 0x0 DUP4 ADD MSTORE PUSH2 0x9D9 DUP2 DUP5 PUSH2 0x94A JUMP JUMPDEST SWAP1 POP SWAP3 SWAP2 POP POP JUMP JUMPDEST PUSH1 0x0 DUP2 ISZERO ISZERO SWAP1 POP SWAP2 SWAP1 POP JUMP JUMPDEST PUSH2 0x9F6 DUP2 PUSH2 0x9E1 JUMP JUMPDEST DUP3 MSTORE POP POP JUMP JUMPDEST PUSH1 0x0 PUSH1 0x20 DUP3 ADD SWAP1 POP PUSH2 0xA11 PUSH1 0x0 DUP4 ADD DUP5 PUSH2 0x9ED JUMP JUMPDEST SWAP3 SWAP2 POP POP JUMP JUMPDEST PUSH1 0x0 DUP3 DUP3 MSTORE PUSH1 0x20 DUP3 ADD SWAP1 POP SWAP3 SWAP2 POP POP JUMP JUMPDEST PUSH32 0x4F6E6C7920656C696769626C652075736572732063616E20706572666F726D20 PUSH1 0x0 DUP3 ADD MSTORE PUSH32 0x7468697320616374696F6E000000000000000000000000000000000000000000 PUSH1 0x20 DUP3 ADD MSTORE POP JUMP JUMPDEST PUSH1 0x0 PUSH2 0xA84 PUSH1 0x2B DUP4 PUSH2 0xA17 JUMP JUMPDEST SWAP2 POP PUSH2 0xA8F DUP3 PUSH2 0xA28 JUMP JUMPDEST PUSH1 0x40 DUP3 ADD SWAP1 POP SWAP2 SWAP1 POP JUMP JUMPDEST PUSH1 0x0 PUSH1 0x20 DUP3 ADD SWAP1 POP DUP2 DUP2 SUB PUSH1 0x0 DUP4 ADD MSTORE PUSH2 0xAB3 DUP2 PUSH2 0xA77 JUMP JUMPDEST SWAP1 POP SWAP2 SWAP1 POP JUMP JUMPDEST PUSH32 0x4E487B7100000000000000000000000000000000000000000000000000000000 PUSH1 0x0 MSTORE PUSH1 0x22 PUSH1 0x4 MSTORE PUSH1 0x24 PUSH1 0x0 REVERT JUMPDEST PUSH1 0x0 PUSH1 0x2 DUP3 DIV SWAP1 POP PUSH1 0x1 DUP3 AND DUP1 PUSH2 0xB01 JUMPI PUSH1 0x7F DUP3 AND SWAP2 POP JUMPDEST PUSH1 0x20 DUP3 LT DUP2 SUB PUSH2 0xB14 JUMPI PUSH2 0xB13 PUSH2 0xABA JUMP JUMPDEST JUMPDEST POP SWAP2 SWAP1 POP JUMP JUMPDEST PUSH1 0x0 DUP2 SWAP1 POP DUP2 PUSH1 0x0 MSTORE PUSH1 0x20 PUSH1 0x0 KECCAK256 SWAP1 POP SWAP2 SWAP1 POP JUMP JUMPDEST PUSH1 0x0 PUSH1 0x20 PUSH1 0x1F DUP4 ADD DIV SWAP1 POP SWAP2 SWAP1 POP JUMP JUMPDEST PUSH1 0x0 DUP3 DUP3 SHL SWAP1 POP SWAP3 SWAP2 POP POP JUMP JUMPDEST PUSH1 0x0 PUSH1 0x8 DUP4 MUL PUSH2 0xB7C PUSH32 0xFFFFFFFFFFFFFFFFFFFFFFFFFFFFFFFFFFFFFFFFFFFFFFFFFFFFFFFFFFFFFFFF DUP3 PUSH2 0xB3F JUMP JUMPDEST PUSH2 0xB86 DUP7 DUP4 PUSH2 0xB3F JUMP JUMPDEST SWAP6 POP DUP1 NOT DUP5 AND SWAP4 POP DUP1 DUP7 AND DUP5 OR SWAP3 POP POP POP SWAP4 SWAP3 POP POP POP JUMP JUMPDEST PUSH1 0x0 DUP2 SWAP1 POP SWAP2 SWAP1 POP JUMP JUMPDEST PUSH1 0x0 DUP2 SWAP1 POP SWAP2 SWAP1 POP JUMP JUMPDEST PUSH1 0x0 PUSH2 0xBCD PUSH2 0xBC8 PUSH2 0xBC3 DUP5 PUSH2 0xB9E JUMP JUMPDEST PUSH2 0xBA8 JUMP JUMPDEST PUSH2 0xB9E JUMP JUMPDEST SWAP1 POP SWAP2 SWAP1 POP JUMP JUMPDEST PUSH1 0x0 DUP2 SWAP1 POP SWAP2 SWAP1 POP JUMP JUMPDEST PUSH2 0xBE7 DUP4 PUSH2 0xBB2 JUMP JUMPDEST PUSH2 0xBFB PUSH2 0xBF3 DUP3 PUSH2 0xBD4 JUMP JUMPDEST DUP5 DUP5 SLOAD PUSH2 0xB4C JUMP JUMPDEST DUP3 SSTORE POP POP POP POP JUMP JUMPDEST PUSH1 0x0 SWAP1 JUMP JUMPDEST PUSH2 0xC10 PUSH2 0xC03 JUMP JUMPDEST PUSH2 0xC1B DUP2 DUP5 DUP5 PUSH2 0xBDE JUMP JUMPDEST POP POP POP JUMP JUMPDEST JUMPDEST DUP2 DUP2 LT ISZERO PUSH2 0xC3F JUMPI PUSH2 0xC34 PUSH1 0x0 DUP3 PUSH2 0xC08 JUMP JUMPDEST PUSH1 0x1 DUP2 ADD SWAP1 POP PUSH2 0xC21 JUMP JUMPDEST POP POP JUMP JUMPDEST PUSH1 0x1F DUP3 GT ISZERO PUSH2 0xC84 JUMPI PUSH2 0xC55 DUP2 PUSH2 0xB1A JUMP JUMPDEST PUSH2 0xC5E DUP5 PUSH2 0xB2F JUMP JUMPDEST DUP2 ADD PUSH1 0x20 DUP6 LT ISZERO PUSH2 0xC6D JUMPI DUP2 SWAP1 POP JUMPDEST PUSH2 0xC81 PUSH2 0xC79 DUP6 PUSH2 0xB2F JUMP JUMPDEST DUP4 ADD DUP3 PUSH2 0xC20 JUMP JUMPDEST POP POP JUMPDEST POP POP POP JUMP JUMPDEST PUSH1 0x0 DUP3 DUP3 SHR SWAP1 POP SWAP3 SWAP2 POP POP JUMP JUMPDEST PUSH1 0x0 PUSH2 0xCA7 PUSH1 0x0 NOT DUP5 PUSH1 0x8 MUL PUSH2 0xC89 JUMP JUMPDEST NOT DUP1 DUP4 AND SWAP2 POP POP SWAP3 SWAP2 POP POP JUMP JUMPDEST PUSH1 0x0 PUSH2 0xCC0 DUP4 DUP4 PUSH2 0xC96 JUMP JUMPDEST SWAP2 POP DUP3 PUSH1 0x2 MUL DUP3 OR SWAP1 POP SWAP3 SWAP2 POP POP JUMP JUMPDEST PUSH2 0xCD9 DUP3 PUSH2 0x844 JUMP JUMPDEST PUSH8 0xFFFFFFFFFFFFFFFF DUP2 GT ISZERO PUSH2 0xCF2 JUMPI PUSH2 0xCF1 PUSH2 0x675 JUMP JUMPDEST JUMPDEST PUSH2 0xCFC DUP3 SLOAD PUSH2 0xAE9 JUMP JUMPDEST PUSH2 0xD07 DUP3 DUP3 DUP6 PUSH2 0xC43 JUMP JUMPDEST PUSH1 0x0 PUSH1 0x20 SWAP1 POP PUSH1 0x1F DUP4 GT PUSH1 0x1 DUP2 EQ PUSH2 0xD3A JUMPI PUSH1 0x0 DUP5 ISZERO PUSH2 0xD28 JUMPI DUP3 DUP8 ADD MLOAD SWAP1 POP JUMPDEST PUSH2 0xD32 DUP6 DUP3 PUSH2 0xCB4 JUMP JUMPDEST DUP7 SSTORE POP PUSH2 0xD9A JUMP JUMPDEST PUSH1 0x1F NOT DUP5 AND PUSH2 0xD48 DUP7 PUSH2 0xB1A JUMP JUMPDEST PUSH1 0x0 JUMPDEST DUP3 DUP2 LT ISZERO PUSH2 0xD70 JUMPI DUP5 DUP10 ADD MLOAD DUP3 SSTORE PUSH1 0x1 DUP3 ADD SWAP2 POP PUSH1 0x20 DUP6 ADD SWAP5 POP PUSH1 0x20 DUP2 ADD SWAP1 POP PUSH2 0xD4B JUMP JUMPDEST DUP7 DUP4 LT ISZERO PUSH2 0xD8D JUMPI DUP5 DUP10 ADD MLOAD PUSH2 0xD89 PUSH1 0x1F DUP10 AND DUP3 PUSH2 0xC96 JUMP JUMPDEST DUP4 SSTORE POP JUMPDEST PUSH1 0x1 PUSH1 0x2 DUP9 MUL ADD DUP9 SSTORE POP POP POP JUMPDEST POP POP POP POP POP POP JUMP INVALID LOG2 PUSH5 0x6970667358 0x22 SLT KECCAK256 0x4B DUP16 SWAP6 0xC9 AND 0xF6 0xDB ADD CHAINID SWAP5 PUSH19 0x6F4358C4D6905DFA084815C1E4519ACA435DF5 SWAP7 0xEC PUSH5 0x736F6C6343 STOP ADDMOD SLT STOP CALLER "
				},
				"gasEstimates": {
					"creation": {
						"codeDepositCost": "708800",
						"executionCost": "741",
						"totalCost": "709541"
					},
					"external": {
						"addArticle(string,string)": "infinite",
						"addUser(address)": "24790",
						"getUserArticles()": "infinite",
						"isUserEligible(address)": "2927",
						"removeUser(address)": "24878"
					}
				},
				"methodIdentifiers": {
					"addArticle(string,string)": "6ec67ec9",
					"addUser(address)": "421b2d8b",
					"getUserArticles()": "8568e259",
					"isUserEligible(address)": "879df1f3",
					"removeUser(address)": "98575188"
				}
			},
			"storageLayout": {
				"storage": [
					{
						"astId": 247,
						"contract": "MyContracts2.sol:ArticleManagement",
						"label": "userArticles",
						"offset": 0,
						"slot": "0",
						"type": "t_mapping(t_address,t_array(t_struct(Article)241_storage)dyn_storage)"
					},
					{
						"astId": 251,
						"contract": "MyContracts2.sol:ArticleManagement",
						"label": "eligibleUsers",
						"offset": 0,
						"slot": "1",
						"type": "t_mapping(t_address,t_bool)"
					}
				],
				"types": {
					"t_address": {
						"encoding": "inplace",
						"label": "address",
						"numberOfBytes": "20"
					},
					"t_array(t_struct(Article)241_storage)dyn_storage": {
						"base": "t_struct(Article)241_storage",
						"encoding": "dynamic_array",
						"label": "struct ArticleManagement.Article[]",
						"numberOfBytes": "32"
					},
					"t_bool": {
						"encoding": "inplace",
						"label": "bool",
						"numberOfBytes": "1"
					},
					"t_mapping(t_address,t_array(t_struct(Article)241_storage)dyn_storage)": {
						"encoding": "mapping",
						"key": "t_address",
						"label": "mapping(address => struct ArticleManagement.Article[])",
						"numberOfBytes": "32",
						"value": "t_array(t_struct(Article)241_storage)dyn_storage"
					},
					"t_mapping(t_address,t_bool)": {
						"encoding": "mapping",
						"key": "t_address",
						"label": "mapping(address => bool)",
						"numberOfBytes": "32",
						"value": "t_bool"
					},
					"t_string_storage": {
						"encoding": "bytes",
						"label": "string",
						"numberOfBytes": "32"
					},
					"t_struct(Article)241_storage": {
						"encoding": "inplace",
						"label": "struct ArticleManagement.Article",
						"members": [
							{
								"astId": 236,
								"contract": "MyContracts2.sol:ArticleManagement",
								"label": "title",
								"offset": 0,
								"slot": "0",
								"type": "t_string_storage"
							},
							{
								"astId": 238,
								"contract": "MyContracts2.sol:ArticleManagement",
								"label": "content",
								"offset": 0,
								"slot": "1",
								"type": "t_string_storage"
							},
							{
								"astId": 240,
								"contract": "MyContracts2.sol:ArticleManagement",
								"label": "owner",
								"offset": 0,
								"slot": "2",
								"type": "t_address"
							}
						],
						"numberOfBytes": "96"
					}
				}
			},
			"userdoc": {
				"kind": "user",
				"methods": {},
				"version": 1
			}
		}
	}
}